:1000000012C01FC01EC01DC01CC01BC01AC019C01A
:1000100018C017C016C015C014C013C012C011C03C
:1000200010C00FC00EC011241FBECFEDCDBF10E019
:10003000A0E6B0E001C01D92A636B107E1F7C5D039
:10004000D1C0DECF479A1ABA1BBA87B3836087BB89
:1000500088B38C7F88BB81B3807C81BB82B38A628A
:1000600082BB82B38A7E82BB0895859903C0849B3C
:1000700006C002C0849903C01092630003C081E0EF
:1000800080936300819903C0809B06C002C0809961
:1000900003C01092640003C081E0809364008399E0
:1000A00003C0829B06C002C0829903C01092650003
:1000B000089581E08093650008958091610081300A
:1000C00021F480916200813041F0809164008130A0
:1000D00069F480916500813049F4109261001092BA
:1000E000620010926000C098C198089580916400E9
:1000F000882329F480916500882309F465C08091E4
:100100006000882319F580916100882309F05CC0A4
:1001100080916200882309F057C08091630081308C
:1001200009F052C080916400813029F4809362000C
:1001300080936000C19A80916500813009F044C0CD
:100140008093610080936000C09A0895809162005E
:100150008130D9F4809165008130B9F488E893E169
:1001600029E130E0F9013197F1F70197D9F71092C1
:10017000600010926200C19880E197E229E130E0CE
:10018000F9013197F1F70197D9F78091610081303A
:10019000D9F4809164008130B9F488E893E129E1D1
:1001A00030E0F9013197F1F70197D9F7109260002B
:1001B00010926100C09880E197E229E130E0F901F6
:1001C0003197F1F70197D9F708953CDF88E893E17B
:1001D00029E130E0F9013197F1F70197D9F745DFCF
:0801E0006CDFFDCFF894FFCFA6
:00000001FF
