:1000000012C01FC01EC01DC01CC01BC01AC019C01A
:1000100018C017C016C015C014C013C012C011C03C
:1000200010C00FC00EC011241FBECFEDCDBF10E019
:10003000A0E6B0E001C01D92A636B107E1F7DCD022
:10004000E8C0DECF479A1ABA1BBA87B3836087BB72
:1000500088B38C7F88BB81B3807C81BB82B38A628A
:1000600082BB82B38A7E82BB0895859903C0849B3C
:1000700006C002C0849903C01092630003C081E0EF
:1000800080936300819903C0809B06C002C0809961
:1000900003C01092640003C081E0809364008399E0
:1000A00003C0829B06C002C0829903C01092650003
:1000B000089581E08093650008958091610081300A
:1000C00021F480916200813041F0809164008130A0
:1000D00069F480916500813049F4109261001092BA
:1000E000620010926000C098C198089580916400E9
:1000F000882329F480916500882309F47CC08091CD
:100100006000882319F580916100882309F073C08D
:1001100080916200882309F06EC080916300813075
:1001200009F069C080916400813029F480936200F5
:1001300080936000C19A80916500813009F05BC0B6
:100140008093610080936000C09A08958091600060
:10015000813009F041C0809162008130E1F48091EA
:1001600065008130C1F488E893E129E130E0F901CC
:100170003197F1F70197D9F782E0809360001092F0
:100180006200C19888E893E129E130E0F9013197F4
:10019000F1F70197D9F780916100813061F5809185
:1001A0006400813041F588E893E129E130E0F9010C
:1001B0003197F1F70197D9F782E0809360001092B0
:1001C0006100C09888E893E129E130E0F9013197B6
:1001D000F1F70197D9F7089580916300882359F4C6
:1001E0001092600088E893E129E130E0F90131974D
:1001F000F1F70197D9F7089525DF88E893E129E120
:1002000030E0F9013197F1F70197D9F72EDF55DF8B
:06021000FDCFF894FFCFC2
:00000001FF
