:1000000012C02CC02BC02AC029C028C0B2C226C032
:1000100025C024C023C0C0C221C020C01FC01EC034
:100020001DC01CC01BC011241FBECFE5D4E0DEBF25
:10003000CDBF11E0A0E6B0E0EAEBF0E102C0059030
:100040000D92A037B107D9F711E0A0E7B1E001C0E8
:100050001D92A53EB107E1F71AD32DC8D1CFB998AB
:10006000B89ABA9ABD9ABB9ABC98C098C29A089599
:1000700080918A010895C59840E027E030E0682F1C
:1000800070E0CB01022E02C0959587950A94E2F7A5
:1000900080FF02C0C39A01C0C398C59A440FB499A7
:1000A0004160C598215030408FEF2F3F380749F706
:1000B000842F0895C2988FEFDEDFC29A0895FADF89
:1000C00085FF02C080E0089584FD02C08FEF08958F
:1000D00081E00895EFDF90E0807309F491E0892FCB
:1000E0000895C29880E6C7DF80E0C5DF0895DF92FB
:1000F000EF92FF920F931F93CF93DF937B01D42E48
:100100008C01C0E0D0E009C0F80181918F01B3DF1C
:10011000F701EC0FFD1F80832196CD15A8F3DF9129
:10012000CF911F910F91FF90EF90DF9008950F9363
:100130001F93CF93DF93062FEC0110E003C089914A
:100140009ADF1F5F1017D8F3DF91CF911F910F91A6
:1001500008951F93162FC2988F7180628CDF812FB4
:100160008ADFC29A1F910895C09880E068E0F1DFAD
:10017000089587E060E7EDDF80E06AE0EADF089558
:100180000F931F938C01C098F4DFC29881EE73DF48
:10019000C29AC29880EA6FDFC80160918A01C7DF06
:1001A000C29AC09A1F910F910895C29882EE63DFA0
:1001B000C29A87E060E7CDDFC09880E06BE0C9DFDE
:1001C000C09A08950F931F938C01C29881E653DF64
:1001D000C801B80140918A018ADFC29A87E060E4D1
:1001E000B8DF1F910F910895982F60938A0185E0E1
:1001F000692FAFDF81E160918A01ABDF82E160E0CE
:10020000A8DF83E160E0A5DF84E160E0A2DF85E1B3
:1002100060E09FDF86E160E09CDF86E066E299DFD8
:1002200080E068E096DF81E060E093DF82E061E0FB
:1002300090DF84E06FE48DDF8CE160E08ADFB5DF82
:100240000895FF920F931F938B01F42EC2988F7124
:1002500012DFC801B8014F2D4ADFC29A1F910F91DA
:10026000FF900895DF93CF930F92CDB7DEB788E06C
:10027000BE016F5F7F4F41E0E4DF89818F700F9097
:10028000CF91DF910895DF93CF930F92CDB7DEB773
:1002900087E1BE016F5F7F4F41E0D3DF89818170CD
:1002A0000F90CF91DF91089505DF86FD04C0EBDF4D
:1002B00090E0882309F491E0892F0895FF920F932D
:1002C0001F938B01F42EC2988F718062D4DEC80117
:1002D0006F2D2DDFC29A1F910F91FF9008950F93FC
:1002E0001F938C018AE0B80145E0E8DF80E1B801A6
:1002F00045E0E4DF1F910F910895BC01C0988BE0A9
:1003000045E0DCDFC09A0895CF93DF9380918B01A5
:10031000843209F0D3C080918C01873409F0CEC0BB
:1003200080918D01803509F0C9C080918E018235A0
:1003300009F0C4C080918F018D3409F0BFC0809155
:100340009001833409F0BAC090918001955040E04B
:1003500020E030E005C0F901E557FE4F80814827D5
:100360002F5F3F4F2917B8F3E0918001F0E0E95784
:10037000FE4FE0818E2F80538A3008F08750E09145
:100380008001F0E0E857FE4FE0819E2F90539A30B5
:1003900008F097508295807F892B481709F08EC00E
:1003A00084E2809370018091920120919301205109
:1003B0003AE0839FC0011124280F2093710180919E
:1003C0009401209195012051839FC0011124280F91
:1003D0002093720180919601209197012051839F73
:1003E000C0011124280F209373014CE098E00BC04A
:1003F000E42FF0E0E557FE4F80818C3209F49150F4
:100400004F5F992321F080918001481788F3E42FF2
:10041000F0E0DF01A557BE4F8C91E457FE4F2081DD
:1004200020513AE0839FC0011124280F20937401CA
:10043000A42FAE5FEA2FF0E0CF0185579E4FEC016D
:100440008881E457FE4F20812051839FC0011124F1
:10045000280F20937501AE5FB0E0FD01E557FE4F18
:100460008081A457BE4F2C912051839FC00111243D
:10047000280F2093760190E022E00BC0E92FF0E0F6
:10048000E557FE4F80818C3209F421509F5F222373
:1004900021F080918001981788F3E92FF0E0E5576B
:1004A000FE4F808180937701E0E7F1E090E0819159
:1004B000982781E0EF37F807D1F7908310928001F9
:1004C00010928101DF91CF91089524B1E5B180911F
:1004D0008801882369F580E4809388016091840114
:1004E00070918501809186019091870126E0969513
:1004F0008795779567952A95D1F73CD3FBD0709374
:100500008301609382011092840110928501109200
:1005100086011092870180918201909183019093CE
:1005200078018091820190918301809379010895EF
:10053000809188018150809388014091840150917D
:10054000850160918601709187019E2F80E030E0E7
:10055000822B932BA0E0B0E0840F951FA61FB71F3E
:100560008093840190938501A0938601B0938701C5
:1005700008951F920F920FB60F9211248F931DBCF6
:100580001CBC809189018260809389018F910F90BA
:100590000FBE0F901F9018951F920F920FB60F92DB
:1005A00011248F939F93EF93FF939CB1943221F486
:1005B000809181018111949A80918101813051F063
:1005C000813028F5943221F590938B0181E080935E
:1005D00080011AC0809180018A35C8F4E0918001C1
:1005E000F0E0E557FE4F9083809180018F5F80930C
:1005F00080019A3069F4E0918001F0E0E757FE4F06
:1006000080818D3029F482E08093810101C0949A29
:10061000FF91EF919F918F910F900FBE0F901F90C0
:100620001895479A80E181BB88E082BB89B78061D9
:1006300089BF1DBC1CBC1FBC84E08EBD8AE78BBD7E
:1006400082E18ABD87E487B987E886B910BC87E66E
:1006500089B980E98AB986E880BD01DD80E29EE43F
:1006600028EC30E0F9013197F1F70197D9F78AE0EA
:1006700060E1BADD809166009091670030DE809184
:1006800066009091670039DE90DD78940895CF93ED
:10069000DF9388E893E128EC30E0F9013197F1F736
:1006A0000197D9F7BEDF369AC8ECD0E0369902C080
:1006B0000CDF369A8091890181FF0DC080E791E0BF
:1006C0005FDD08DD8823E9F770DD809189018D7F8A
:1006D00080938901949880918101823009F414DE1D
:1006E0008399E4CF80E197E2FE013197F1F701971A
:1006F000D9F7DCCFEF92FF920F931F937B018C0110
:1007000020E030E040E05FE4B9D188237CF0C8010C
:10071000B70120E030E040E05FE45ED1DAD19B0138
:10072000AC01205030404040504805C0C801B701DE
:10073000D0D19B01AC01B901CA011F910F91FF906B
:10074000EF900895A0E0B0E0E7EAF3E07DC4DC01BB
:100750002B01FA019C91923008F439C1EB01888198
:10076000823008F433C1943069F4843009F02FC129
:1007700011969C9111978981981709F428C1A8E6D0
:10078000B0E025C1843009F421C18230A9F492304F
:1007900009F01DC19A01AD0188E0EA010990AE019E
:1007A000E90109929E018150C1F7E2018981119608
:1007B0009C918923818308C1923009F407C1129664
:1007C0002D903C901397EB018A819B811496AD90FC
:1007D000BD90CD90DC901797EC80FD800E811F813D
:1007E0009101281B390BB90137FF04C06627772711
:1007F000621B730B603271050CF061C01216130698
:100800006CF537014801062E04C0969487947794BE
:1008100067940A94D2F721E030E040E050E004C051
:10082000220F331F441F551F6A95D2F721503040C5
:10083000404050402E213F214023512321153105B6
:100840004105510521F021E030E040E050E0790120
:100850008A01E628F728082919293CC0232BD1F161
:10086000260E371E35014601062E04C09694879445
:10087000779467940A94D2F721E030E040E050E0AA
:1008800004C0220F331F441F551F6A95D2F7215011
:100890003040404050402A213B214C215D21211510
:1008A00031054105510521F021E030E040E050E004
:1008B00059016A01A628B728C828D9280BC0821573
:1008C00093052CF01C01AA24BB24650103C0EE246F
:1008D000FF24870111969C91D20111968C91981753
:1008E00009F445C0992339F0A80197012A193B0959
:1008F0004C095D0906C0A60195012E193F09400B60
:10090000510B57FD08C01182338222822483358324
:10091000468357831DC081E08183338222828827EA
:100920009927DC01821B930BA40BB50B8483958361
:10093000A683B7830DC0220F331F441F551F248386
:100940003583468357838281938101979383828382
:100950002481358146815781DA01C9010197A109B6
:10096000B1098F5F9F4FAF4FBF4328F30BC09183F7
:1009700033822282EA0CFB1C0C1D1D1DE482F582D1
:100980000683178383E080832481358146815781E4
:1009900057FF1AC0C901AA2797FDA095BA2F8170E9
:1009A0009070A070B0705695479537952795822B1B
:1009B000932BA42BB52B84839583A683B783828145
:1009C0009381019693838283DF0101C0D201CD011F
:1009D000CDB7DEB7E2E154C3A0E2B0E0E1EFF4E06E
:1009E0003FC369837A838B839C832D833E834F83AC
:1009F0005887E9E0EE2EF12CEC0EFD1ECE0101969B
:100A0000B70151D28E010F5E1F4FCE010596B8017E
:100A10004AD28A8991E089278A8BC701B801AE0141
:100A2000475E5F4F8FDE6AD1A096E6E035C3A0E255
:100A3000B0E0ECE1F5E014C369837A838B839C8397
:100A40002D833E834F835887F9E0EF2EF12CEC0E77
:100A5000FD1ECE010196B70126D28E010F5E1F4FFB
:100A6000CE010596B8011FD2C701B801AE01475E9D
:100A70005F4F68DE43D1A096E6E00EC3A8E1B0E088
:100A8000E3E4F5E0EDC269837A838B839C832D8355
:100A90003E834F83588789E0E82EF12CEC0EFD1E33
:100AA000CE010196B701FFD18E010F5E1F4FCE011F
:100AB0000596B801F8D18985823038F0898982306D
:100AC00020F0C701B80167D201C08FEF6896E6E059
:100AD000E3C2ACE0B0E0EEE6F5E0C6C269837A833B
:100AE0008B839C83CE010196BE016B5F7F4FDBD170
:100AF0008D81823061F1823050F1843021F48E8119
:100B0000882351F12EC02F81388537FD20C06E819A
:100B10002F3131051CF06623F9F023C08EE190E0FF
:100B2000821B930B29853A854B855C8504C05695BD
:100B30004795379527958A95D2F76623B1F050955A
:100B40004095309521953F4F4F4F5F4F0EC020E0AD
:100B500030E040E050E009C02FEF3FEF4FEF5FE79C
:100B600004C020E030E040E050E8B901CA012C9612
:100B7000E2E096C2A8E0B0E0EFEBF5E06DC27B01E9
:100B80008C01611571058105910519F482E0898355
:100B90005FC083E089838EE1C82ED12CDC82CB82BA
:100BA000ED82FE820F831887C801B70158D0FC017F
:100BB0003197F7FF3BC0222733272E1B3F0B5701EE
:100BC0006801022E04C0D694C794B794A7940A94DF
:100BD000D2F740E050E060E070E081E090E0A0E01B
:100BE000B0E004C0880F991FAA1FBB1F2A95D2F737
:100BF0000197A109B1098E219F21A023B12300975C
:100C0000A105B10521F041E050E060E070E04A2923
:100C10005B296C297D294D835E836F8378878EE104
:100C200090E08E1B9F0B9C838B8312C0309781F0CA
:100C30000E2E04C0EE0CFF1C001F111F0A94D2F7E9
:100C4000ED82FE820F831887CE1ADF0ADC82CB8208
:100C50001A82CE01019652D02896EAE019C2EF928C
:100C6000FF920F931F937B018C0180E0E81680E0D8
:100C7000F80681E0080780E0180788F48FEFE8168F
:100C8000F1040105110531F028F088E090E0A0E0C2
:100C9000B0E017C080E090E0A0E0B0E012C080E0DB
:100CA000E81680E0F80680E0080781E0180728F0E1
:100CB00088E190E0A0E0B0E004C080E190E0A0E036
:100CC000B0E020E230E040E050E0281B390B4A0B56
:100CD0005B0B04C016950795F794E7948A95D2F7B5
:100CE000F701E059FF4F8081281B31094109510963
:100CF000C9011F910F91FF90EF900895DF92EF923D
:100D0000FF920F931F93FC01E480F5800681178109
:100D1000D1808081823048F480E090E0A0E1B0E0B2
:100D2000E82AF92A0A2B1B2BA5C0843009F49FC09E
:100D3000823021F4EE24FF24870105C0E114F10480
:100D40000105110519F4E0E0F0E096C062817381BD
:100D50009FEF623879070CF05BC022E83FEF261B5B
:100D6000370B2A3131052CF020E030E040E050E034
:100D70002AC0B801A701022E04C076956795579541
:100D800047950A94D2F781E090E0A0E0B0E004C07B
:100D9000880F991FAA1FBB1F2A95D2F70197A10997
:100DA000B1098E219F21A023B1230097A105B10590
:100DB00021F081E090E0A0E0B0E09A01AB01282BA7
:100DC000392B4A2B5B2BDA01C9018F779070A07009
:100DD000B07080349105A105B10539F427FF09C031
:100DE000205C3F4F4F4F5F4F04C0215C3F4F4F4F40
:100DF0005F4FE0E0F0E02030A0E03A07A0E04A07D3
:100E0000A0E45A0710F0E1E0F0E079018A0127C080
:100E10006038710564F5FB01E158FF4FD801C70147
:100E20008F779070A070B07080349105A105B105E6
:100E300039F4E7FE0DC080E490E0A0E0B0E004C02B
:100E40008FE390E0A0E0B0E0E80EF91E0A1F1B1F40
:100E500017FF05C016950795F794E794319687E03C
:100E600016950795F794E7948A95D1F705C0EE2477
:100E7000FF248701EFEFF0E06E2F679566276795F7
:100E8000902F9F77D794DD24D7948E2F8695492F66
:100E9000462B582F5D29B701CA011F910F91FF9072
:100EA000EF90DF900895FC01DB01408151812281A8
:100EB000622F6F7770E0221F2227221F9381892FD4
:100EC000880F822B282F30E0991F9927991F1196A0
:100ED0009C93119721153105A9F54115510561051F
:100EE000710511F482E037C082E89FEF13969C935E
:100EF0008E9312979A01AB0167E0220F331F441FB4
:100F0000551F6A95D1F783E08C930DC0220F331FD4
:100F1000441F551F12968D919C911397019713961C
:100F20009C938E931297203080E0380780E048072A
:100F300080E4580758F314962D933D934D935C939A
:100F4000179708952F3F310579F441155105610533
:100F5000710519F484E08C93089564FF03C081E067
:100F60008C9312C01C9210C02F57304013963C93A4
:100F70002E93129783E08C9387E0440F551F661FD2
:100F8000771F8A95D1F7706414964D935D936D9396
:100F90007C93179708951F93DC01FB019C9192307D
:100FA00008F447C08081823008F443C0943051F483
:100FB00011961C91843099F58181682F70E0611B36
:100FC00071093FC0843021F0923031F48230B9F1A0
:100FD0008181882389F12DC011961C91119782304F
:100FE000F1F081811817D9F412962D913C91139745
:100FF000828193818217930794F028173907BCF0F8
:1010000014968D919D910D90BC91A02D24813581D8
:1010100046815781281739074A075B0718F41123BF
:1010200041F00AC082179307A407B50740F41123C3
:1010300019F061E070E005C06FEF7FEF02C060E083
:1010400070E0CB011F9108952F923F924F925F92D3
:101050006F927F928F929F92AF92BF92CF92DF92C8
:10106000EF92FF920F931F93CF93DF93CDB7DEB72D
:10107000CA1BDB0B0FB6F894DEBF0FBECDBF0994C1
:101080002A88398848885F846E847D848C849B8418
:10109000AA84B984C884DF80EE80FD800C811B8126
:1010A000AA81B981CE0FD11D0FB6F894DEBF0FBE55
:0A10B000CDBFED010895F894FFCFC5
:1010BA004D4554454F00600000000000000000004C
:1010CA0000010202030303030404040404040404E5
:1010DA0005050505050505050505050505050505B6
:1010EA000606060606060606060606060606060696
:1010FA000606060606060606060606060606060686
:10110A000707070707070707070707070707070765
:10111A000707070707070707070707070707070755
:10112A000707070707070707070707070707070745
:10113A000707070707070707070707070707070735
:10114A000808080808080808080808080808080815
:10115A000808080808080808080808080808080805
:10116A0008080808080808080808080808080808F5
:10117A0008080808080808080808080808080808E5
:10118A0008080808080808080808080808080808D5
:10119A0008080808080808080808080808080808C5
:1011AA0008080808080808080808080808080808B5
:1011BA0008080808080808080808080808080808A5
:00000001FF
