:100000000C948F0F0C94A10F0C94A10F0C94A10FC2
:100010000C94A10F0C94A7100C94A10F0C949410A5
:100020000C94A10F0C94A10F0C94A10F0C94A10F90
:100030000C94A10F0C94A10F0C94A10F0C94A10F80
:100040000C94A10F0C94A10F0C94A10F0C94A10F70
:100050000C94A10F000000000000003E4551453EF9
:10006000003E6B6F6B3E001C3E7C3E1C00183C7ECD
:100070003C180030367F363000185C7E5C1800007B
:1000800018180000FFFFE7E7FFFF003C24243C00B6
:10009000FFC3DBDBC3FF0030484A360E0006297978
:1000A00029060060703F020400607E0A353F002A86
:1000B0001C361C2A00007F3E1C0800081C3E7F00E6
:1000C0000014367F361400005F005F000006097FD1
:1000D000017F00224D5559220060606060000014CD
:1000E000B6FFB6140004067F06040010307F3010FF
:1000F0000008083E1C0800081C3E08080078404024
:10010000404000083E083E0800303C3F3C300003C1
:100110000F3F0F030000000000000000065F060014
:1001200000070300070300247E247E2400242B6A9A
:100130001200006313086463003649562050000023
:100140000703000000003E4100000000413E0000A7
:1001500000083E1C3E080008083E08080000E06059
:100160000000000808080808000060600000002087
:1001700010080402003E4141413E0000427F400021
:100180000062514949460022494949360018141273
:100190007F10002F49494931003C4A49493000014C
:1001A0007109050300364949493600064949291EA7
:1001B00000006C6C00000000EC6C000000081422D1
:1001C00041000024242424240000412214080002B9
:1001D00001590906003E415D551E007E1111117E38
:1001E000007F49494936003E41414122007F41415B
:1001F000413E007F49494941007F09090901003E0C
:100200004149497A007F0808087F0000417F41008A
:1002100000304040403F007F08142241007F4040B2
:100220004040007F0204027F007F0204087F003EFE
:100230004141413E007F09090906003E4151215ECE
:10024000007F090919660026494949320001017FEA
:100250000101003F4040403F001F2040201F003F61
:10026000403C403F0063140814630007087008070F
:1002700000714945430000007F414100000204082D
:100280001020000041417F00000402010204808030
:1002900080808080000003070000002054545478C0
:1002A000007F4444443800384444442800384444DF
:1002B000447F00385454540800087E09090000188F
:1002C000A4A4A47C007F040478000000007D40000A
:1002D000004080847D00007F102844000000007FE3
:1002E0004000007C04180478007C04047800003886
:1002F0004444443800FC444444380038444444FCFA
:1003000000447844040800085454542000043E4437
:100310002400003C40207C00001C2040201C003CAD
:100320006030603C006C10106C00009CA0603C00D1
:10033000006454544C0000083E4141000000007726
:100340000000000041413E08000201020100003CA3
:100350002623263C441144114411AA55AA55AA55F6
:10036000BBEEBBEEBBEE000000FF0000080808FF7C
:1003700000000A0A0AFF000008FF00FF000008F85A
:1003800008F800000A0A0AFE00000AFB00FF00004D
:1003900000FF00FF00000AFA02FE00000A0B080F2F
:1003A0000000080F080F00000A0A0A0F00000808E2
:1003B00008F800000000000F08080808080F0808E7
:1003C000080808F80808000000FF080808080808DE
:1003D0000808080808FF0808000000FF0A0A00FFD4
:1003E00000FF0808000F080B0A0A00FE02FA0A0ABA
:1003F0000A0B080B0A0A0AFA02FA0A0A00FF00FBB3
:100400000A0A0A0A0A0A0A0A0AFB00FB0A0A0A0A74
:100410000A0B0A0A080F080F08080A0A0AFA0A0A49
:1004200008F808F80808000F080F08080000000F77
:100430000A0A000000FE0A0A00F808F8080808FF87
:1004400008FF0808007E4B4A4B420A0A0AFF0A0AC4
:100450000808080F0000000000F80808FFFFFFFF71
:10046000FFFFF0F0F0F0F0F0FFFFFF0000000000F1
:1004700000FFFFFF0F0F0F0F0F0F003E49494122F2
:100480000038545444280001407E40010000017CA3
:1004900041000027484B483F009DA2623D000006F6
:1004A00009090600003855545508000018180000C6
:1004B0000000080000000030403E02027F06187F66
:1004C00013132A3E14143E2A003C3C3C3C0000001E
:1004D00000000000007E1111117E007F4949493162
:1004E000007F49494936007F01010101C07E414139
:1004F0007FC0007F494949410077087F087722493A
:1005000049493600007F2010087F007E2111097EB6
:10051000007F0814224100407E01017F007F020419
:10052000027F007F0808087F003E4141413E007F76
:100530000101017F007F09090906003E4141412276
:100540000001017F010100274848483F000E117F4C
:10055000110E006314081463007F40407FC0000741
:100560000808087F007F407F407F007F407F40FF7A
:1005700003017F484830007F4848307F007F48486B
:10058000483000224149493E007F083E413E006616
:100590001909097F002054545478003C4A4A4A31D2
:1005A000007C54545428007C04040C00C07844445B
:1005B0007CC0003854545408006C107C106C002827
:1005C00044545428007C2010087C007C20120A7CB3
:1005D000007C10284400403804047C00007C081093
:1005E000087C007C1010107C003844444438007CA7
:1005F0000404047C00FC4444443800384444442847
:100600000004047C0404009CA0603C000018247CCE
:100610002418006C10106C00007C40407CC0000C62
:100620001010107C007C407C407C007C407C40FCB6
:100630000C047C505020007C5050207C007C50509A
:100640005020002844545438007C10384438004866
:100650003414147C000000000000000000000000C2
:1006600000000000000000000000000000F00C028C
:100670003231013132020CF000030C10112222221F
:1006800011100C0300F0FCFECECFFFCFCEFEFCF02D
:1006900000030F1F1E3D3D3D1E1F0F030000F0F81D
:1006A000F8F0E0F0F8F8F0000000000103070F0791
:1006B00003010000000080C0E0F0F8F0E0C080001E
:1006C0000000000103070F07030100000080C0C005
:1006D000B8FCFCFCB8C0C08000030707131B1F1B3D
:1006E00013070703000080C0E0F0FCF0E0C08000CA
:1006F00000000307171B1F1B170703000000000063
:1007000080C0C08000000000000000000103030161
:1007100000000000FFFFFFFF7F3F3F7FFFFFFFFF65
:10072000FFFFFFFFFEFCFCFEFFFFFFFF000000C01D
:1007300020101020C000000000000003040808047E
:1007400003000000FFFFFF3FDFEFEFDF3FFFFFFF92
:10075000FFFFFFFCFBF7F7FBFCFFFFFF0080C06023
:10076000202060C8A81878000003070C08080C07B0
:100770000300000000000070F88C04048CF8700086
:100780000000000008093F3F0908000000000000C9
:100790000000FF0E7C3800000000000C1E1E0F0041
:1007A0000000000000000000FF3366CC98F000005D
:1007B00000060F0F07003078793F00000080C8F076
:1007C00030181E1830F0C88000000907060C3C0CD9
:1007D00006070900000000FCF8F0E0C080000000FF
:1007E0000000001F0F070301000000000000008050
:1007F000C0E0F0F8FC000000000000000103070F5B
:100800001F00000000000010181CFE1C1810000043
:10081000000000040C1C3F1C0C040000000000FE43
:10082000FE0000FEFE000000000000373700003729
:100830003700000000387CC682FEFE02FEFE020089
:1008400000000000003F3F003F3F00000000DCFED2
:1008500022222222E6C40000000008191111111101
:100860001F0E00000000000000000000000000005B
:1008700000000038383838383838380000000008B0
:100880000C0EFF0E0C080000000000444C5C7F5C66
:100890004C44000000000010181CFE1C1810000042
:1008A0000000000000003F00000000000000000009
:1008B0000000FE0000000000000000040C1C3F1CB3
:1008C0000C04000000008080808080F0E0C0800088
:1008D000000000000000000703010000000080C0CD
:1008E000E0F08080808080000000000103070000AD
:1008F00000000000000000000000000000000000F8
:10090000003F202020202020202020000080C0E068
:10091000F0808080F0E0C08000000103070000004C
:10092000070301000000000080C0E0C0800000005C
:10093000000406070707070707070604002060E012
:10094000E0E0E0E0E0E060200000000001030703D9
:100950000100000000000000000000000000000096
:100960000000000000000000000000000000000087
:100970007CFFFF7C0000000000000000003333001B
:10098000000000000000003C3C00003C3C00000077
:1009900000000000000000000000000000001090B7
:1009A000F07E1E90F07E1E1000021E1F03021E1F0E
:1009B00003020000000078FCCCFFFFCCCC880000D4
:1009C0000000040C0C3F3F0C0F07000000003838FB
:1009D000380080C0E070381C0030381C0E0703015E
:1009E00038383800000000B8FCC6E23E1C000000A9
:1009F00000001F3F3121371E1C362200000000007E
:100A0000273F1F0000000000000000000000000061
:100A100000000000000000F0FCFE070101000000E3
:100A2000000000030F1F382020000000000000011C
:100A30000107FEFCF00000000000002020381F0F1E
:100A400003000000000098B8E0F8F8E0B898000053
:100A500000000C0E030F0F030E0C0000000080803E
:100A600080F0F0808080000000000101010F0F0184
:100A70000101000000000000000000000000000074
:100A800000000000B8F8780000000000000080803E
:100A90008080808080800000000001010101010150
:100AA0000101000000000000000000000000000044
:100AB000000000003838380000000000000000008E
:100AC0000080C0E070381C0E00181C0E07030100E7
:100AD0000000000000F8FE060383C363331EFEF827
:100AE00000071F1E3331303030181F070000000C84
:100AF0000C0EFFFF000000000000003030303F3FD0
:100B000030303000001C1E07030383C3E3773E1C14
:100B10000030383C3E37333130303030000C0E0777
:100B2000C3C3C3C3C3E77E3C000C1C383030303035
:100B300030391F0E00C0E070381C0E07FFFF0000A8
:100B400000030303030303033F3F0303003F7F63EB
:100B50006363636363E3C383000C1C38303030305D
:100B600030381F0F00C0F0F8DCCEC7C3C3C380000D
:100B7000000F1F393030303030391F0F00030303AE
:100B8000030303C3F33F0F0300000000303C0F03D7
:100B9000000000000000BCFEE7C3C3C3E7FEBC00CA
:100BA000000F1F393030303030391F0F003C7EE7E6
:100BB000C3C3C3C3C3E7FEFC000000303030381CA1
:100BC0000E070300000000007070700000000000BD
:100BD000000000001C1C1C000000000000000000C1
:100BE0007070700000000000000000009CFC7C00A1
:100BF000000000000000C0E0F0381C0E07030000F9
:100C00000000000103070E1C383000000000606087
:100C10006060606060606000000006060606060610
:100C200006060600000003070E1C38F0E0C00000B6
:100C3000000030381C0E070301000000001C1E07D6
:100C40000383C3E3773E1C00000000000037370039
:100C50000000000000F8FE07F3FB1BFBFB07FEF89B
:100C6000000F1F183337363737360301000000E016
:100C7000FC1F1FFCE000000000383F0706060606C8
:100C8000073F380000FFFFC3C3C3C3E7FEBC00003B
:100C9000003F3F3030303030391F0F0000F0FC0E85
:100CA00007030303070E0C0000030F1C383030301D
:100CB000381C0C0000FFFF03030303070EFCF000C9
:100CC000003F3F30303030381C0F030000FFFFC3BF
:100CD000C3C3C3C3C3030300003F3F3030303030D1
:100CE0003030300000FFFFC3C3C3C3C3C3030300DE
:100CF000003F3F00000000000000000000F0FC0E7C
:100D00000703C3C3C3C7C60000030F1C383030300D
:100D1000303F3F0000FFFFC0C0C0C0C0C0FFFF00A9
:100D2000003F3F0000000000003F3F0000000003C4
:100D300003FFFF030300000000000030303F3F309E
:100D400030000000000000000000000000FFFF0075
:100D5000000E1E3830303030381F070000FFFFC053
:100D6000E0F0381C0E070300003F3F000103070EB0
:100D70001C38300000FFFF000000000000000000F1
:100D8000003F3F30303030303030300000FFFF1E49
:100D900078E0E0781EFFFF00003F3F000001010007
:100DA000003F3F0000FFFF0E38F0C00000FFFF00D3
:100DB000003F3F00000003071C3F3F0000F0FC0E17
:100DC000070303070EFCF00000030F1C3830303817
:100DD0001C0F030000FFFF8383838383C7FE7C0017
:100DE000003F3F01010101010100000000F0FC0E85
:100DF000070303070EFCF00000030F1C3830363EDB
:100E00001C3F330000FFFF8383838383C7FE7C0086
:100E1000003F3F010103070F1D383000003C7EE713
:100E2000C3C3C3C3C78E0C00000C1C383030303035
:100E3000391F0F000000030303FFFF03030300003B
:100E400000000000003F3F000000000000FFFF0026
:100E50000000000000FFFF0000071F383030303076
:100E6000381F070000073FF8C00000C0F83F070028
:100E7000000000010F3E3E0F0100000000FFFF00D8
:100E80000080800000FFFF00003F3F1C06030306B8
:100E90001C3F3F0000030F1C30E0E0301C0F03003C
:100EA00000303C0E030101030E3C300000030F3CF8
:100EB000F0C0C0F03C0F030000000000003F3F0006
:100EC000000000000003030303C3E3331F0F03000C
:100ED00000303C3E3331303030303000000000FF15
:100EE000FF030303030000000000003F3F303030E9
:100EF00030000000000E1C3870E0C08000000000D0
:100F00000000000000000103070E1C180000000391
:100F1000030303FFFF000000000000303030303FCB
:100F20003F000000006070381C0E070E1C38706017
:100F300000000000000000000000000000000000B1
:100F4000000000000000000000C0C0C0C0C0C0C061
:100F5000C0C0C0C000000000003E7E4E0000000087
:100F600000000000000000000000000000004060E1
:100F70006060606060E0C000001C3E333333333398
:100F8000333F3F0000FFFFC060606060E0C0800052
:100F9000003F3F3030303030381F0F000080C0E05D
:100FA0006060606060C08000000F1F3830303030FB
:100FB000301808000080C0E0606060E0C0FFFF0003
:100FC000000F1F3830303030303F3F000080C0E02D
:100FD0006060606060C08000000F1F3B33333333BC
:100FE0003313010000C0C0FCFEC7C3C303000000F0
:100FF0000000003F3F000000000000000080C0E053
:101000006060606060E0E0000003C7CECCCCCCCC78
:10101000E67F3F0000FFFFC0606060E0C08000002E
:10102000003F3F00000000003F3F000000000000C4
:1010300060ECEC000000000000000030303F3F306A
:101040003000000000000000000060ECEC00000038
:1010500000000060E0C0C0FF7F0000000000FFFF54
:101060000080C0E06000000000003F3F03070F1C4D
:10107000383000000000000003FFFF000000000007
:1010800000000030303F3F303000000000E0C0E0A2
:10109000E0C0C0E0E0C08000003F3F00003F3F00F4
:1010A000003F3F000000E0E060606060E0C0800062
:1010B00000003F3F00000000003F3F000080C0E014
:1010C00060606060E0C08000000F1F38303030305A
:1010D000381F0F0000E0E06060606060E0C08000EA
:1010E00000FFFF0C181818181C0F07000080C0E044
:1010F0006060606060E0E00000070F1C18181818BE
:101100000CFFFF000000E0E0C060606060E0C00035
:1011100000003F3F000000000000000000C0E06051
:101120006060606040000000001133333333333FB0
:101130001E000000006060FEFE60606000000000B5
:101140000000001F3F3030303000000000E0E000C1
:101150000000000000E0E000000F1F3830303030A9
:10116000183F3F000060E0800000000080E0600069
:10117000000001071E38381E0701000000E0E000F3
:1011800000E0E00000E0E00000071F381C0F0F1C2B
:10119000381F07000060E0C0800080C0E0600000F1
:1011A0000030381D0F070F1D38300000000060E0D0
:1011B00080000080E060000000000081E77E1E07E4
:1011C00001000000006060606060E0E060200000FE
:1011D0000030383C3633313030300000000080C001
:1011E000FC7E070303030000000000011F3F706046
:1011F000606000000000000000FFFF000000000031
:1012000000000000003F3F0000000000000003035A
:1012100003077EFCC08000000000606060703F1F1C
:10122000010000000010180C040C1810180C040029
:10123000000000000000000000000000000080C06E
:1012400060303060C0800000000F0F0C0C0C0C0CE4
:101250000C0F0F005500AA005500AA005500AA0067
:101260005500AA005500AA005500AA00AA55AA5583
:10127000AA55AA55AA55AA55AA55AA55AA55AA5576
:10128000AA55AA55AAFF55FFAAFF55FFAAFF55FF69
:10129000AAFF55FFAAFF55FFAAFF55FF0000000057
:1012A00000FFFF00000000000000000000FFFF0042
:1012B000000000008080808080FFFF0000000000B0
:1012C0000101010101FFFF0000000000C0C0C0C01B
:1012D000C0FFFF00000000000606060606FFFF0034
:1012E000000000008080FFFF00FFFF000000000002
:1012F0000101FFFF00FFFF000000000080808080F0
:1013000080808000000000000101FFFF01FFFF005E
:1013100000000000C0C0C0C0C0C0C000000000008D
:101320000606060606FFFF0000000000C0C0FFFF23
:1013300000FFFF00000000000606FEFE00FFFF00A9
:10134000000000000000FFFF00FFFF0000000000A1
:101350000000FFFF00FFFF0000000000C0C0C0C091
:10136000C0C0C000000000000606FEFE00FFFF0037
:1013700000000000C0C0FFFF00FFFF0000000000F1
:101380000606060606070700000000008080FFFF33
:1013900080FFFF00000000000101010101010100C8
:1013A00000000000C0C0C0C0C0FFFF00000000007F
:1013B0000606060606070700000000008080808001
:1013C00080808000000000000101010101FFFF009A
:1013D000000000000000000000FFFF80808080808F
:1013E00000000000000101010101010180808080F6
:1013F00080FFFF80808080800101010101010101E7
:1014000001010101808080808080808080808080D8
:101410000101010101FFFF010101010100000000C4
:1014200000FFFF80808080800000000000FFFF013F
:1014300001010101808080808080808080808080A8
:101440000101010101010101010101018080808090
:1014500080FFFF80808080800101010101FFFF018A
:10146000010101010000000000FFFFC0C0C0C0C0BA
:101470000000000000FFFF06060606060000FFFF52
:1014800000FFFF80808080800000FFFF00FFFF01E1
:10149000010101010000FFFF00FFFFC0C0C0C0C08C
:1014A0000000070706060606060606060000C0C07E
:1014B000C0C0C0C0C0C0C0C00000FFFF00FEFE062C
:1014C00006060606C0C0FFFF00FFFFC0C0C0C0C0C8
:1014D000060606060606060606060606C0C0C0C0C4
:1014E000C0C0C0C0C0C0C0C00606FEFE00FEFE06F2
:1014F000060606060000FFFF00FFFFC0C0C0C0C018
:101500000000FFFF00FEFE0606060606C0C0C0C0C3
:10151000C0C0C0C0C0C0C0C006060606060606069B
:1015200006060606C0C0FFFF00FFFFC0C0C0C0C067
:101530000606FEFE00FEFE0606060606C0C0C0C089
:10154000C0FFFFC0C0C0C0C00606060606060606ED
:10155000060606068080FFFF80FFFF808080808077
:10156000010101010101010101010101C0C0C0C06F
:10157000C0C0C0C0C0C0C0C00606060606FEFE064B
:101580000606060680808080808080808080808043
:101590000101FFFF01FFFF01010101010000FFFF49
:1015A00080FFFF8080808080000001010101010137
:1015B000010101010000000000FFFFC0C0C0C0C069
:1015C00000000000000707060606060600000000EF
:1015D00000C0C0C0C0C0C0C00000000000FFFF06C7
:1015E00006060606000080808080808080808080E3
:1015F0000000FFFF01FFFF01010101018080FFFFEB
:1016000000FFFF80808080800101FFFF00FFFF015D
:101610000101010100F8F89B9B98989B9B1818000A
:10162000003F3F313131313131303000C0C0C0C0B6
:10163000C0FFFFC0C0C0C0C00606060606FEFE060C
:10164000060606068080808080FFFF000000000004
:101650000101010101010100000000000000000083
:1016600000808080808080800000000000FFFF01FB
:1016700001010101FFFFFFFFFFFFFFFFFFFFFFFF72
:10168000FFFFFFFFFFFFFFFFFFFFFFFF0000000066
:101690000000000000000000FFFFFFFFFFFFFFFF52
:1016A000FFFFFFFFFFFFFFFFFFFF00000000000044
:1016B000FFFFFFFFFFFF0000000000000000000030
:1016C0000000FFFFFFFFFFFF000000000000FFFF22
:1016D000FFFFFFFFFFFFFFFFFFFFFFFFFFFFFFFF1A
:1016E0000000000000000000000000000000F00802
:1016F000081020100808F00000000001020408048F
:101700000201000000E0F0F0F0E8E4E4E4E4E8F0D6
:1017100000010307070707070707030100E0303050
:1017200030282424242428F00001020404040404A2
:101730000404020100000000807008F800000000AE
:101740000000000000000000000000000080808019
:10175000A09C82BE80808000000000000608083E39
:1017600000000000000060E888101088E8600000B9
:1017700000000081E77E1E07010000000000001E3F
:101780003F33333F1E000000000000000000000057
:10179000000000000080C0EC6C60606C6CC08000D9
:1017A000000F1F333333333333130300000000C003
:1017B000E0E0E0E0C00000000000000307070707CA
:1017C00003000000000000000080C0800000000056
:1017D0000000000000010301000000000000000004
:1017E0000000FEFE06060606000003060C183F3F3A
:1017F00000000000FFFF1EF08000FFFF1C36361CBB
:101800003F3F0000031E3F3F0303030300F6FE18A3
:101810000C0C0C0C18FEF600001B1F060C0C0C0C1C
:10182000061F1B0000000000F0F0F0F000000000B8
:10183000000000000303030300000000000000009C
:101840000000000000000000000000000000000098
:101850000000000000F0FC0E0703030303FFFF007D
:10186000003F3F0303030303033F3F0000FFFFC3A9
:10187000C3C3C3C3C3830300003F3F3030303030A5
:10188000391F0F0000FFFFC3C3C3C3E7FEBC000046
:10189000003F3F3030303030391F0F0000FFFF0372
:1018A0000303030303030300003F3F0000000000A5
:1018B0000000000000F0FC0E0703030303FFFF001D
:1018C000F0FF3F3030303030303FFFF000FFFFC3DB
:1018D000C3C3C3C3C3030300003F3F3030303030C5
:1018E000303030000F3EF8E0C0FFFFC0E0F81E07C8
:1018F0003C1F0701003F3F0001071F3C000C0E0783
:10190000C3C3C3C3C3E77E3C000C1C383030303047
:1019100030391F0E00FFFF0000C0F0380EFFFF003F
:10192000003F3F1C07030000003F3F0000FFFF0097
:1019300000C6F3380EFFFF00003F3F1C0703000006
:10194000003F3F0000FFFFC0E0F0381C0E0703001F
:10195000003F3F000103070E1C38300000F0FC0E72
:101960000703030303FFFF00003F3F0000000000E8
:10197000003F3F0000FFFF1E78E0E0781EFFFF0001
:10198000003F3F0000010100003F3F0000FFFFC09B
:10199000C0C0C0C0C0FFFF00003F3F00000000000B
:1019A000003F3F0000F0FC0E070303070EFCF000B1
:1019B00000030F1C383030381C0F030000FFFF03FA
:1019C0000303030303FFFF00003F3F00000000008C
:1019D000003F3F0000FFFF8383838383C7FE7C00BB
:1019E000003F3F01010101010100000000F0FC0E79
:1019F00007030303070E0C0000030F1C38303030C0
:101A0000381C0C000000030303FFFF030303000066
:101A100000000000003F3F0000000000007FFFC00A
:101A2000C0C0C0C0C0FFFF000018383030303030B8
:101A3000381F070000F8FC0C0CFFFF0C0CFCF80032
:101A400000030706063F3F060607030000030F1CBE
:101A500030E0E0301C0F030000303C0E03010103B6
:101A60000E3C300000FFFF0000000000FFFF000000
:101A7000003F3F30303030303FFFF000007FFFC08C
:101A8000C0C0C0C0C0FFFF00000000000000000098
:101A9000003F3F0000FFFF0000FFFF0000FFFF00CE
:101AA000003F3F30303F3F30303F3F0000FFFF00FE
:101AB00000FFFF0000FFFF00003F3F30303F3F309E
:101AC000303FFFF00F0F03FFFF606060E0C0800059
:101AD0000000003F3F303030381F0F0000FFFF6034
:101AE00060E0C08000FFFF00003F3F3030381F0F34
:101AF000003F3F0000FFFF6060606060E0C080006A
:101B0000003F3F3030303030381F0F00000C0E07E0
:101B1000C3C3C3C7CEFCF000000C1C3830303038D3
:101B20001C0F0300FFFFC0F0FC0E0703070EFCF0C4
:101B30003F3F00030F1C3830381C0F03007CFEC7EA
:101B40008383838383FFFF000030381D0F07030169
:101B5000013F3F00000040606060606060E0C000E6
:101B6000001C3E3333333333333F3F0000F0F898EB
:101B7000D8D8D8D8D88C0000001F3F313030303052
:101B8000391F0F000000E0E060606060E0C000000E
:101B900000003F3F323232323F1D00000000E0E0E3
:101BA000606060606060000000003F3F0000000077
:101BB00000000000000080C060606060E0E00000A5
:101BC00000F0FF3F303030303FFFF0000080C0E0D9
:101BD0006060606060C08000000F1F3B33333333B0
:101BE0003313010060E0C08000E0E00080C0E060EE
:101BF00030381F07033F3F03071F3830000080C005
:101C000060606060C080000000000818303232322E
:101C10001F0D00000000E0E00000000080E0E00098
:101C200000003F3F180C0603013F3F000000E0E0CA
:101C30000000180C80E0E00000003F3F180C060395
:101C4000013F3F000000E0E00080C0E060000000D5
:101C500000003F3F03070F1C38300000000080C029
:101C600060606060E0E0000000003F3F00000000B6
:101C70003F3F000000E0E0E0C00000C0E0E0E00026
:101C8000003F3F0001030301003F3F000000E0E090
:101C90000000000000E0E00000003F3F06060606EE
:101CA000063F3F000080C0E060606060E0C08000F0
:101CB000000F1F3830303030381F0F000000E0E0D8
:101CC0006060606060E0E00000003F3F00000000F6
:101CD000003F3F0000E0E06060606060E0C08000C6
:101CE00000FFFF0C181818181C0F07000080C0E038
:101CF0006060606060C08000000F1F38303030309E
:101D0000301808000000606060E0E0606060000083
:101D100000000000003F3F0000000000000060E005
:101D200080000080E060000000000081E77E1E0768
:101D3000010000000080C0C0C0E0E0C0C0C0800062
:101D4000001F3F3030FFFF30303F1F000060E0C019
:101D5000800080C0E06000000030381D0F070F1DBC
:101D6000383000000000E0E000000000E0E000008B
:101D700000003F3F303030303FFFF0000000E0E037
:101D800000000000E0E00000000003070606060671
:101D90003F3F000000E0E00000E0E00000E0E00085
:101DA000003F3F30303F3F30303F3F0000E0E00039
:101DB00000E0E00000E0E000003F3F30303F3F3017
:101DC000303FFFF000E0E060E0E0000000000000D5
:101DD000000000003F3F3333333F1E0000E0E000CF
:101DE0000000000000E0E000003F3F3333333F1EBF
:101DF000003F3F000000E0E00000000000000000A5
:101E000000003F3F333333333F1E00000080C0608B
:101E100060606060C0800000000818303033333BE1
:101E20001F0F000000E0E00080C0E060E0C0800024
:101E3000003F3F030F1F3830381F0F000000C0E085
:101E400060606060E0E000000000313B1E0E0602B2
:101E50003F3F00000BD2E5ECEFE5F0E0F2F3F0E0FD
:101E600009EFEEECE5F9E5EDE8FF0EC4E5EBFCF279
:101E7000E020F2E5ECEFE5F02E0DEFEEE2E5F0F517
:101E8000ED2E20EFE5F7E80EF1F2E0F0F2E020EFC2
:101E9000E8F0EEEBE8E70EEFEEEBEDFBE920EFE824
:101EA000F0EEEBE8E70ED0E0E7EDEEF1F2FC20F229
:101EB000E5ECEF2E0EE2FBEAEBFEF7E5EDE8FF20A6
:101EC000E0E2F20CCCEEF9ED2E20F1F2E0F0F2E0DF
:101ED0000CE2E5EDF2E8EBFFF2EEF0E02004543125
:101EE0003A200454323A200454333A2004CC313A94
:101EF0002004CC323A2004CC333A2003554E43051B
:101F0000425245414B044F564552054552524F529D
:101F100002B74309CDE0F1F2F0EEE9EAE000112466
:101F20001FBECFE5D8E0DEBFCDBF10E0A0E6B0E039
:101F300001C01D92AF39B107E1F70E948F1B0C94CD
:101F40007E1E0C9400008F929F92AF92BF92CF9210
:101F5000DF92EF92FF920F931F936091990070E0D0
:101F6000882777FD8095982F0E94121D20E030E091
:101F70004FE753E40E94A21D20E030E048EC52E419
:101F80000E947C1C0E94E41C6093760060917600A5
:101F900070E0882777FD8095982F0E94121D9B0185
:101FA000AC0160E070E08FE793E40E94171C20E032
:101FB00030E040EF51E40E947C1C0E94E41C70E081
:101FC00080E090E00E94101D6093790070937A0089
:101FD00080937B0090937C006091950070E088274F
:101FE00077FD8095982F0E94121D20E030E04FE78A
:101FF00053E40E94A21D20E030E048EC52E40E942D
:102000007C1C0E94E41C609377006091770070E074
:10201000882777FD8095982F0E94121D9B01AC01A7
:1020200060E070E08FE793E40E94171C20E030E04E
:1020300040EF51E40E947C1C0E94E41C70E080E0B0
:1020400090E00E94101D60937D0070937E0080934D
:102050007F009093800060918E0070E0882777FD6C
:102060008095982F0E94121D20E030E04FE753E446
:102070000E94A21D20E030E048EC52E40E947C1C4B
:102080000E94E41C6093780060917800E0909600D4
:10209000F090970080909D0090909E0070E08827BF
:1020A00077FD8095982F0E94121D9B01AC0160E086
:1020B00070E08FE793E40E94171C5B016C01E81845
:1020C000F90800E010E0C801B7010E94101D9B0153
:1020D000AC01C601B5010E947C1C60938100709325
:1020E000820080938300909384001092700080910E
:1020F0007000825E8093710080917100825E809397
:10210000720080917200825E809373008FE08093F2
:1021100075001F910F91FF90EF90DF90CF90BF90CF
:10212000AF909F908F9008951F920F920FB60F92CD
:1021300011248F931DBC1CBC809160008160809332
:1021400060008F910F900FBE0F901F9018951F92F7
:102150000F920FB60F9211248F93809162008150DD
:102160008093620080916200882331F415BC8091D5
:1021700060008B7F809360008F910F900FBE0F9057
:102180001F901895479A8AB38C608ABBD6988BB3F8
:10219000837B8BBBBB9AC39884B3806E84BB84B3B0
:1021A000887E84BB85B3876685BB85B38F7685BB08
:1021B00081B38F6181BB82B3886182BB82B3887F28
:1021C00082BB80919A00882311F0969801C0969A5C
:1021D0008E9A80B7836080BF89B7806189BF1DBC3C
:1021E0001CBC1FBC84E08EBD8AE78BBD82E18ABD2A
:1021F00089B7806489BF78940895662311F4929812
:1022000001C0929A939890E087FF02C0919A01C012
:102210009198909A90989F5F983011F0880FF4CF22
:10222000939A08951F93162F805C60E00E94FD1022
:10223000812F805860E00E94FD101F9108951F9328
:10224000CF93DF93882311F410E001C01FEF80E0EB
:1022500060E00E941211C0E0D0E0812F61E00E9496
:10226000FD10219681E0C83FD807B9F7DF91CF91E3
:102270001F9108958AE1982F9A95F1F79498E8ECC8
:10228000F0E03197F1F7949A8A95F1F781E260E0F6
:102290000E94FD1083E160E00E94FD1084E060E098
:1022A0000E94FD1088EB60E00E94FD1080E260E07B
:1022B0000E94FD108CE060E00E94FD1080E00E9412
:1022C0001F1108951F93CF93DF9396E0899FE0013C
:1022D0001124CC5ADF4F10E0FE01849161E00E948E
:1022E000FD101F5F21961630B9F7DF91CF911F9136
:1022F00008950F931F93CF93DF93EC01FC0104919A
:1023000011E008C0FE01E10FF11DE4918E2F0E9443
:1023100062111F5F0117B0F7DF91CF911F910F91ED
:102320000895DF92EF92FF920F931F93CF93DF9365
:10233000182F062FD42E862F642F0E94121188E1A9
:10234000189F70011124E701CC5AD94F10E0FE010B
:10235000849161E00E94FD101F5F21961C30B9F747
:10236000802F8F5F6D2D0E9412118701005A194F27
:10237000E7016896CC5AD94FF801849161E00E9438
:10238000FD100F5F1F4F0C171D07B1F78D2D845FD8
:10239000DF91CF911F910F91FF90EF90DF90089503
:1023A000EF92FF920F931F93CF93DF93EC01E62EF2
:1023B000042FFC01F49011E00BC0FE01E10FF11DB0
:1023C000E4918E2F6E2D402F0E949111045F1F5FAC
:1023D000F11698F7802FDF91CF911F910F91FF9009
:1023E000EF900895FF920F931F93F82E062F142F4E
:1023F00064E60E94291E882311F420E006C0805D57
:10240000602F0E949111145F21E08F2D64E60E94DD
:10241000291EF92E892F6AE00E94291E882311F0B7
:10242000805D03C0213031F480E3602F412F0E9492
:102430009111145F8F2D6AE00E94291E892F805D03
:10244000602F412F0E949111812F845F1F910F9166
:10245000FF900895DF92EF92FF920F931F93CF9317
:10246000DF93EC01F62E142F60E177E20E94351E17
:10247000CB016115710511F400E006C0805D6F2D80
:102480000E949111145F01E0CE0160E177E20E94A9
:10249000351EE82ED92E68EE73E00E94351ECB0162
:1024A0006115710541F0805D6F2D412F0E949111E2
:1024B000145F01E00AC0013011F000E006C080E3C3
:1024C0006F2D412F0E949111145F8E2D9D2D68EE6E
:1024D00073E00E94351EE82ED92E64E670E00E945B
:1024E000351ECB016115710541F0805D6F2D412FC7
:1024F0000E949111145F01E00AC0013011F000E068
:1025000006C080E36F2D412F0E949111145F8E2D24
:102510009D2D64E670E00E94351EE82ED92E6AE0FB
:1025200070E00E94351ECB016115710511F0805DD0
:1025300003C0013031F480E36F2D412F0E949111CF
:10254000145F8E2D9D2D6AE070E00E94351E805D27
:102550006F2D412F0E949111812F845FDF91CF91C8
:102560001F910F91FF90EF90DF900895482F8150B9
:10257000823028F010926600109269000895413070
:1025800011F4AE9801C0AD9880E120E030E006C0C3
:10259000AF9A220F331F9C992160AF988150C0F7EA
:1025A000413011F4AE9A01C0AD9AC901867090789D
:1025B000892B21F080E090E022E00DC0C90125E0E8
:1025C000969587952A95E1F723E0883E920710F0CB
:1025D00023E001C021E0413039F42093660090935C
:1025E00068008093670008952093690090936B00C2
:1025F00080936A0008951F9380E00E941F1180E07D
:102600006EE00E94121183E19FE10E94791181E046
:1026100060E00E9412111EE003C08DE30E9462116F
:102620001150D8F780916300843009F470C0853070
:1026300058F4813089F18130D0F0823009F43FC004
:10264000833009F0F9C050C0873009F4ABC088303E
:1026500038F4853009F470C0863009F0EDC085C0CB
:10266000883009F4B5C0893009F0E6C0C7C082E0FF
:1026700069E00E94121184E59EE10E94791183E0D5
:102680006FE00E94121180E69EE10E947911809114
:102690008F0064E042E17DC082E060E00E941211A0
:1026A0008AE69EE10E94791183E06FE00E94121198
:1026B00080E69EE10E94791180919C0012C082E028
:1026C00069E00E94121184E59EE10E94791183E085
:1026D00063E00E94121189E79EE10E9479118091C6
:1026E000900064E045E155C082E060E00E94121174
:1026F0008AE69EE10E94791183E060E00E94121157
:1027000089E79EE10E94791180919B00EACF82E0E7
:1027100060E00E94121184E59EE10E94791183E03D
:1027200060E00E94121187E89EE10E947911809179
:102730009D0090919E0014C082E060E00E94121102
:1027400084E59EE10E94791183E060E00E9412110D
:1027500086E99EE10E947911809196009091970000
:1027600064E04CE00E942A1216C082E060E00E9401
:10277000121185EA9EE10E94791183E060E00E94D7
:10278000121184EB9EE10E9479118091980064E01F
:102790004CE00E94F211482F80E19FE164E00E942A
:1027A000D0114AC082E060E00E94121183EC9EE1E9
:1027B0000E94791183E060E00E94121180ED9EE199
:1027C0000E94791181E30E946211809199002BC0CF
:1027D00082E060E00E94121183EC9EE10E94791178
:1027E00083E060E00E94121180ED9EE10E94791169
:1027F00082E30E9462118091950015C082E060E042
:102800000E94121183EC9EE10E94791183E060E046
:102810000E94121180ED9EE10E94791183E30E94D3
:10282000621180918E0064E045E10E94F211482F10
:1028300085E264E00E9491111F91089580916000EB
:1028400083FF03C085E0809364008091610080FF76
:1028500022C08091600083FD0CC080916000886080
:102860008093600010926300969885E080936400E6
:102870000BC0809163008F5F809363008091630041
:102880008A3011F4109263000E94FB128091610063
:102890008E7F809361008091610081FFD5C080911F
:1028A000600083FD05C081E080939A009698C7C0C0
:1028B00080916300843009F44BC0853050F481303E
:1028C00031F18130C8F0823069F1833009F0B5C050
:1028D00034C0873009F494C0883038F4853009F466
:1028E0005DC0863009F0A9C081C0883009F492C06B
:1028F000893009F0A2C098C080918F008E3109F410
:102900009CC080918F008F5F80938F0096C08091D4
:102910009C00853009F491C080919C008F5F80936A
:102920009C008BC0809190008C3809F486C0809107
:1029300090008F5F8093900080C080919B008431D5
:1029400009F47BC080919B008F5F80939B0075C0D2
:1029500080919D0090919E008855924009F46DC031
:1029600080919D0090919E000A9690939E00809386
:102970009D00209196003091970080919D0090914C
:102980009E008C599F4F2817390708F056C0809138
:102990009D0090919E008C599F4F23C020919600DE
:1029A0003091970080919D0090919E008C599F4F8F
:1029B0002817390750F480919D0090919E008C5902
:1029C0009F4F9093970080939600809196009091EE
:1029D00097008E5D934089F18091960090919700C9
:1029E0000A96909397008093960027C08091980054
:1029F000843119F1809198008F5F809398001DC0F9
:102A0000809199008431C9F0809199008F5F809303
:102A1000990013C080919500843179F080919500E0
:102A20008F5F8093950009C080918E00843129F0DA
:102A300080918E008F5F80938E000E94FB128091A8
:102A400061008D7F809361008091610082FFB6C03C
:102A50008091600083FD04C010929A00969AA9C0EC
:102A600080916300843009F44BC0853050F481308C
:102A700031F18130C8F0823069F1833009F097C0BC
:102A800034C0873009F476C0883038F4853009F4D2
:102A900049C0863009F08BC063C0883009F474C027
:102AA000893009F084C07AC080918F008A3009F49F
:102AB0007EC080918F00815080938F0078C080917C
:102AC0009C00813009F473C080919C0081508093F8
:102AD0009C006DC080919000873309F468C080919C
:102AE000900081508093900062C080919B00813063
:102AF00009F45DC080919B00815080939B0057C07A
:102B000080919D0090919E00883C910509F44FC0F2
:102B100080919D0090919E000A9790939E008093D3
:102B20009D0045C0209196003091970080919D00B6
:102B300090919E008C599F4F8217930738F0809197
:102B40009D0090919E008C599F4F05C080919600EA
:102B5000909197000A97909397008093960027C0D2
:102B600080919800853019F1809198008150809370
:102B700098001DC0809199008823C9F08091990028
:102B800081508093990013C080919500882379F03B
:102B90008091950081508093950009C080918E00AE
:102BA000882329F080918E00815080938E000E94AE
:102BB000FB12809161008B7F80936100089590E00B
:102BC000AA2797FDA095BA2FBC01CD010E94121D26
:102BD00020E030E048EC52E40E94A21D20E030E00A
:102BE0004FE753E40E947C1C0E94E41CDC01CB01F3
:102BF00008950F931F93CF93DF93EB01813051F032
:102C0000813028F08230A9F18330C9F535C08BEFCF
:102C10009EE137C0CB0164E670E00E94351E66235A
:102C200011F420E005C0862F805D0E94621121E032
:102C3000CE0164E670E00E94351E182F092F6AE06D
:102C400070E00E94351E662319F0862F805D03C058
:102C5000213019F480E30E946211812F902F6AE0E5
:102C600070E00E94351E805D0E94621180E19FE14C
:102C700008C08FEF9EE105C085E09FE102C08AE0B9
:102C80009FE10E947911DF91CF911F910F910895DB
:102C9000CF92DF92EF92FF921F932091910030919B
:102CA00092004091930050919400C0909100D09078
:102CB0009200E0909300F090940080916500813044
:102CC00009F056C0CA01B9010E94E41CDC01CB0125
:102CD000182F64E60E94291E882311F420E004C006
:102CE000805D0E94621121E0812F64E60E94291E0E
:102CF000192F892F6AE00E94291E882311F0805D18
:102D000003C0213019F480E30E946211812F6AE030
:102D10000E94291E892F805D0E9462118EE20E940E
:102D20006211609191007091920080919300909156
:102D300094000E94E41C70E0882777FD8095982F0E
:102D40000E94121D9B01AC01C701B6010E94171C15
:102D500020E030E040E251E40E94A21D0E94E41C09
:102D6000DC01CB01805D0E94621180E19FE102C025
:102D70008FEF9EE10E9479111F91FF90EF90DF90FD
:102D8000CF9008951F93182F64E60E94291E882370
:102D900011F420E004C0805D0E94621121E0812FC7
:102DA00064E60E94291E192F892F6AE00E94291EBD
:102DB000882311F0805D03C0213019F480E30E9464
:102DC0006211812F6AE00E94291E892F805D0E9476
:102DD00062111F91089580E00E941F1180E060E061
:102DE0000E9412118DED9EE10E9479110E944816F9
:102DF00081E060E00E94121182EE9EE10E94791152
:102E00008091660060916700709168000E94F915DA
:102E100082E060E00E94121187EE9EE10E9479112B
:102E20008091690060916A0070916B000E94F915B1
:102E300083E060E00E9412118CEE9EE10E94791105
:102E400080916C000E94DF150E94C21685E20E94EC
:102E5000621184E060E00E94121181EF9EE10E9405
:102E6000791180916D000E94DF150E94C21685E2E3
:102E70000E94621185E060E00E94121186EF9EE1DF
:102E80000E94791180916E000E94DF150E94C21687
:102E900085E20E94621108958091600082FD30C039
:102EA00098990AC08091610081608093610080914F
:102EB000600082608093600099990AC080916100EF
:102EC00082608093610080916000826080936000E6
:102ED0009A990AC08091610084608093610080911A
:102EE000600082608093600086E08093620014BC82
:102EF00085B5876085BD80916000846080936000A7
:102F00000895DE98D698CE9B1AC0D69A88EE93E0A4
:102F10000197F1F7D69880EA8A95F1F790EF22E0D1
:102F200005C0822F8A95F1F7CE9B03C09150C8F758
:102F300006C080EC93E00197F1F780E0089581E00E
:102F40000895382F28E080E062E05AE140EF11C098
:102F5000D69A962F9A95F1F730FDD698952F9A9597
:102F6000F1F78695CE9980683695942F9A95F1F76A
:102F7000D698215068F70895282F98E048E10BC0B3
:102F8000862F8227382F317080FD64276695313077
:102F900009F460682695915098F7862F08951F933D
:102FA000CF93DF9310E0C0E0D0E08FEF0E94A11735
:102FB000FE01EB57FF4F8083612F0E94BC17182F33
:102FC0002196C930D10589F7682F811161E0862FDC
:102FD000DF91CF911F9108951F93182F0E948117A1
:102FE0008CEC0E94A1178EE40E94A1178FEF0E9423
:102FF000A1178FEF0E94A117812F0E94A1170E9495
:1030000081178CEC0E94A11788E40E94A1171F91E0
:1030100008950E948117882319F010926500089581
:103020008CEC0E94A11784E40E94A1170895CF920E
:10303000DF92EF92FF920F931F930E9481178823D4
:1030400051F48CEC0E94A1178EEB0E94A1170E94F4
:10305000CF17882319F01092650054C08091860024
:1030600090918500182F00E0090F111DB8017770AD
:10307000E4E076956795EA95E1F780E090E00E94BC
:10308000101D609391007093920080939300909331
:103090009400C0909100D0909200E0909300F09046
:1030A0009400B8016F70707080E090E00E94101D75
:1030B00020E030E040E85DE30E94A21D9B01AC01EE
:1030C000C701B6010E94181C609391007093920092
:1030D000809393009093940017FF11C0809191000A
:1030E00090919200A0919300B0919400B058809379
:1030F000910090939200A0939300B093940081E08C
:10310000809365001F910F91FF90EF90DF90CF901B
:10311000089598E020ED37E011C087FF02C0DB9AE8
:1031200001C0DB98F9013197F1F7DA9AF90131978B
:10313000F1F7DA98880FF9013197F1F7915068F7B4
:1031400080E197E20197F1F708950F931F93082FFD
:10315000162F0E948918812F0E948918812F800FB5
:103160000E94891880E29EE40197F1F71F910F9168
:103170000895AF92BF92CF92DF92EF92FF920F939A
:103180001F9380916900813009F074C020916A001A
:1031900030916B0080919D0090919E002817390717
:1031A00008F468C08091600085FD05C080916000D2
:1031B00080628093600020916A0030916B00809162
:1031C0009600909197002817390758F00F2EF0E0DD
:1031D000EF2EF0E0FF2EFFE70F2FF3E41F2FF02D6F
:1031E00039C060916A0070916B0020919D00309110
:1031F0009E00A0908100B0908200C0908300D0908B
:103200008400E0907800621B730B80E090E00E94E5
:10321000101DA60195010E94A21D5B016C01FF24F7
:103220000027F7FC0095102FC801B7010E94121D5E
:103230009B01AC01C601B5010E94181C7B018C01E9
:1032400020E030E04FE753E40E949E1D181614F46E
:103250006FEF04C0C801B7010E94E41C80916E00AA
:103260008617E1F060936E0060916E0083E00E942B
:10327000A51814C080916E00882339F010926E005A
:1032800060916E0083E00E94A5188091600085FF28
:1032900005C0809160008F7D809360001F910F9129
:1032A000FF90EF90DF90CF90BF90AF9008955F9226
:1032B0006F927F928F929F92AF92BF92CF92DF9246
:1032C000EF92FF920F931F93CF93DF938091600053
:1032D00086FFB4C090916F00809170008917E8F567
:1032E00090916F00809171008917B8F1A0907900DA
:1032F000B0907A00C0907B00D0907C0060916F000D
:1033000020917000E090760070E0621B71098827C0
:1033100077FD8095982F0E94121D9B01AC01C6017C
:10332000B5010E94A21D5B016C01FF240027F7FC80
:103330000095102FC801B7010E94121D9B01AC011E
:10334000C601B5010E94181C0E94E41C60936C0029
:1033500060916C0081E00E94A51820916F0080911F
:10336000710030E090E001962817390741F48FEFA3
:1033700080936C0060916C0081E00E94A518909190
:103380006F00809172009817E8F190916F00809122
:1033900073008917B8F1A0907D00B0907E00C090B6
:1033A0007F00D090800060916F0020917200E090CB
:1033B000770070E0621B7109882777FD8095982F50
:1033C0000E94121D9B01AC01C601B5010E94A21D05
:1033D0005B016C01FF240027F7FC0095102FC8014A
:1033E000B7010E94121D9B01AC01C601B5010E94EC
:1033F000181C0E94E41C60936D0060916D0082E0D7
:103400000E94A51820916F008091730030E090E039
:1034100001962817390769F48FEF80936D0060914A
:103420006D0082E00E94A518809160008F7B8093E0
:10343000600080916F008F5F80936F0080916000CB
:1034400087FF22C080917400882339F410926D00A8
:1034500060916D0082E00E94A518909174008091A7
:103460007500981761F410926C0060916C0081E017
:103470000E94A518809160008F77809360008091F2
:1034800074008F5F8093740080916500813009F033
:103490008BC080916600813009F086C0E0906700A3
:1034A000F09068006091910070919200809193007B
:1034B00090919400009198000E94E41CE61AF10893
:1034C00010E0E016F10608F46FC08091600084FD02
:1034D00005C08091600080618093600060919100E0
:1034E00070919200809193009091940000918F00D0
:1034F000F0909C00C0916700D0916800909090007F
:10350000E0909B00A0909100B0909200C09093003A
:10351000D090940050908F00609067007090680089
:10352000809090000E94E41C70E010E00F191109D7
:1035300006171707DCF0892D90E08E1991098C177A
:103540009D07A0F080916C00882381F48091600039
:1035500086FD0CC010926F00809160008F77809381
:10356000600080916000806480936000C601B501B6
:103570000E94E41C651528F4882D90E068167906F1
:1035800080F180916C00882361F18091600087FD5B
:1035900028C010927400809160008F7B809360003F
:1035A0008091600080681BC08091600087FD10C022
:1035B00080916C00882361F010927400809160000B
:1035C0008F7B8093600080916000806880936000B2
:1035D0008091600084FF05C0809160008F7E8093A1
:1035E0006000DF91CF911F910F91FF90EF90DF90DE
:1035F000CF90BF90AF909F908F907F906F905F9093
:10360000089560919A0080E090E00E94571E6091BA
:103610008F0081E090E00E94571E60919C0082E044
:1036200090E00E94571E6091900083E090E00E941D
:10363000571E60919B0084E090E00E94571E6091AD
:103640009D0070919E0085E090E00E94681E609150
:1036500096007091970087E090E00E94681E60914C
:10366000980089E090E00E94571E609199008AE0DE
:1036700090E00E94571E609195008BE090E00E94C0
:10368000571E60918E008CE090E00E94571E0895B6
:1036900080E090E00E94491E80939A0081E090E0D3
:1036A0000E94491E80938F0082E090E00E94491E94
:1036B00080939C0083E090E00E94491E80939000DC
:1036C00084E090E00E94491E80939B0085E090E09A
:1036D0000E94511E90939E0080939D0087E090E091
:1036E0000E94511E909397008093960089E090E08D
:1036F0000E94491E809398008AE090E00E94491E33
:10370000809399008BE090E00E94491E8093950081
:103710008CE090E00E94491E80938E0008950E94E4
:10372000481B0E94A30F0E94C2100E943A110E94DF
:10373000091888E893E128EC30E0F9013197F1F7B6
:103740000197D9F781E00E941F1188E893E128ECE6
:1037500030E0F9013197F1F70197D9F780E00E9445
:103760001F1188E893E128EC30E0F9013197F1F777
:103770000197D9F70E944C178091600081FF07C024
:103780000E941E14809160008D7F80936000809164
:10379000600080FFEFCF8091600084FD04C08091C5
:1037A000600085FF02C0C39801C0C39A81E00E94F7
:1037B000B61282E00E94B6120E9417180E940918E1
:1037C0000E9457190E94B9188091600083FF1CC0A5
:1037D000809164008150809364008091640088230C
:1037E000A9F480916000877F8093600080E00E9450
:1037F0001F110E94011B0E94A30F80919A00882331
:1038000011F0969801C0969A0E94EB168091600084
:1038100084FD04C08091600085FF02C0C39A01C08E
:10382000C398809160008E7F80936000A3CF505832
:10383000BB27AA270ED048C139D130F03ED120F0A5
:1038400031F49F3F11F41EF42EC10EF4E095E7FB16
:1038500024C1E92F4AD180F3BA176207730784079E
:10386000950718F071F49EF562C10EF4E0950B2EE9
:10387000BA2FA02D0B01B90190010C01CA01A001C2
:103880001124FF27591B99F0593F50F4503E68F11D
:103890001A16F040A22F232F342F4427585FF3CF5E
:1038A000469537952795A795F0405395C9F77EF42F
:1038B0001F16BA0B620B730B840BBAF09150A1F078
:1038C000FF0FBB1F661F771F881FC2F70EC0BA0FFE
:1038D000621F731F841F48F4879577956795B79586
:1038E000F7959E3F08F0B3CF9395880F08F099277E
:1038F000EE0F9795879508950CD0E6C0DED040F086
:10390000D5D030F021F45F3F19F0C7C0511110C17C
:10391000CAC0EBD098F39923C9F35523B1F3951B93
:10392000550BBB27AA2762177307840738F09F5FE0
:103930005F4F220F331F441FAA1FA9F333D00E2E4F
:103940003AF0E0E830D091505040E695001CCAF7BC
:1039500029D0FE2F27D0660F771F881FBB1F261781
:1039600037074807AB07B0E809F0BB0B802DBF0154
:10397000FF2793585F4F2AF09E3F510568F08DC096
:10398000D7C05F3FECF3983EDCF38695779567955B
:10399000B795F7959F5FC9F7880F911D9695879505
:1039A00097F90895E1E0660F771F881FBB1F621724
:1039B00073078407BA0720F0621B730B840BBA0BE2
:1039C000EE1F88F7E095089598D088F09F5790F003
:1039D000B92F9927B751A0F0D1F0660F771F881F34
:1039E000991F1AF0BA95C9F712C0B13081F09FD073
:1039F000B1E008959CC0672F782F8827B85F39F011
:103A0000B93FCCF3869577956795B395D9F73EF492
:103A100090958095709561957F4F8F4F9F4F08953A
:103A2000E89409C097FB3EF4909580957095619558
:103A30007F4F8F4F9F4F9923A9F0F92F96E9BB270E
:103A40009395F695879577956795B795F111F8CF8A
:103A5000FAF4BB0F11F460FF1BC06F5F7F4F8F4FF5
:103A60009F4F16C0882311F096E911C0772321F0EB
:103A70009EE8872F762F05C0662371F096E8862F83
:103A800070E060E02AF09A95660F771F881FDAF7DA
:103A9000880F9695879597F9089597F99F6780E81D
:103AA00070E060E008959FEF80EC089500240A9490
:103AB0001616170618060906089500240A94121609
:103AC0001306140605060895092E0394000C11F43C
:103AD000882352F0BB0F40F4BF2B11F460FF04C0E9
:103AE0006F5F7F4F8F4F9F4F089557FD9058440F42
:103AF000551F59F05F3F71F04795880F97FB991F4D
:103B000061F09F3F79F08795089512161306140609
:103B1000551FF2CF4695F1DF08C016161706180696
:103B2000991FF1CF86957105610508940895E89471
:103B3000BB2766277727CB0197F9089566D008F44D
:103B40008FEF08950BD0C0CFB1DF28F0B6DF18F0AB
:103B5000952309F0A2CFA7CF1124EACFC6DFA0F3A7
:103B6000959FD1F3950F50E0551F629FF001729F12
:103B7000BB27F00DB11D639FAA27F00DB11DAA1F31
:103B8000649F6627B00DA11D661F829F2227B00D7E
:103B9000A11D621F739FB00DA11D621F839FA00D09
:103BA000611D221F749F3327A00D611D231F849F59
:103BB000600D211D822F762F6A2F11249F575040B0
:103BC0008AF0E1F088234AF0EE0FFF1FBB1F661F4B
:103BD000771F881F91505040A9F79E3F510570F004
:103BE0005CCFA6CF5F3FECF3983EDCF386957795EC
:103BF0006795B795F795E7959F5FC1F7FE2B880FFF
:103C0000911D9695879597F90895990F0008550F7E
:103C1000AA0BE0E8FEEF16161706E807F907C0F052
:103C200012161306E407F50798F0621B730B840B5A
:103C3000950B39F40A2661F0232B242B252B21F434
:103C400008950A2609F4A140A6958FEF811D811DD4
:103C50000895991B79E004C0991F961708F0961BE8
:103C6000881F7A95C9F780950895AA1BBB1B51E15F
:103C700007C0AA1FBB1FA617B70710F0A61BB70BDC
:103C8000881F991F5A95A9F780959095BC01CD0181
:103C90000895E199FECF9FBB8EBBE09A99278DB323
:103CA0000895A8E1B0E042E050E00C94701E262F89
:103CB000E199FECF9FBB8EBBE09A01970DB2021631
:103CC00031F02DBB0FB6F894E29AE19A0FBE089539
:103CD0000196272F0E94581E0C94571EDC01CB0121
:103CE000FC01E199FECF06C0FFBBEEBBE09A319626
:103CF0000DB20D9241505040B8F70895F894FFCF9F
:00000001FF
