:020000020000FC
:020000002FC00F
:0200040018954D
:02000800189549
:02000C00189545
:02001000189541
:0200140018953D
:02001800189539
:02001C00189535
:02002000189531
:0200240076C0A4
:02002800189529
:02002C0059C0B9
:02003000189521
:0200340018951D
:02003800189519
:02003C00189515
:02004000189511
:0200440018950D
:02004800189509
:02004C00189505
:02005000189501
:100060000FE50DBF08E00EBFAA240FEFB02E00EF82
:1000700001BB00E302BBA0BC09E109B908E00AB971
:1000800006E800BD05E009BF9924979A969A70D1B9
:1000900096989798789497FE03D096FC10D0FBCF53
:1000A0008824A2BE45E00F93092D0068902E0F9181
:1000B0007724ADBCACBC36E03EBD43BF08950CB563
:1000C0007CD00DB57AD0072D78D00F93092D0F77FE
:1000D000902E0F910F93092D0F7B902E0F91089565
:1000E000F8940F930FB70F938394082D0E3329F0D4
:1000F0000D3351F407EF02BF07C0A3BEAEBC0F9390
:10010000092D0064902E0F910F910FBF0F917894DD
:100110001895F8940F930FB70F9373940F910FBF27
:100120000F9178941895FF93EF930F931F93F0E03E
:10013000E3E61191019141D01A95E1F7F0E0E3E691
:10014000A0821F910F91EF91FF910895FF93EF937C
:100150000F93F0E0E3E605E0019305E4019302E587
:10016000019301930FE4019302E50193DCDF0F910A
:10017000EF91FF9108950F930D9109930D910993BC
:100180000D910993139723970F9108950F93099158
:100190000D9309910D9309910D93139723970F9147
:1001A00008952F931F9313E025912D931A95E1F74E
:1001B000139733971F912F9108955D9BFECF0CB934
:1001C0000895FF93EF93DF93CF932F931F930F9394
:1001D00004E0329623960A9529F0249131971A91DA
:1001E0002117C9F30F911F912F91CF91DF91EF91BB
:1001F000FF910895FF93EF93DF93CF932F931F9376
:100200000F9304E0239613960A9521F02A911E91EC
:100210002117D1F30F911F912F91CF91DF91EF9182
:10022000FF910895DF930400983A000047590400B5
:1002300064000000FE540000BF93AF930F930D9134
:10024000C00F0C91D01F0F91AF91BF910895BF9334
:10025000AF93DF93CF930F931F9308811D91010FED
:10026000099308811D91011F099308811D91011FA8
:1002700009931F910F91CF91DF91AF91BF91089595
:10028000BF93AF93DF93CF930F93CD91DC912196E2
:100290001197CD93DD93AD920F91CF91DF91AF91F7
:1002A000BF910895BF93AF930F931F932F933F93E5
:1002B00013E00D91019F90010C91019F300D11975A
:1002C0002D933D93AC923F912F911F910F91AF9140
:1002D000BF9108950F9301E00093600002E0009346
:1002E00061000AE30093620050D00F9108950F93CC
:1002F00001E0009360000CE0009361000CED0093BE
:10030000620043D00F9108950F9301E000936000C5
:1003100007E10093610006EE0093620036D00F9172
:1003200008950F9302E00093600006E100936100DE
:1003300001EF0093620029D00F9108950F9302E01E
:10034000009360000BE60093610008EF00936200E9
:100350001CD00F9108950F9303E10093600007EE06
:100360000093610002EF009362000FD00F91089597
:100370000F9309E2009360000FEF009361000EEF0E
:100380000093620002D00F910895DF92EF92FF92E6
:10039000F0906000E0906100D0906200DA94F1F794
:1003A000EA94D1F7FA94B1F7FF90EF90DF900895B7
:00000001FF
