:100000002DC045C044C043C0B6C041C0A2C069C0F5
:100010003EC08EC03CC03BC03AC039C038C037C0BB
:1000200036C035C034C033C032C014C111C114C190
:1000300015C116C117C118C119C11AC11BC11CC1F4
:100040001DC11EC11FC120C121C122C152C160C139
:100050006EC17CC189C196C1A3C1B0C111241FBEAC
:10006000CFEDCDBF10E0A0E6B0E0E0EDF6E002C0DD
:1000700005900D92A236B107D9F710E0A2E6B0E0E4
:1000800001C01D92AF3AB107E1F7E8D21FC3B8CF64
:10009000479AD19AD09893E09BBBD9988FEF87BBB2
:1000A00018BA81B38C6781BB81B3807F81BB8CE040
:1000B00082BB10BE13BE89B7826089BF1DBC1CBC49
:1000C0001FBC9EBD1BBC80E88ABD89B7806489BF08
:1000D00012B883E389B980ED8AB986E083B9789450
:1000E00008951F920F920FB60F9211248F93EF93E2
:1000F000FF9312BE809194008E3121F410929400EF
:1001000013BE0EC0E0919400F0E08CB1EA58FF4FAE
:100110008083809194008F5F8093940083E083BFFD
:10012000FF91EF918F910F900FBE0F901F90189538
:100130001F920F920FB60F9211248F93809162003D
:100140008061809362008F910F900FBE0F901F907F
:1001500018951F920F920FB60F9211248F9313BE12
:10016000809162008160809362008F910F900FBE3A
:100170000F901F9018951F920F920FB60F92112497
:100180008F939F93AF93BF931DBC1CBC8091620063
:100190008460809362008091650090916600A091D8
:1001A0006700B09168000196A11DB11D80936500A4
:1001B00090936600A0936700B093680080916500FB
:1001C00090916600A0916700B09168008A3F910508
:1001D000A105B10571F410926500109266001092AD
:1001E0006700109268008091620098E089278093F0
:1001F0006200BF91AF919F918F910F900FBE0F90B2
:100200001F901895FC012FEF3FEFA1E0B0EA14C05A
:10021000808190E02827392740E0C901969587958D
:1002200020FF04C09C012A273B2701C09C014F5F8F
:10023000483099F731966150662351F7C901089506
:10024000E82FF0E0E131F10528F5EB5EFF4F09946E
:1002500080E608958CEF089589ED089581EF089563
:1002600085E6089585EB08958DEB089580EE089559
:100270008DEF089585EF08958DEE08958DE308952F
:100280008CE9089589E708958DE908958DE808952A
:100290008DEC08958FEF0895809169008F5F8093B2
:1002A000690080916900883011F410926900E09132
:1002B0006900F0E0E955FF4FE08118BA80E09698B8
:1002C000E0FF02C0959A01C09598969A96988F5F24
:1002D000883011F0E695F3CF949A94988091690054
:1002E000E82FF0E0E830F10508F074C0EA5DFF4F58
:1002F000099480916E00882349F080916E008130CE
:1003000009F068C08091620083FD64C0C09A0895BE
:1003100080916F00882349F080916F00813009F04F
:1003200059C08091620083FD55C0C19A08958091A3
:100330007000882349F080917000813009F04AC034
:100340008091620083FD46C0C29A08958091710039
:10035000882341F0809171008130E1F58091620045
:1003600083FD38C0C39A089580917200882341F0BC
:1003700080917200813071F58091620083FD2AC006
:10038000C49A089580917300882341F0809173008E
:10039000813001F58091620083FD1CC0C59A0895EB
:1003A00080917400882341F080917400813091F431
:1003B0008091620083FD0EC0C69A089580917500F9
:1003C000882339F080917500813021F4809162009A
:1003D00083FFC79A0895882349F0539A5498D99A6D
:1003E000809162008061809362000895549A5398CE
:1003F000D99808956091940086E790E003DF892BF7
:1004000009F02BC19091760080916000981709F057
:1004100024C180917700873109F01FC18091940039
:100420008D3109F01AC180917800853109F015C12C
:10043000809179008A3A09F010C180917A0088236E
:1004400009F00BC180917B00833009F006C18091D7
:100450007C00873109F001C180917D00853509F06C
:10046000FCC080917E00882309F0F7C080917F0056
:10047000883009F0F2C080918000803109F0EDC031
:100480008091810081FF04C081E080936E0002C0F2
:1004900010926E008091810080FF03C080918200E5
:1004A00003C080918200CCDE8093A70080918300FE
:1004B00081FF04C081E080936F0002C010926F0042
:1004C0008091830080FF03C08091840003C08091ED
:1004D0008400B6DE8093A8008091850081FF04C06F
:1004E00081E08093700002C01092700080918500BE
:1004F00080FF03C08091860003C080918600A0DE4B
:100500008093A9008091870081FF04C081E08093DF
:10051000710002C0109271008091870080FF03C0BB
:100520008091880003C0809188008ADE8093AA00B1
:100530008091890081FF04C081E08093720002C035
:10054000109272008091890080FF03C080918A0020
:1005500003C080918A0074DE8093AB0080918B0091
:1005600081FF04C081E08093730002C01092730089
:1005700080918B0080FF03C080918C0003C080912C
:100580008C005EDE8093AC0080918D0081FF04C002
:1005900081E08093740002C01092740080918D00FD
:1005A00080FF03C080918E0003C080918E0048DEE2
:1005B0008093AD0080918F0081FF04C081E0809323
:1005C000750002C01092750080918F0080FF03C0FB
:1005D0008091900003C08091900032DE8093AE0045
:1005E000809160008093950087E18093960086E07B
:1005F00080939700839906C08FEF80939800809333
:10060000990004C01092980010929900829906C037
:100610008FEF80939A0080939B0004C010929A0001
:1006200010929B00C89906C08FEF80939C00809326
:100630009D0004C010929C0010929D0085E990E0FE
:1006400069E0E0DD80939E0090939F001092A500EA
:100650008BE08093A60081E0BEDE089519DD8091D5
:10066000620080FF08C0C6DE109294008091620094
:100670008E7F809362008091620082FF06C00CDE54
:10068000809162008B7F809362008091620084FF82
:10069000E6CF9091A5008091A600981719F480E00C
:1006A0009ADE0EC05D9BFECFE091A500F0E0EB5618
:1006B000FF4F80818CB98091A5008F5F8093A5004A
:1006C000809162008F7E80936200C9CFF894FFCF43
:0206D000C9005F
:00000001FF
