:100000000C94D3010C94F0010C94F0010C94F001C9
:100010000C94F0010C9493060C94F0010C9480065F
:100020000C94F0010C94F0010C94F0010C94F0018C
:100030000C94F0010C94F0010C94F0010C94F0017C
:100040000C94F0010C94F0010C94F0010C94F0016C
:100050000C94F001000000000000005F00000007A9
:10006000000700147F147F14242A7F2A1223130808
:10007000646236495522500005030000001C2241ED
:10008000000041221C0014083E081408083E08081D
:1000900000503000000808080808006060000020D8
:1000A000100804023E5149453E00427F4000426133
:1000B0005149462141454B311814127F10274545BF
:1000C00045393C4A494930017109050336494949D6
:1000D00036064949291E0036360000005636000013
:1000E00008142241001414141414004122140802AC
:1000F00001510906324979413E7E1111117E7F4935
:100100004949363E414141227F4141221C7F4949B4
:1001100049417F090909013E4149497A7F08080898
:100120007F00417F41002040413F017F0814224170
:100130007F404040407F020C027F7F0408107F3EDA
:100140004141413E7F090909063E4151215E7F0937
:10015000192946464949493101017F01013F404083
:10016000403F1F2040201F3F4038403F6314081489
:100170006307087008076151494543007F4141000A
:1001800002040810200041417F00040201020440E3
:1001900040404040000102040020545454787F48FD
:1001A0004444383844444420384444487F38545404
:1001B0005418087E0901020C5252523E7F08040472
:1001C0007800447D40002040443D007F10284400DA
:1001D00000417F40007C041804787C0804047838CF
:1001E000444444387C14141408081414147C7C0807
:1001F0000404084854545420043F4440203C4040E8
:10020000207C1C2040201C3C4030403C44281028CE
:10021000440C5050503C4464544C44000836410057
:1002200000007F0000004136080010080810080692
:10023000090906007E1111117E7F494949317F4924
:100240004949367F01010101C07E417FC07F494994
:10025000494177087F087722494949367F201008AD
:100260007F7E2111097E7F08142241407E01017F9B
:100270007F0204027F7F0808087F3E4141413E7FA4
:100280000101017F7F090909063E41414122010127
:100290007F0101274848483F0E117F110E63140863
:1002A00014637F40407FC0070808087F7F407F407D
:1002B0007F7F407F40FF017F4848307F4848307F44
:1002C0007F48484830224149493E7F083E413E66CA
:1002D0001909097F20545454783C4A4A4A317C54C5
:1002E0005454287C04040C00C078447CC038545416
:1002F00054086C107C106C28445454287C2010083E
:100300007C7C20120A7C7C10284400403804047C49
:100310007C0810087C7C1010107C38444444387CE5
:100320000404047CFC444444383844444428040411
:100330007C04049CA0603C0018247C24186C1010E1
:100340006C007C40407CC00C1010107C7C407C40D9
:100350007C7C407C40FC047C5050207C5050207CB5
:100360007C5050502028445454387C10384438482D
:100370003414147C3E0179007E00830088008D00D7
:100380009200660060006A006F0034019700A300CD
:10039000AD00BA00C800D600E400F200FF000C0176
:1003A00019012701750011241FBECFE5D8E0DEBF7B
:1003B000CDBF12E0A0E6B0E0E6EAF6E302C00590A9
:1003C0000D92AE35B107D9F712E0AEE5B2E001C04B
:1003D0001D92AA3AB107E1F70E940F130C94511B2A
:1003E0000C94000098E087FF02C0919A01C0919898
:1003F000909A9098915011F0880FF5CF08959498A5
:1004000092980E94F201949A08959498929A0E9468
:10041000F201949A089581B38F6181BB82B3807E8B
:1004200082BB939A80ED97E028EC30E0F901319798
:10043000F1F70197D9F7939880ED97E028EC30E039
:10044000F9013197F1F70197D9F7939A81E00E946A
:10045000FF018CED95E028EC30E0F9013197F1F7E0
:100460000197D9F781E10E94FF0180ED97E028EC28
:1004700030E0F9013197F1F70197D9F78AE30E944B
:10048000FF0185E00E94050280E29EE40197F1F7FA
:1004900086E30E94FF0180EA0E94050289E20E9431
:1004A000FF0180ED97E028EC30E0F9013197F1F79A
:1004B0000197D9F708951F93182F9498929A892F2E
:1004C0000E94F201812F0E94F201949A1F910895D7
:1004D0000F931F93182F062F87FD16C067FD14C0BA
:1004E00080E30E94FF0180E00E940502812F0E94AC
:1004F000050280E00E940502802F0E94050282E131
:100500000E94FF0181E001C080E01F910F910895DA
:10051000EF92FF920F931F93F82E162FE42E022FC7
:100520006817F0F0603AE0F42417D0F027FD18C007
:100530008AE20E94FF018F2D90E00E945B02812FD2
:1005400090E00E945B028BE20E94FF018E2D90E002
:100550000E945B02802F90E00E945B0280E001C05D
:1005600081E01F910F91FF90EF9008950F931F93DB
:10057000CF93DF938C01EB018CE20E94FF019498F2
:10058000929A07C0812F0E94F201802F0E94F201EF
:1005900021972097B9F7949ADF91CF911F910F91EE
:1005A00008950F931F93982F262F8A01692F422FAA
:1005B0000E948802C80161E070E00E94B6021F91AB
:1005C0000F9108957F928F929F92AF92BF92CF9298
:1005D000DF92EF92FF920F931F93CF93DF936B0104
:1005E000EA01722E982F9052903608F0905481E1D3
:1005F000781679F585E0989F5001112405E00150A7
:10060000F501E00FF11DEC5AFF4FE49118E0EE2EDA
:10061000FF241150C701012E02C0959587950A94B9
:10062000E2F780FF08C08091600260915E02610F76
:10063000800FA60107C08091600260915E02610F89
:10064000800FAE010E94D102112319F70023B9F6E1
:10065000C3C081E2781609F047C085E0989F400149
:10066000112415E01150F401E10FF11DEC5AFF4F78
:10067000E49178E0F72EAE2EBB24FA94C5010F2C3E
:1006800002C0959587950A94E2F70F2D000F80FF21
:1006900012C08091600260915E02600F810FA6011E
:1006A0000E94D1028091600260915E026F5F600FD4
:1006B000810FA60111C08091600260915E02600FFF
:1006C000810FAE010E94D1028091600260915E02B2
:1006D0006F5F600F810FAE010E94D102FF2069F6AB
:1006E000112309F0BFCF78C082E2781609F074C0F8
:1006F00085E0989F4001112465E0E62EEA94F4011C
:10070000EE0DF11DEC5AFF4FE4910E2D000F58E055
:10071000F52EAE2EBB24FA94C5010F2C02C0959580
:1007200087950A94E2F71F2D110F80FF27C0809153
:10073000600260915E02610F800FA6010E94D102EB
:100740008091600260915E026F5F610F800FA60171
:100750000E94D102809160028F5F60915E02610F02
:10076000800FA6010E94D102809160028F5F60918C
:100770005E026F5F610F800FA60126C0809160024C
:1007800060915E02610F800FAE010E94D1028091E4
:10079000600260915E026F5F610F800FAE010E9488
:1007A000D102809160028F5F60915E02610F800FC5
:1007B000AE010E94D102809160028F5F60915E0263
:1007C0006F5F610F800FAE010E94D102FF2009F020
:1007D000A2CFEE2009F092CF872D90E08F7090701D
:1007E0009C01220F331F280F391F220F331F8091C6
:1007F000600290916102280F391F10925F022093CE
:1008000060021092610280E0DF91CF911F910F9101
:10081000FF90EF90DF90CF90BF90AF909F908F9020
:100820007F90089560935E0210925F028093600251
:10083000109261020895813A10F480E008956138C1
:1008400010F081E0089580915E0290915F0202961F
:1008500042954F7029E0429F90011124820F931F0F
:1008600090935F0280935E0282E090E09093610239
:100870008093600280E00895CF92DF92EF92FF9222
:100880000F931F93CF93DF936C017B01EA01022F3B
:1008900010E007C080811F5FB701AE01202F0E94CA
:1008A000E202F601E10FF11D8081882399F7DF91C3
:1008B000CF911F910F91FF90EF90DF90CF9008950F
:1008C0002F923F924F925F926F927F928F929F9260
:1008D000AF92BF92CF92DF92EF92FF920F931F934E
:1008E000CF93DF93E82E262EF42E322E4801262FAA
:1008F00030E0281B3109832D90E0841B910937FDDE
:1009000004C0B1E06B2E712C06C0309521953F4F8D
:1009100066246A94762C97FD04C0A1E0AA2EB12C1F
:1009200006C0909581959F4FAA24AA94BA2C6C0179
:10093000CC0CDD1C8901000F111F82179307ECF40A
:10094000E601C21BD30B8E2D6F2DA4010E94D10294
:1009500044245524401A510A0DC0E60CD7FD03C0AB
:10096000FA0CC40DD51DCC0DDD1D8E2D6F2DA401EF
:100970000E94D102E21489F71DC0EC01C01BD10B0B
:100980008E2D6F2DA4010E94D10244245524401ABB
:10099000510A0EC0FA0C1C161D061CF0E60CCC0DFC
:1009A000DD1DC40DD51D8E2D6F2DA4010E94D10219
:1009B000F31481F781E0DF91CF911F910F91FF90A8
:1009C000EF90DF90CF90BF90AF909F908F907F90EF
:1009D0006F905F904F903F902F9008950F931F93CB
:1009E000CF93DF93082F942FE901162F681708F48F
:1009F000182F802F612F492F292F0E948802612FE5
:100A000070E0601B7109CE010E94B602DF91CF91A8
:100A10001F910F9108950F931F93CF93DF93982FFA
:100A2000062FE901142F461708F4162F892F692F76
:100A3000402F212F0E948802612F70E0601B7109F6
:100A4000CE010E94B602DF91CF911F910F910895C0
:100A5000CF92DF92EF92FF920F931F93C82ED62E64
:100A6000E42EF22E681710F4DC2CC62EFE1418F4B7
:100A70008F2DFE2CE82E8C2D6D2D4E2D2F2D0E94AE
:100A800088028F2D90E001968E1991092D2D30E06E
:100A90002F5F3F4F2C193109829FB001839F700D4A
:100AA000929F700D1124C8010E94B6021F910F91F0
:100AB000FF90EF90DF90CF9008950F931F938C01DC
:100AC00080E06FE940E02FE70E948802C80160E003
:100AD00070E50E94B6021F910F91089589E20E946D
:100AE000FF0108958F929F92AF92BF92CF92DF92B3
:100AF000EF92FF920F931F936091A50270E08827F9
:100B000077FD8095982F0E94A51720E030E04FE7F1
:100B100053E40E946F1520E030E048EC52E40E945C
:100B200069160E94991360937C0260917C02E090A8
:100B30008F0270E0882777FD8095982F0E94A51777
:100B40009B01AC0160E070E08FE793E40E94111517
:100B50005B016C018CE3982EE99C70011124002745
:100B6000F7FC0095102FC801B7010E94A5179B0143
:100B7000AC01C601B5010E94691660937F027093B3
:100B80008002809381029093820260917C02E090C7
:100B9000A40270E0882777FD8095982F0E94A51702
:100BA0009B01AC0160E070E08FE793E40E941115B7
:100BB0005B016C01E99C700111240027F7FC009592
:100BC000102FC801B7010E94A5179B01AC01C601F7
:100BD000B5010E946916609383027093840280932A
:100BE0008502909386026091A00270E0882777FDCD
:100BF0008095982F0E94A51720E030E04FE753E43E
:100C00000E946F1520E030E048EC52E40E94691623
:100C10000E94991360937D0260917D0270E08827A5
:100C200077FD8095982F0E94A5179B01AC0160E08D
:100C300070E08FE793E40E94111520E030E040EF70
:100C400051E40E9469166093870270938802809332
:100C5000890290938A026091990270E0882777FD5B
:100C60008095982F0E94A51720E030E04FE753E4CD
:100C70000E946F1520E030E048EC52E40E946916B3
:100C80000E94991360937E0260917E02E090A1021F
:100C9000F090A2028090A8029090A90270E08827AC
:100CA00077FD8095982F0E94A5179B01AC0160E00D
:100CB00070E08FE793E40E9411155B016C01E81866
:100CC000F90800E010E0C801B7010E9457189B0125
:100CD000AC01C601B5010E94691660938B02709346
:100CE0008C0280938D0290938E021F910F91FF9042
:100CF000EF90DF90CF90BF90AF909F908F9008952E
:100D00001F920F920FB60F9211248F931DBC1CBC23
:100D1000809162028160809362028F910F900FBE7A
:100D20000F901F9018951F920F920FB60F921124DB
:100D30008F93809164028150809364028091640259
:100D4000882331F415BC809162028B7F809362020C
:100D50008F910F900FBE0F901F901895479A8AB3EE
:100D60008C608ABBD6988BB3837B8BBBBB9AC398B2
:100D700084B3806E84BB84B3887E84BB85B387666E
:100D800085BB85B38F7685BB80B7836080BF89B70D
:100D9000806189BF1DBC1CBC1FBC84E08EBD8AE77E
:100DA0008BBD82E18ABD89B7806489BF789408953C
:100DB000482F8150823028F01092680210926B0206
:100DC0000895413011F4AE9801C0AD9880E120E063
:100DD00030E006C0AF9A220F331F9C992160AF9874
:100DE0008150C0F7413011F4AE9A01C0AD9AC901EB
:100DF00086709078892B21F080E090E022E00DC091
:100E0000C90125E0969587952A95E1F723E0883E6C
:100E1000920710F023E001C021E0413039F4209323
:100E2000680290936A0280936902089520936B028E
:100E300090936D0280936C02089590E0AA2797FD2D
:100E4000A095BA2FBC01CD010E94A51720E030E08B
:100E500048EC52E40E946F1520E030E04FE753E485
:100E60000E9469160E949913DC01CB0108958091BC
:100E7000620282FD30C09A990AC08091630281604B
:100E800080936302809162028260809362029999EA
:100E90000AC0809163028260809363028091620243
:100EA00082608093620298990AC080916302846094
:100EB000809363028091620282608093620286E086
:100EC0008093640214BC85B5876085BD8091620201
:100ED0008460809362020895DE98D698CE9B1AC0F3
:100EE000D69A88EE93E00197F1F7D69880EA8A9532
:100EF000F1F790EF22E005C0822F8A95F1F7CE9BA3
:100F000003C09150C8F706C080EC93E00197F1F759
:100F100080E0089581E00895382F28E080E062E0C5
:100F20004AE150EF14C0D69A962F9A95F1F730FD0A
:100F3000D698942F9A95F1F78695CE998068369534
:100F4000952F9A95F1F7D698942F9A95F1F721500D
:100F500050F70895282F98E048E10BC0862F82278C
:100F6000382F317080FD64276695313009F4606850
:100F70002695915098F7862F08951F93CF93DF936E
:100F800010E0C0E0D0E08FEF0E948C07FE01E05738
:100F9000FD4F8083612F0E94AA07182F2196C93028
:100FA000D10589F7682F811161E0862FDF91CF91FC
:100FB0001F9108951F93182F0E946C078CEC0E94BC
:100FC0008C078EE40E948C078FEF0E948C078FEFB6
:100FD0000E948C07812F0E948C070E946C078CEC6A
:100FE0000E948C0788E40E948C071F9108950E943C
:100FF0006C07882319F01092670208958CEC0E9408
:101000008C0784E40E948C0708950E946C07882353
:1010100051F48CEC0E948C078EEB0E948C070E948E
:10102000BD07882319F0109267020895209191025C
:1010300030919002722F60E0630F711D882777FD59
:101040008095982F0E94A51720E030E040E85DE3EE
:101050000E946F1560939C0270939D0280939E0284
:1010600090939F0281E080936702089528E03AE11F
:1010700045E311C087FF02C0DB9A01C0DB98932FC4
:101080009A95F1F7DA9A942F9A95F1F7DA98880FF2
:10109000932F9A95F1F7215068F708950F931F93B6
:1010A000082F162FF8940E943608812F0E943608C8
:1010B000812F800F0E943608789480ED97E0019789
:1010C000F1F71F910F910895AF92BF92CF92DF92E7
:1010D000EF92FF920F931F9380916B02813009F082
:1010E00074C020916C0230916D028091A8029091A1
:1010F000A9022817390708F468C08091620285FDAB
:1011000005C08091620280628093620220916C022D
:1011100030916D028091A1029091A20228173907A7
:1011200058F00F2EF0E0EF2EF0E0FF2EFFE70F2F2C
:10113000F3E41F2FF02D39C060916C0270916D02A5
:101140002091A8023091A902A0908B02B0908C024D
:10115000C0908D02D0908E02E0907E02621B730BD5
:1011600080E090E00E945718A60195010E946F153B
:101170005B016C01FF240027F7FC0095102FC801CC
:10118000B7010E94A5179B01AC01C601B5010E94E1
:1011900042157B018C0120E030E04FE753E40E94D0
:1011A0001517181614F46FEF04C0C801B7010E9498
:1011B0009913809170028617E1F06093700260913C
:1011C000700283E00E944E0814C080917002882350
:1011D00039F0109270026091700283E00E944E0814
:1011E0008091620285FF05C0809162028F7D8093AD
:1011F00062021F910F91FF90EF90DF90CF90BF9010
:10120000AF9008955F926F927F928F929F92AF926C
:10121000BF92CF92DF92EF92FF920F931F93CF93E3
:10122000DF938091620286FFF8C080916F0288236D
:1012300079F480916E02882319F41092790211C01A
:1012400080916E028F3F11F482E009C081E007C0F7
:1012500080916F028F3F11F484E001C083E080939E
:10126000790280917902823009F465C0833030F4CC
:10127000882359F0813009F0D0C01BC0833009F4B5
:1012800087C0843009F0C9C0C3C060917C0270E09F
:1012900080E090E00E945718609371027093720290
:1012A000809373029093740280917C0280936E020B
:1012B0003EC06091710270917202809173029091B0
:1012C000740220917F0230918002409181025091FE
:1012D00082020E94421560937102709372028093A1
:1012E0007302909374026091710270917202809106
:1012F00073029091740220E030E04FE753E40E94C3
:101300004517882344F08FEF80936E0210927B0282
:1013100010927A020CC060917102709172028091F9
:101320007302909174020E94991360936E0260910F
:101330006E0281E06AC080917A0290917B020196F0
:1013400090937B0280937A0280917A0290917B0243
:101350004E9708F462C060917D0270E080E090E0FA
:101360000E945718609375027093760280937702FB
:101370009093780280917D0280936F0260916F025A
:1013800082E00E944E0810927B0210927A0245C0C1
:101390006091750270917602809177029091780247
:1013A00020918702309188024091890250918A02EF
:1013B0000E944215609375027093760280937702C3
:1013C0009093780260917502709176028091770215
:1013D0009091780220E030E04FE753E40E944517F7
:1013E000882324F08FEF80936F020CC06091750208
:1013F0007091760280917702909178020E94991301
:1014000060936F0260916F0282E00E944E0805C0F7
:10141000809162028F7B809362028091620287FFDB
:10142000C5C080916F02882381F480916E02882369
:1014300011F483E005C080916E028F3F21F481E0BA
:101440008093790204C082E0FBCF109279028091F0
:101450007902813009F1813038F0823009F461C0BD
:10146000833009F0A3C09DC080E090E0A0E0B0E030
:101470008093750290937602A0937702B0937802DE
:1014800010926F0260916F0282E00E944E081092EB
:101490007B0210927A028AC080917A0290917B023C
:1014A000019690937B0280937A0280917A029091C8
:1014B0007B020F9708F47AC010927B0210927A0296
:1014C0006091710270917202809173029091740226
:1014D00020918302309184024091850250918602CE
:1014E0000E941115609371027093720280937302CF
:1014F00090937402609171027091720280917302F4
:10150000909174020E94991360936E0280916E0212
:101510008F3F09F040C080916E02815080936E022F
:101520003AC0609171027091720280917302909141
:10153000740220918302309184024091850250917F
:1015400086020E941115609371027093720280935B
:101550007302909374026091710270917202809193
:101560007302909174020E94991360936E0290919D
:101570006E0280917C02891770F080E090E0A0E01C
:10158000B0E08093710290937202A0937302B093C3
:10159000740210926E0260916E0281E00E944E0809
:1015A00005C0809162028F7780936202809167020A
:1015B000813009F079C080916802813009F074C0EF
:1015C000E0906902F0906A0260919C0270919D0225
:1015D00080919E0290919F020091A3020E940318A5
:1015E000E61AF70A10E0E016F1060CF45DC08091EF
:1015F000620280618093620260919C0270919D0200
:1016000080919E0290919F0200919A02F090A70211
:10161000C0916902D0916A0270909B02E090A6028C
:10162000A0909C02B0909D02C0909E02D0909F021C
:1016300060909A028090690290906A0250909B029A
:101640000E940318772767FD709510E00F191109A4
:10165000061717075CF0872D90E08E1991098C17FB
:101660009D0720F080916202806403C08091620235
:101670008F7B80936202C601B5010E940318772711
:1016800067FD7095262D30E0621773072CF4852DC9
:1016900090E08816990620F080916202806819C057
:1016A000809162028F7715C08091620287FD0EC023
:1016B00080916E02882351F0809162028F7B80932B
:1016C000620280916202806880936202809162026D
:1016D0008F7E80936202DF91CF911F910F91FF90D7
:1016E000EF90DF90CF90BF90AF909F908F907F90C2
:1016F0006F905F9008950F931F93182F64E60E94D8
:10170000C51A882319F420E005E00AC0805D6FEF58
:101710007FEF40E050E022E20E94E20221E004E09C
:10172000812F64E60E94C51A192F892F6AE00E9452
:10173000C51A882311F0805D03C0213041F480E395
:101740006FEF7FEF40E050E022E20E94E202812F43
:101750006AE00E94C51A892F805D6FEF7FEF40E03D
:1017600050E022E20E94E20285E26FEF7FEF40E06C
:1017700050E022E20E94E202102F135009C080E2E2
:101780006FEF7FEF40E050E022E20E94E202115052
:101790001123A9F71F910F910895EF92FF920F93D4
:1017A0001F93DF93CF930F92CDB7DEB77C0160E13B
:1017B00077E20E94D11ACB016115710519F41982E3
:1017C00010E00BC0805D6FEF7FEF40E050E022E261
:1017D0000E94E20281E0898311E0C70160E177E2C3
:1017E0000E94D11A082FF92E68EE73E00E94D11AD8
:1017F000CB016115710551F0805D6FEF7FEF40E027
:1018000050E022E20E94E20211E00CC0113011F01F
:1018100010E008C080E36FEF7FEF40E050E022E28D
:101820000E94E202802F9F2D68EE73E00E94D11A81
:10183000082FF92E64E670E00E94D11ACB016115E1
:10184000710551F0805D6FEF7FEF40E050E022E2E4
:101850000E94E20211E00CC0113011F010E008C04B
:1018600080E36FEF7FEF40E050E022E20E94E2026F
:10187000802F9F2D64E670E00E94D11A082FF92E68
:101880006AE070E00E94D11ACB016115710511F078
:10189000805D03C0113041F480E36FEF7FEF40E0E3
:1018A00050E022E20E94E202802F9F2D6AE070E069
:1018B0000E94D11A805D6FEF7FEF40E050E022E29E
:1018C0000E94E20289818C5F0F90CF91DF911F917E
:1018D0000F91FF90EF9008950F931F93182F64E6D8
:1018E0000E94C51A882319F400E020E00AC0805D38
:1018F0006FEF7FEF40E050E022E20E94E20201E061
:1019000021E0812F64E60E94C51A192F892F6AE011
:101910000E94C51A882311F0805D03C0213041F474
:1019200080E36FEF7FEF40E050E022E20E94E202AE
:10193000812F6AE00E94C51A892F805D6FEF7FEFCB
:1019400040E050E022E20E94E202802F8E5F1F9171
:101950000F910895BF92CF92DF92EF92FF920F9373
:101960001F93E0909C02F0909D0200919E021091C6
:101970009F0280916702813009F092C0C801B701CF
:1019800020E030E040E050E00E94751787FD03C082
:1019900078E0C72E0EC08DE26FEF7FEF40E050E0A1
:1019A00022E20E94E20217FB109517F9109567E0FA
:1019B000C62EC801B7010E949913DC01CB01B82ED5
:1019C00064E60E94C51A882311F420E00AC0805DF5
:1019D0006FEF7FEF40E050E022E20E94E202CA9403
:1019E00021E08B2D64E60E94C51AD92E892F6AE06A
:1019F0000E94C51A882311F0805D03C0213041F494
:101A000080E36FEF7FEF40E050E022E20E94E202CD
:101A10008D2D6AE00E94C51A892F805D6FEF7FEFE0
:101A200040E050E022E20E94E2028EE26FEF7FEFA0
:101A300040E050E022E20E94E2026B2D70E0882735
:101A400077FD8095982F0E94A5179B01AC01C801D6
:101A5000B7010E94111520E030E040E251E40E94FD
:101A60006F150E949913DC01CB01805D6FEF7FEF52
:101A700040E050E022E20E94E2028FE76FEF7FEF4A
:101A800040E050E022E20E94E20283E46FEF7FEF49
:101A900040E050E022E20E94E2021C2D165014C0E9
:101AA00080E690E06FEF7FEF40E050E022E20E949E
:101AB0003C0413E009C080E26FEF7FEF40E050E0AC
:101AC00022E20E94E20211501123A9F71F910F9107
:101AD000FF90EF90DF90CF90BF9008950F931F93EA
:101AE000DF93CF930F92CDB7DEB78B018130A1F09A
:101AF000813038F0823009F461C0833009F06CC065
:101B000060C086E690E06FEF7FEF40E050E022E2B9
:101B10000E943C0413E074C0CB0164E670E00E94B4
:101B2000D11A662321F420E086E089830CC0862F39
:101B3000805D6FEF7FEF40E050E022E20E94E20222
:101B400021E0E5E0E983C80164E670E00E94D11A73
:101B5000182F092F6AE070E00E94D11A662319F04D
:101B6000862F805D03C0213041F480E36FEF7FEF6B
:101B700040E050E022E20E94E202812F902F6AE0D2
:101B800070E00E94D11A805D6FEF7FEF40E050E07F
:101B900022E20E94E2028FE76FEF7FEF40E050E029
:101BA00022E20E94E20283E46FEF7FEF40E050E028
:101BB00022E20E94E2021981145022C080E690E0E5
:101BC0000DC08AE690E06FEF7FEF40E050E022E248
:101BD0000E943C0412E014C08FE690E06FEF7FEFAC
:101BE00040E050E022E20E943C0411E009C080E2A3
:101BF0006FEF7FEF40E050E022E20E94E2021150DE
:101C00001123A9F70F90CF91DF911F910F910895A4
:101C10008CE264E10E9412040E94AA0C8CE266E24B
:101C20000E941204809168026091690270916A02B8
:101C30000E946E0D8CE268E30E94120480916B0298
:101C400060916C0270916D020E946E0D8CE26AE4EC
:101C50000E94120480916E020E941D070E947B0B5D
:101C60008CE26CE50E94120480916F020E941D07B5
:101C70000E947B0B8CE26EE60E941204809170023F
:101C80000E941D070E947B0B08951F938CE364E65E
:101C90000E94120480916502853009F44AC08630A2
:101CA00070F48230D9F1833028F48823E1F0813058
:101CB000C1F41CC08330A9F1843099F435C0883058
:101CC00009F444C0893028F48630D1F1873049F4D2
:101CD0003AC08A3009F44DC08A30D8F18B3009F40B
:101CE0004BC018E063C080919A0202C08091A702A5
:101CF0000E946C0C182F8FE76FEF7FEF40E050E0F1
:101D000022E20E94E20283E46FEF7FEF40E050E0C6
:101D100022E20E94E20211951A5F48C080919B0264
:101D2000E7CF8091A602E4CF8091A8029091A9020A
:101D300004C08091A1029091A2020E94CD0BDACF43
:101D40008091A302D5CF8091A50205C08091A00209
:101D500002C0809199020E946C0C182F85E26FEFEF
:101D60007FEF40E050E022E20E94E2021195195F0D
:101D70001DC080918F0202C08091A4020E946C0C51
:101D8000182F85E790E06FEF7FEF40E050E022E210
:101D90000E943C0411951B5F09C080E26FEF7FEF4A
:101DA00040E050E022E20E94E20211501123A9F724
:101DB0001F9108950F931F9384E06BE944E12FE78F
:101DC00000E010E00E94280584E064E10E94120413
:101DD00089E790E06FEF7FEF40E050E022E20E9461
:101DE0003C0484E066E20E9412048EE790E06FEF0C
:101DF0007FEF40E050E022E20E943C0484E068E390
:101E00000E94120483E890E06FEF7FEF40E050E023
:101E100022E20E943C0484E06AE40E94120488E802
:101E200090E06FEF7FEF40E050E022E20E943C0440
:101E300084E06CE50E9412048DE890E06FEF7FEF84
:101E400040E050E022E20E943C0484E06EE60E9402
:101E5000120482E990E06FEF7FEF40E050E022E271
:101E60000E943C041F910F9108950F931F9382E0ED
:101E70006FE948E32FE700E010E00E942805809119
:101E80006502853009F47BC0863090F4823009F415
:101E900047C0833030F4882309F1813009F0FFC056
:101EA00024C0833009F443C0843009F0F8C053C023
:101EB000883009F493C0893038F4863009F473C04F
:101EC000873009F0ECC083C08A3009F4BFC08A3083
:101ED00008F4A0C08B3009F0E2C0BFC082E068E324
:101EE0000E94120487E990E006C082E068E30E9445
:101EF00012048DEA90E06FEF7FEF40E050E022E2C5
:101F00000E943C0482E06AE40E94120483EA90E0AA
:101F10006FEF7FEF40E050E022E20E943C04BFC040
:101F200082E068E30E94120487E990E006C082E044
:101F300068E30E9412048DEA90E06FEF7FEF40E0CB
:101F400050E022E20E943C0482E06AE40E94120413
:101F50008AEB90E0DDCF82E068E30E94120487E91B
:101F600090E06FEF7FEF40E050E022E20E943C04FF
:101F700082E06AE40E94120488EC90E0C9CF82E01B
:101F800068E30E94120487E990E06FEF7FEF40E082
:101F900050E022E20E943C0482E06AE40E941204C3
:101FA00086ED90E0B5CF82E068E30E94120484EEF3
:101FB00090E06FEF7FEF40E050E022E20E943C04AF
:101FC00082E06AE40E94120482EF90E0A1CF82E0F6
:101FD00068E30E9412048FEF90E045C082E068E35E
:101FE0000E9412048FEF90E06FEF7FEF40E050E02F
:101FF00022E20E943C0482E06AE40E9412048CE027
:1020000091E06FEF7FEF40E050E022E20E943C045D
:1020100082E33EC082E068E30E9412048FEF90E00A
:102020006FEF7FEF40E050E022E20E943C0482E04C
:102030006AE40E9412048CE091E06FEF7FEF40E0D1
:1020400050E022E20E943C0483E322C082E068E385
:102050000E94120489E191E006C082E068E30E94D8
:10206000120487E291E06FEF7FEF40E050E022E260
:102070000E943C0482E06AE40E9412048CE091E039
:102080006FEF7FEF40E050E022E20E943C0481E3EA
:102090006FEF7FEF40E050E022E20E94E2020E94F8
:1020A000450E1F910F91089560919A0280E090E093
:1020B0000E942A1B6091A70281E090E00E942A1BE7
:1020C00060919B0282E090E00E942A1B6091A60230
:1020D00083E090E00E942A1B6091A8027091A902FF
:1020E00084E090E00E943B1B6091A1027091A202EB
:1020F00086E090E00E943B1B6091A30288E090E0A4
:102100000E942A1B6091A50289E090E00E942A1B90
:102110006091A0028AE090E00E942A1B60919902DF
:102120008BE090E00E942A1B60918F028CE090E08F
:102130000E942A1B6091A4028DE090E00E942A1B5D
:10214000089580E090E00E941C1B80939A0281E039
:1021500090E00E941C1B8093A70282E090E00E9406
:102160001C1B80939B0283E090E00E941C1B8093C9
:10217000A60284E090E00E94241B9093A902809321
:10218000A80286E090E00E94241B9093A202809314
:10219000A10288E090E00E941C1B8093A30289E0CA
:1021A00090E00E941C1B8093A5028AE090E00E94B0
:1021B0001C1B8093A0028BE090E00E941C1B80936C
:1021C00099028CE090E00E941C1B80938F028DE0AE
:1021D00090E00E941C1B8093A40208950F931F930C
:1021E0008091620283FF03C08AE08093660280913F
:1021F000630280FF4CC0C39A8091620283FD35C0A8
:1022000080916202886080936202109265028AE087
:102210008093660282E06FE944E12FE700E010E07E
:102220000E94280584E064E10E94120484E391E0A6
:102230006FEF7FEF40E050E022E20E943C0484E038
:102240006BE948E22FEF3FEF0E94EE0484E06BE978
:1022500049E22FEF3FEF0E94EE0484E06BE94AE28F
:102260002FEF3FEF0E94EE040BC0809165028F5F5D
:1022700080936502809165028C3011F410926502A2
:102280000E94350F809163028E7F8093630280915C
:10229000630281FFEEC08091620283FFE5C08091FE
:1022A0006502853009F47AC0863080F48230D1F13D
:1022B000833030F4882301F1813009F0D3C027C086
:1022C0008330D9F1843009F0CDC042C0883009F4A0
:1022D000A2C0893038F4863009F489C0873009F00B
:1022E000C1C08FC08A3009F4AAC08A3008F49DC0EA
:1022F0008B3009F0B7C0ADC080919A028E3109F4DD
:10230000B1C080919A028F5F80939A02ABC0809196
:10231000A702853009F4A6C08091A7028F5F809341
:10232000A702A0C080919B028C3809F49BC08091C9
:102330009B028F5F80939B0295C08091A60284319F
:1023400009F490C08091A6028F5F8093A6028AC094
:102350008091A8029091A9028855924009F482C008
:102360008091A8029091A9020A969093A902809365
:10237000A8022091A1023091A2028091A80290911E
:10238000A9028C599F4F2817390708F06BC080911C
:10239000A8029091A9028C599F4F24C02091A102BC
:1023A0003091A2028091A8029091A9028C599F4F6E
:1023B0002817390750F48091A8029091A9028C59EE
:1023C0009F4F9093A2028093A1028091A1029091CD
:1023D000A2028E5D934009F445C08091A1029091C4
:1023E000A2020A969093A2028093A1023BC0809120
:1023F000A3028431B9F18091A3028F5F8093A3027D
:1024000031C08091A502843169F18091A5028F5F6E
:102410008093A50227C08091A002843119F1809198
:10242000A0028F5F8093A0021DC080919902843129
:10243000C9F0809199028F5F8093990213C08091B7
:102440008F028C3379F080918F028F5F80938F029F
:1024500009C08091A4028C3329F08091A4028F5F7F
:102460008093A4020E94450E809163028D7F809329
:1024700063028091630282FFCFC08091620283FF7A
:10248000C6C080916502853009F466C0863080F44C
:102490008230D1F1833030F4882301F1813009F0AA
:1024A000B4C027C08330D9F1843009F0AEC042C037
:1024B000883009F483C0893038F4863009F46AC062
:1024C000873009F0A2C070C08A3009F48BC08A300E
:1024D00008F47EC08B3009F098C08EC080919A02BB
:1024E0008A3009F492C080919A02815080939A02B6
:1024F0008CC08091A702813009F487C08091A70227
:1025000081508093A70281C080919B02873309F498
:102510007CC080919B02815080939B0276C0809109
:10252000A602813009F471C08091A6028150809387
:10253000A6026BC08091A8029091A902883C9105E7
:1025400009F463C08091A8029091A9020A97909320
:10255000A9028093A80259C02091A1023091A20241
:102560008091A8029091A9028C599F4F82179307DE
:1025700038F08091A8029091A9028C599F4F05C014
:102580008091A1029091A2020A979093A202809357
:10259000A1023BC08091A3028530B9F18091A302D2
:1025A00081508093A30231C08091A502882369F1F4
:1025B0008091A50281508093A50227C08091A0023E
:1025C000882319F18091A00281508093A0021DC040
:1025D000809199028823C9F080919902815080935B
:1025E000990213C080918F02882379F080918F0225
:1025F000815080938F0209C08091A402882329F022
:102600008091A40281508093A4020E94450E809183
:1026100063028B7F809363021F910F9108950F9344
:102620001F930E94A1100E9472050E94AE060E9494
:102630000B0280E090E00E945D0585E065E00E946D
:1026400012048EE391E067E17BED40E050E021E190
:102650000E943C0484E06BE940E12BE736E60E94EF
:10266000EE0484E06BE941E12BE736E60E94EE04DC
:102670000E94F7070E94DA0E0E94370780916202DB
:1026800081FF07C00E94EE10809162028D7F8093CF
:1026900062028091620280FFEFCF8091620284FD2E
:1026A00004C08091620285FF02C0C39801C0C39A32
:1026B00081E00E94D80682E00E94D8060E940508A8
:1026C0000E94F7070E9402090E946408809162023A
:1026D00084FD04C08091620285FF02C0C39A01C0DC
:1026E000C3988091620283FF1CC080916602815072
:1026F00080936602809166028823A9F48091620229
:10270000877F8093620282E06FE944E12FE700E077
:1027100010E00E9428050E9454100E9472050E9439
:10272000DA0E0E94080E809162028E7F8093620210
:10273000A3CFEF92FF920F931F937B018C0120E0B8
:1027400030E040E05FE40E94451788238CF0C80128
:10275000B70120E030E040E05FE40E9411150E94E4
:1027600003189B01AC01205030404040504806C047
:10277000C801B7010E9403189B01AC01B901CA014D
:102780001F910F91FF90EF900895A0E0B0E0EBEC67
:10279000F3E10C94E51ADC012B01FA019C919230D3
:1027A00008F439C1EB018881823008F433C19430D8
:1027B00069F4843009F02FC111969C911197898199
:1027C000981709F428C1A6E5B1E025C1843009F4C1
:1027D00021C18230A9F4923009F01DC19A01AD01E6
:1027E00088E0EA010990AE01E90109929E01815059
:1027F000C1F7E201898111969C918923818308C1E7
:10280000923009F407C112962D903C901397EB017A
:102810008A819B811496AD90BD90CD90DC901797E6
:10282000EC80FD800E811F819101281B390BB901BD
:1028300037FF04C066277727621B730B6032710570
:102840000CF061C0121613066CF537014801062E14
:1028500004C096948794779467940A94D2F721E001
:1028600030E040E050E004C0220F331F441F551FEA
:102870006A95D2F721503040404050402E213F21F0
:1028800040235123211531054105510521F021E057
:1028900030E040E050E079018A01E628F728082975
:1028A00019293CC0232BD1F1260E371E35014601D4
:1028B000062E04C096948794779467940A94D2F76E
:1028C00021E030E040E050E004C0220F331F441FFD
:1028D000551F6A95D2F721503040404050402A2180
:1028E0003B214C215D21211531054105510521F088
:1028F00021E030E040E050E059016A01A628B72805
:10290000C828D9280BC0821593052CF01C01AA24D5
:10291000BB24650103C0EE24FF24870111969C911E
:10292000D20111968C91981709F445C0992339F07A
:10293000A80197012A193B094C095D0906C0A601A7
:1029400095012E193F09400B510B57FD08C011820C
:102950003382228224833583468357831DC081E0DE
:1029600081833382228288279927DC01821B930B83
:10297000A40BB50B84839583A683B7830DC0220F68
:10298000331F441F551F2483358346835783828119
:102990009381019793838283248135814681578176
:1029A000DA01C9010197A109B1098F5F9F4FAF4FAC
:1029B000BF4328F30BC0918333822282EA0CFB1CB5
:1029C0000C1D1D1DE482F5820683178383E080833E
:1029D000248135814681578157FF1AC0C901AA2732
:1029E00097FDA095BA2F81709070A070B070569529
:1029F000479537952795822B932BA42BB52B848352
:102A00009583A683B7838281938101969383828382
:102A1000DF0101C0D201CD01CDB7DEB7E2E10C94F8
:102A2000011BA0E2B0E0E7E1F5E10C94F11A698343
:102A30007A838B839C832D833E834F835887E9E081
:102A4000EE2EF12CEC0EFD1ECE010196B7010E9478
:102A5000F4198E010F5E1F4FCE010596B8010E943A
:102A6000F4198A8991E089278A8BC701B801AE01E0
:102A7000475E5F4F0E94C5130E941F19A096E6E0B3
:102A80000C940D1BA0E2B0E0E8E4F5E10C94F11A1F
:102A900069837A838B839C832D833E834F835887FE
:102AA000F9E0EF2EF12CEC0EFD1ECE010196B701E0
:102AB0000E94F4198E010F5E1F4FCE010596B801DA
:102AC0000E94F419C701B801AE01475E5F4F0E9432
:102AD000C5130E941F19A096E6E00C940D1BA0E2FE
:102AE000B0E0E5E7F5E10C94E51A69837A838B831E
:102AF0009C832D833E834F835887CE010196BE0170
:102B0000675F7F4F0E94F419CE010596BE016F5E8C
:102B10007F4F0E94F4199985923088F0898982301C
:102B2000C8F0943019F4823051F404C0843029F490
:102B3000923081F486E591E0C6C0923049F420E0FD
:102B40009A858A89981321E02A87CE010996BBC00D
:102B5000823049F420E09A858A89981321E02A8BF3
:102B6000CE014196B0C02D843E844F8458886D8834
:102B70007E888F88988CEE24FF248701AA24BB24AA
:102B8000650140E050E060E070E0E0E0F0E0C101AD
:102B900081709070892BE9F0E60CF71C081D191D57
:102BA0009A01AB012A0D3B1D4C1D5D1D80E090E09C
:102BB000A0E0B0E0E614F7040805190520F481E070
:102BC00090E0A0E0B0E0BA01A901480F591F6A1FC8
:102BD0007B1FAA0CBB1CCC1CDD1C97FE08C081E02F
:102BE00090E0A0E0B0E0A82AB92ACA2ADB2A3196F0
:102BF000E032F10549F0660C771C881C991C56944C
:102C0000479437942794C3CFFA85EA892B893C8966
:102C10008B859C85280F391F2E5F3F4F17C0CA0137
:102C200081709070892B61F016950795F794E79461
:102C300080E090E0A0E0B0E8E82AF92A0A2B1B2BFC
:102C400076956795579547952F5F3F4F77FDE7CF6F
:102C50000CC0440F551F661F771F17FD4160EE0C17
:102C6000FF1C001F111F21503040403090E05907D9
:102C700090E0690790E4790760F32B8F3C8FDB01CC
:102C8000CA018F779070A070B07080349105A10553
:102C9000B10561F447FD0AC0E114F1040105110515
:102CA00029F0405C5F4F6F4F7F4F40781A8EFE17C0
:102CB00011F081E08A8F4D8F5E8F6F8F78A383E054
:102CC000898FCE0149960E941F19A096E2E10C94CB
:102CD000011BA8E1B0E0EFE6F6E10C94ED1A698380
:102CE0007A838B839C832D833E834F835887B9E0FF
:102CF000EB2EF12CEC0EFD1ECE010196B7010E94C9
:102D0000F4198E010F5E1F4FCE010596B8010E9487
:102D1000F4192985223008F47EC03989323010F444
:102D2000B8017CC08A859A8989278A87243011F066
:102D3000223031F4231709F06EC066E571E06EC0F1
:102D4000343039F41D861E861F86188A1C861B8621
:102D500004C0323021F484E08987B7015FC02B853D
:102D60003C858B899C89281B390B3C872B87ED84FC
:102D7000FE840F851889AD88BE88CF88D88CEA1468
:102D8000FB040C051D0540F4EE0CFF1C001F111F79
:102D9000215030403C872B8720E030E040E050E07D
:102DA00080E090E0A0E0B0E460E070E0EA14FB04B2
:102DB0000C051D0540F0282B392B4A2B5B2BEA18FC
:102DC000FB080C091D09B695A79597958795EE0CFC
:102DD000FF1C001F111F6F5F7F4F6F31710531F7AF
:102DE000DA01C9018F779070A070B07080349105BE
:102DF000A105B10561F427FD0AC0E114F104010544
:102E0000110529F0205C3F4F4F4F5F4F20782D87F1
:102E10003E874F87588BBE01675F7F4FCB010E9473
:102E20001F196896EAE00C94091BA8E1B0E0EBE1F9
:102E3000F7E10C94F11A69837A838B839C832D8349
:102E40003E834F83588789E0E82EF12CEC0EFD1E5F
:102E5000CE010196B7010E94F4198E010F5E1F4F3B
:102E6000CE010596B8010E94F4198985823040F0A0
:102E70008989823028F0C701B8010E946C1A01C00C
:102E80008FEF6896E6E00C940D1BA8E1B0E0EBE450
:102E9000F7E10C94F11A69837A838B839C832D83E9
:102EA0003E834F83588789E0E82EF12CEC0EFD1EFF
:102EB000CE010196B7010E94F4198E010F5E1F4FDB
:102EC000CE010596B8010E94F4198985823040F040
:102ED0008989823028F0C701B8010E946C1A01C0AC
:102EE0008FEF6896E6E00C940D1BA8E1B0E0EBE7ED
:102EF000F7E10C94F11A69837A838B839C832D8389
:102F00003E834F83588789E0E82EF12CEC0EFD1E9E
:102F1000CE010196B7010E94F4198E010F5E1F4F7A
:102F2000CE010596B8010E94F4198985823040F0DF
:102F30008989823028F0C701B8010E946C1A01C04B
:102F400081E06896E6E00C940D1BA8E0B0E0EBEAA7
:102F5000F7E10C94EE1A9B01AC0183E08983DA015E
:102F6000C9018827B7FD83959927AA27BB27B82EC3
:102F7000211531054105510519F482E089833AC0D4
:102F80008823A9F0203080E0380780E0480780E8F7
:102F9000580729F460E070E080E09FEC30C0EE2438
:102FA000FF248701E21AF30A040B150B02C0790112
:102FB0008A018EE1C82ED12CDC82CB82ED82FE828A
:102FC0000F831887C801B7010E94D01801971816FF
:102FD000190684F4082E04C0EE0CFF1C001F111FFC
:102FE0000A94D2F7ED82FE820F831887C81AD90A95
:102FF000DC82CB82BA82CE0101960E941F192896EC
:10300000E9E00C940A1BACE0B0E0E9E0F8E10C94D4
:10301000F51A69837A838B839C83CE010196BE0166
:103020006B5F7F4F0E94F4198D81823061F1823095
:1030300050F1843021F48E81882351F12EC02F81EC
:10304000388537FD20C06E812F3131051CF0662395
:10305000F9F023C08EE190E0821B930B29853A851D
:103060004B855C8504C056954795379527958A957D
:10307000D2F76623B1F050954095309521953F4F9A
:103080004F4F5F4F0EC020E030E040E050E009C0FD
:103090002FEF3FEF4FEF5FE704C020E030E040E06C
:1030A00050E8B901CA012C96E2E00C94111BA8E08B
:1030B000B0E0EDE5F8E10C94ED1A7B018C016115AF
:1030C00071058105910519F482E0898360C083E070
:1030D00089838EE1C82ED12CDC82CB82ED82FE82E8
:1030E0000F831887C801B7010E94D018FC013197DF
:1030F000F7FF3BC0222733272E1B3F0B57016801E8
:10310000022E04C0D694C794B794A7940A94D2F719
:1031100040E050E060E070E081E090E0A0E0B0E0EE
:1031200004C0880F991FAA1FBB1F2A95D2F70197C9
:10313000A109B1098E219F21A023B1230097A105E8
:10314000B10521F041E050E060E070E04A295B29E0
:103150006C297D294D835E836F8378878EE190E0B3
:103160008E1B9F0B9C838B8312C0309781F00E2E99
:1031700004C0EE0CFF1C001F111F0A94D2F7ED8251
:10318000FE820F831887CE1ADF0ADC82CB821A8276
:10319000CE0101960E941F192896EAE00C94091BA3
:1031A000EF92FF920F931F937B018C0180E0E81652
:1031B00080E0F80681E0080780E0180788F48FEFC8
:1031C000E816F1040105110531F028F088E090E0DF
:1031D000A0E0B0E017C080E090E0A0E0B0E012C056
:1031E00080E0E81680E0F80680E0080781E0180734
:1031F00028F088E190E0A0E0B0E004C080E190E039
:10320000A0E0B0E020E230E040E050E0281B390BC5
:103210004A0B5B0B04C016950795F794E7948A95C3
:10322000D2F7F701E25AFE4F8081281B310941098C
:103230005109C9011F910F91FF90EF900895DF92FE
:10324000EF92FF920F931F93FC01E480F5800681BB
:103250001781D1808081823048F480E090E0A0E145
:10326000B0E0E82AF92A0A2B1B2BA5C0843009F408
:103270009FC0823021F4EE24FF24870105C0E114B1
:10328000F1040105110519F4E0E0F0E096C0628157
:1032900073819FEF623879070CF05BC022E83FEF43
:1032A000261B370B2A3131052CF020E030E040E0BE
:1032B00050E02AC0B801A701022E04C07695679598
:1032C000579547950A94D2F781E090E0A0E0B0E0EE
:1032D00004C0880F991FAA1FBB1F2A95D2F7019718
:1032E000A109B1098E219F21A023B1230097A10537
:1032F000B10521F081E090E0A0E0B0E09A01AB01DF
:10330000282B392B4A2B5B2BDA01C9018F77907060
:10331000A070B07080349105A105B10539F427FF84
:1033200009C0205C3F4F4F4F5F4F04C0215C3F4FAF
:103330004F4F5F4FE0E0F0E02030A0E03A07A0E020
:103340004A07A0E45A0710F0E1E0F0E079018A01B1
:1033500027C06038710564F5FB01E158FF4FD801C3
:10336000C7018F779070A070B07080349105A1056F
:10337000B10539F4E7FE0DC080E490E0A0E0B0E0D4
:1033800004C08FE390E0A0E0B0E0E80EF91E0A1F51
:103390001B1F17FF05C016950795F794E794319604
:1033A00087E016950795F794E7948A95D1F705C0BD
:1033B000EE24FF248701EFEFF0E06E2F679566277C
:1033C0006795902F9F77D794DD24D7948E2F86957D
:1033D000492F462B582F5D29B701CA011F910F9124
:1033E000FF90EF90DF900895FC01DB014081518157
:1033F0002281622F6F7770E0221F2227221F938184
:10340000892F880F822B282F30E0991F9927991F29
:1034100011969C93119721153105A9F54115510578
:103420006105710511F482E037C082E89FEF1396C1
:103430009C938E9312979A01AB0167E0220F331F82
:10344000441F551F6A95D1F783E08C930DC0220F5E
:10345000331F441F551F12968D919C91139701970E
:1034600013969C938E931297203080E0380780E06B
:10347000480780E4580758F314962D933D934D93D5
:103480005C93179708952F3F310579F44115510545
:103490006105710519F484E08C93089564FF03C0FD
:1034A00081E08C9312C01C9210C02F5730401396AD
:1034B0003C932E93129783E08C9387E0440F551F23
:1034C000661F771F8A95D1F7706414964D935D93AC
:1034D0006D937C93179708951F93DC01FB019C91DA
:1034E000923008F447C08081823008F443C09430A1
:1034F00051F411961C91843099F58181682F70E008
:10350000611B71093FC0843021F0923031F4823068
:10351000B9F18181882389F12DC011961C911197F1
:103520008230F1F081811817D9F412962D913C91D7
:103530001397828193818217930794F02817390794
:10354000BCF014968D919D910D90BC91A02D24817D
:10355000358146815781281739074A075B0718F4D8
:10356000112341F00AC082179307A407B50740F45E
:10357000112319F061E070E005C06FEF7FEF02C02A
:1035800060E070E0CB011F910895991B79E004C0C1
:10359000991F961708F0961B881F7A95C9F7809592
:1035A0000895AA1BBB1B51E107C0AA1FBB1FA6178A
:1035B000B70710F0A61BB70B881F991F5A95A9F7DC
:1035C00080959095BC01CD0108952F923F924F9226
:1035D0005F926F927F928F929F92AF92BF92CF92A3
:1035E000DF92EF92FF920F931F93CF93DF93CDB7AC
:1035F000DEB7CA1BDB0B0FB6F894DEBF0FBECDBF24
:1036000009942A88398848885F846E847D848C84F4
:103610009B84AA84B984C884DF80EE80FD800C81FD
:103620001B81AA81B981CE0FD11D0FB6F894DEBFE0
:103630000FBECDBFED010895E199FECF9FBB8EBBBC
:10364000E09A99278DB30895A8E1B0E042E050E0F8
:103650000C94431B262FE199FECF9FBB8EBBE09AB3
:1036600001970DB2021631F02DBB0FB6F894E29A15
:10367000E19A0FBE08950196272F0E942B1B0C94F0
:103680002A1BDC01CB01FC01E199FECF06C0FFBB88
:10369000EEBBE09A31960DB20D9241505040B8F712
:0636A0000895F894FFCF2D
:1036A600425245414B00554E43004F564552004548
:1036B60052524F5200ECE8ED0054313A2000543299
:1036C6003A200054333A2000CC313A2000CC323A2A
:1036D6002000CC333A2000D2E5ECEFE5F0E0F2F33F
:1036E600F0E000EFEEECE5F9E5EDE8FF00C4E5EB10
:1036F600FCF2E020F2E5ECEF2E00EFEEE2E5F0F56D
:10370600ED2E20EFE5F7E800F1F2E0F0F2E020EF31
:10371600E8F0EEEB2E00EFEEEBEDFBE920EFE8F044
:10372600EEEB2E00D0E0E7EDEEF1F2FC20F2E5EC58
:103736002E00E2FBEAEB20E0E2F2EEECE0F200CC57
:10374600EEF9ED2E20F1F2E0F0F2E000E2E5EDF226
:10375600E8EBFFF2EEF0E02000C2F0E5ECFF20F02F
:10376600E0E7E3EEEDE000C2F0E5ECFF20EEF1F27B
:10377600E0ED2E00CDE0F1F2F0EEE9EAE000426F76
:10378600696C6572322076322E302031382E30390F
:103796002E32303230000000000000000000000130
:1037A60002020303030304040404040404040505D9
:1037B60005050505050505050505050505050606B1
:1037C6000606060606060606060606060606060693
:1037D6000606060606060606060606060606070781
:1037E6000707070707070707070707070707070763
:1037F6000707070707070707070707070707070753
:103806000707070707070707070707070707070742
:103816000707070707070707070707070707080830
:103826000808080808080808080808080808080812
:103836000808080808080808080808080808080802
:1038460008080808080808080808080808080808F2
:1038560008080808080808080808080808080808E2
:1038660008080808080808080808080808080808D2
:1038760008080808080808080808080808080808C2
:1038860008080808080808080808080808080808B2
:0E3896000808080808080808080808080808B4
:00000001FF
