:020000020000FC
:100000001FC0189518951895189530C156C161C331
:1000100018951895189510C1189518951895189554
:06002000189518951895D3
:100040000FED0DBF87D3AA240FEFB02E03E00ABB3C
:1000500003E00BBBA7BA0DE308BB0CE701BB00E054
:1000600002BB00E408B902E001B90DE300BD00E203
:100070000BBF02E809BFF0E0E1E8A082D0E0C3E6F0
:10008000A88288279927772766277894C5D195FF76
:100090000DC0882780FFFECF84FFFCCF9F7C959A00
:1000A00093FF04C00AE038D3C1D005C093FD03C05C
:1000B00011D0F6D0ECCF959A3FD096FDE8CF30D353
:1000C000ADBCACBC05E00EBD00E205BF959898E064
:1000D0008895DDCF459B96984599969A70FF03C009
:1000E0007E7F9D7FFED172FF08957B7F45990895A5
:1000F000B3990895B4990895B59908957727959877
:100100000FD3959A03E008D391D008950FCFF0EE66
:10011000E2E5F0EAE00DF1E2FFE7E80D09D2D0C533
:10012000C2CEC3C0210D0720E7EEEDE02E0D08C1C1
:10013000E0F2E0F0E5FF200090617A7F73FF04C0F9
:1001400063FD777F63FF686074FF04C064FD7F7E9A
:1001500064FF606175FF04C065FD7F7D65FF6062BF
:1001600071FF04C061FD7D7F61FF6260703009F442
:10017000089552D11127B0E0A3E6723009F419C0F6
:10018000F1E0ECE10591100F4CD073FF03C021E3C7
:100190002D93139574FF03C022E32D93139575FFE0
:1001A00003C023E32D931395F1E0E6E20591100FD0
:1001B00038D007D0B0E0AFE91C93772798E4F7D1A7
:1001C0000895F1E0EEE20591100F2BD01F93F5E0BA
:1001D000E0E98827A3D185FFFECF80FFFCCF1F91E8
:1001E000D0E0C1E80881C00F08F4D39509910C3222
:1001F00019F00D931395FACF05E20D931395D0E006
:10020000C1E8A8829B7F0895F1E0ECE0B0E0A3E6AE
:100210000591102F06D0D5DFB0E0AFE91C93C7D110
:10022000089525912D930A95E1F70895F5E0E0EA08
:1002300075D1AAB898E0089594FD189593FD11C062
:1002400097FF1895F8940F930FB70F9390611BD0F9
:10025000ADBCACBC03E00EBD0F910FBF0F91789405
:100260001895F894AEBC0FD078941895F8940F9325
:100270000FB70F93AEBC9F7E93FD05D00F910FBFBC
:100280000F9178941895B09B716045997260B29BFC
:100290007460B3997860B4997061B599706208958B
:1002A000B399949AB39B9498B499939AB49B939866
:1002B000B599929AB59B92980895F894FF93EF930D
:1002C000DF93CF93BF93AF934F933F932F931F939E
:1002D0000F930FB70F93A3BE9460D3E0C6EA82D00A
:1002E000002369F0B0E0A1E8095FA00F08F4B3951E
:1002F0000C91003311F482603EC050D03CC0D3E07A
:10030000CEEA70D0002311F06BD135C0D3E0C4EB3E
:1003100069D0002309F08160D3E0CCEB63D00023E7
:1003200011F03CD028C0D3E0C6EC5CD0002319F01B
:10033000B1D0846020C0D3E0CEEC54D0002349F08B
:1003400091FF02C0B4D08860F8D1F5E0EAE9E6D0C8
:1003500012C0D3E0C6ED46D0002311F080610BC07F
:10036000D3E0CEED3FD0002331F08062085FD0E0D3
:10037000C1E8088304C0B0E0A1E8AC929B7F0F9174
:100380000FBF0F911F912F913F914F91AF91BF914F
:10039000CF91DF91EF91FF9178941895DBD1F5E043
:1003A000ECE4BCD00895042B435041533A00040DB3
:1003B0000A3E2000060D0A4F4B0D0A00090D0A45A2
:1003C00052524F520D0A062B435343413A00062B1B
:1003D000434C49503A00062B434D47533A00052BF6
:1003E0004342433A0027FD2FEC2FB0E0A1E84D91A6
:1003F000A00F08F4B3953591431B60F015912D9132
:10040000211B21F43A95D1F7039508950395401BDC
:1004100008F0E9CF00270895ACB800E20BB908E96D
:100420000AB906E003B9A2B80CE009B9D99885D198
:10043000D99A04E171D1F5E0E0E588276FD080FF1B
:10044000FECF7BD1F5E0E0E7882768D083D181FF3C
:10045000FCCFF5E0E8E5882761D080FFFECF6DD1C5
:10046000F5E0E4E688275AD080FFFECF66D100E0B1
:100470002BD00F3F31F4F5E0EAE788274FD082FF19
:10048000FECF00E121D00F3F11F488272AD09068D9
:10049000959A08952BE0BB27A1E8075FA00F10E015
:1004A0000D91005317D013952A95D1F708952BE09D
:1004B000BB27A1E8075FA00F10E10D9100530AD000
:1004C00013952A95D1F70895E199FECF0EBBE09AD6
:1004D0000DB30895E199FECF1EBB0DBBE29AE19AE0
:1004E000089592601DD1959883FF04C08827959A3E
:1004F0009D7F089570FF06C0072F0E7F702F959A7D
:100500009D7F089572FF07C0072F0B7F702F9061AA
:100510007BDE9D7F089504D1959AE3CF1F932F939F
:10052000259115910FD02A95E1F72F911F910895EC
:100530001F932F932191119105D02A95E1F72F91C7
:100540001F9108955D9BFECF1CB9089502412F00B5
:1005500006415445300D0A000B41542B434C495081
:100560003D310D0A0B41542B434D47463D300D0A9A
:100570000941542B435041530D0A0A41542B435314
:1005800043413F0D0A000841542B434D47533D0062
:100590000841542B4342430D0A00054154480D0ABB
:1005A0000C41542B43504F57443D300D0A00F0E0AE
:1005B000EFE91081110F125F212FF5E0E6E8AEDFC1
:1005C0001FEF13952A50E8F7265F105DBBDF1FEF82
:1005D00013952150E8F7105DB5DF1DE0B3DF0895F6
:1005E00037E037D000E022D031E133D0332731D0AB
:1005F0003BE02FD000E11AD033272BD038E029D0B0
:100600003FEF27D0B0E0AFE93C91432F330F21D02B
:10061000B0E0A3E63D91303C10F439D001C027D0C2
:100620004A95C1F71AE18EDF906208951BE031E927
:1006300010D0222749DF10FD04C00295302B09D0CD
:1006400001C0302F0EB303951A95A1F7306F01D07A
:1006500008951F93132F12951F70106322D072DF1D
:10066000132F1F7010631DD06DDF1F9108953F93EE
:100670002F930F9303E020E5230F08F40395302F09
:10068000E8DF322FE6DF0F912F913F9108953F93DE
:100690002F93232F30E0DDDF322FDBDF2F913F91CF
:1006A00008951A3311F411E408951B3311F412E480
:1006B00008951C3311F413E408951D3311F414E468
:1006C00008951E3311F415E408951F3309F416E458
:1006D000089592FD1895F894FF93EF931F930F934D
:1006E0000FB70F93A3BE0CB1F0E0E1E810811395B2
:1006F000123311F4112700271083E10F08F4F3954A
:100700000083A2BE03E003BF0F910FBF0F911F91A3
:10071000EF91FF91789418951DD00A95E9F7089507
:100720000F9309E00093600004E7009361000FEF6E
:10073000009362001CD00F9108950F930FEF009368
:10074000600006E7009361000BE2009362000FD0A7
:100750000F9108950F930FEF009360000CEE00933C
:1007600061000BE20093620002D00F910895DF92C6
:10077000EF92FF92F0906000E0906100D0906200F4
:10078000DA94F1F7EA94D1F7FA94B1F7FF90EF9089
:04079000DF90089559
:00000001FF
