:020000020000FC
:1000000017C01895189518951895189560C12CC1AA
:1000100018951895189574C11895189518951895F0
:06002000189518951895D3
:100030000FED0DBFAA240FEFB02E00EC07BB00E0C0
:1000400008BB04E101BB00E002BB00E408B902E028
:1000500001B9A2B809E109B9ABB808E90AB906E0E3
:1000600003B902E009BF00E20BBFB0E0A3E6AC9227
:10007000EE24FF24DD247894B0E0A3E601E00D93A4
:1000800001E70D931ED0B0E0A3E601E00D9300EE72
:100090000D9317D0EE2049F056D1929AB9D192988B
:1000A000B0E0A3E6AC92EE24FF24F7FC0AD0F6FE03
:1000B00007C0DD2009F060D0F3FCAFD0F4FCC5D060
:1000C000E9CFB0E0A3E69D918D91913009F041C058
:1000D000082F007E003EB9F4B0E0A3E6AC920F9387
:1000E0000F2D0064F02E0F910F930F2D0F77F02E30
:1000F0000F91949A00E100BD74D1DD24CC24B0E0CE
:10010000A3E8AC9230C0082F007F003119F4082F0B
:1001100063D129C0883019F4082F58D124C0082F82
:10012000007C003819F4082F57D11DC0823019F413
:10013000082F4CD118C0082F007C003419F4082F68
:100140004BD111C0082F0C7F043041F4082F3ED151
:100150000AC0082F007E003C09F405C00F930E2D45
:100160000064E02E0F91B0E0A3E6AC920F930F2D48
:100170000F77F02E0F9108950F930F2D0860F02E3A
:100180000F919F938F939D2D8C2D983148F4813042
:1001900029F0B0E0A3E801E0C02E3BC0E89426C0FF
:1001A000903368F4833029F4B0E0A3E801E0C02E76
:1001B00030C0813011F4689419C0E89417C09036AB
:1001C00068F4813029F4B0E0A3E802E0C02E21C039
:1001D000823011F468940AC0E89408C0833029F092
:1001E000B0E0A3E803E0C02E14C068946EF0F5FC04
:1001F0000BC00F930F2D0062F02E0F910F930F2D58
:10020000077FF02E0F9105C00F930F2D0F7DF02E5D
:100210000F91DD248F919F910895B0E0A3E89D9107
:100220008D917D916D915D9100270EF40FEF95D02A
:10023000B0E0A3E89D938D937D936D935D930F93B1
:100240000F2D077FF02E0F910895929A25E0B0E0D0
:10025000AEE70D9182D02A95E1F792980F930F2D7A
:100260000F7EF02E0F910895F8941F93BF93AF93D4
:100270000F930FB70F93A3BE0CB1F7FC20C0F6FE8F
:100280000AC0C79AA0BC0F930F2D0F7BF02E0F91C1
:100290009498929814C0B0E0A3E61C911395103185
:1002A00029F01C93A10FBA1D0C9306C00F930E2DBD
:1002B0000068E02E0F9103C0A2BE03E003BF0F91C0
:1002C0000FBF0F91AF91BF911F9178941895F8943B
:1002D0000F930FB70F93A3BEF6FC06C00F930F2D1D
:1002E0000068F02E0F9107C0BF93AF93B0E0A3E872
:1002F000AC92AF91BF910F910FBF0F917894189569
:10030000F8940F930FB70F93F6FE11C0DD24A3BE30
:1003100002B7083048F0083139F0003329F00036D0
:1003200019F0003A08F4D02EA2BE03E003BF0F91EB
:100330000FBF0F91789418950F930FE40ED00BE434
:100340000CD00F9108950F9305E407D002E505D076
:1003500004D00E2D02D00F9108955D9BFECF0CB9F5
:100360000895C698C79A4ED0C69A4CD008951F9348
:100370000F9318E0C79846D007FDC69A07FFC698A6
:10038000000F40D0C79A3ED03DD0C7983BD01A95B9
:1003900099F70F911F9108951F93002718E0C798B0
:1003A00031D030D0C79A2ED0000FB49901602AD036
:1003B000C79828D01A95A9F71F910895C69A22D0F8
:1003C000C79A20D01FD0C6981DD00895CADFCFDFAE
:1003D000E3DFF4DFC2DF0895C4DFC9DFEFDFACDFA6
:1003E00008951F93BEDF13E0C7980CD0C69A0AD0B9
:1003F000C79A08D007D0C79805D01A95C1F7C698F4
:100400001F9108950F930AE00A95F1F70F9108954F
:100410000F9303E10093600007EE0093610002EF89
:10042000009362000FD00F9108950F9309E200939B
:1004300060000FEF009361000EEF0093620002D0A6
:100440000F910895DF92EF92FF92F0906000E0909C
:100450006100D0906200DA94F1F7EA94D1F7FA944F
:0A046000B1F7FF90EF90DF900895D0
:00000001FF
