:020000020000FC
:1000000017C01895189518951895189543C1189507
:100010001895189518954CC1189518951895189518
:06002000189518951895D3
:100030000FED0DBFAA240FEFB02E03E00ABBABBA41
:1000400003EA07BB0CE908BB0FE701BBA2BA00E457
:1000500008B902E001B902E809BF01E003BDA2BE90
:10006000A0BE03E003BF00E20BBF0CE100BDFF2414
:10007000EE24DD24B2BAD99AC09AC19AD89AAED1E8
:10008000A2BAD998C098C198D898A8D1B0E0A3E6F0
:10009000AD92AD92AD92AC92B0E0A9E6AC92B0E078
:1000A000ACE600E01AEF0D931C937894F0FC65D059
:1000B000F1FC0BD0F2FC33D0E3FC02C0E4FCC9D06D
:1000C000E5FC02C0E6FCD1D0F1CFC598C79828E086
:1000D0001127C59A889400000000B6990894C59825
:1000E000111F2A95B1F728E00027C59A88940000CF
:1000F0000000B6990894C598001F2A95B1F7C79AD1
:10010000B0E0AAE61D930C930F930F2D0460F02E20
:100110000F910F930F2D0D7FF02E0F910895B0E0EA
:10012000AAE60D911C9111FD16C012FD14C007FD29
:1001300012C025E08894079517952A95D9F714D110
:10014000002311F4112371F0B0E0A3E60FE00D934A
:100150000D930C930CC0B0E0A3E600E10D930D935A
:100160000C9305C0B0E0A3E62D933D934C930F9301
:100170000F2D0B7FF02E0F910895E7FE23C0B0E006
:10018000A7E69D918C910196903110F0EE245BC012
:10019000E6FC14C0943030F00F930E2D0064E02E76
:1001A0000F910CC0E4FC0AC0992319F484310CF4BB
:1001B00005C00F930E2D0061E02E0F91B0E0A7E671
:1001C0009D938C93B0E0A9E60C9103950C930030BD
:1001D00039F40F930F2D0260F02E0F9108E0D02616
:1001E000B0E0A6E61C91B0E0A3E6A2BA103029F474
:1001F000D2FE01C0D3FCD89AC098113029F4D1FEA8
:1002000001C0D3FCC19AD898123029F4D0FE01C0A5
:10021000D3FCC09AC1980F93A10F0FB700FDB395FF
:100220000F910C91F2E0E2E80F93E00F0FB700FDA1
:10023000F3950F91049102BBB0E0A6E6139513303D
:1002400009F411271C930F930F2D0E7FF02E0F91A1
:100250000895E0FE00C0E1FE00C0E2FE00C00F9382
:100260000E2D0860E02E0F910895E0FE00C0E1FE23
:1002700000C0E2FE00C00F930E2D0062E02E0F9131
:1002800008956F28753D3A1F5F297F3F0057505EE4
:10029000567A1000F8940F930FB70F930F930F2D0A
:1002A0000160F02E0F910F910FBF0F917894189568
:1002B000F7FC1895F8940F930FB70F931F932F9394
:1002C00006B323E0112702FF139506952A95D9F767
:1002D0001E7F112311F0EE242DC006B304FD09C0CA
:1002E000E0FC0BC02ED00F930E2D0160E02E0F917D
:1002F00021C0E0FE02C0EE241DC003FD09C0E1FCE8
:100300000BC01FD00F930E2D0260E02E0F9112C074
:10031000E1FE02C0EE240EC002FD09C0E2FC0AC0EC
:1003200010D00F930E2D0460E02E0F9103C0E2FE5B
:1003300001C0EE242F911F910F910FBF0F91789460
:100340001895B0E0A7E6AD92AC920F930E2D006821
:10035000E02E0F910895130F021F0895131B020B37
:100360000895131702070895AA27BB27CC27DD2776
:10037000EE2727E230E1F5DF18F0F0DFA395FBCFA1
:1003800023E038EEEEDF18F0E9DFB395FBCF20E095
:1003900034E6E7DF18F0E2DFC395FBCF20E03AE078
:1003A000E0DF18F0DBDFD395FBCF412F0A2F1B2FA7
:1003B0002C2F3D2F08950F930AE00A95F1F70F9126
:1003C00008950F9303E10093600007EE009361002E
:1003D00002EF009362000FD00F9108950F9309E28E
:1003E000009360000FEF009361000EEF0093620036
:1003F00002D00F910895DF92EF92FF92F09060008B
:10040000E0906100D0906200DA94F1F7EA94D1F7BD
:0C041000FA94B1F7FF90EF90DF90089590
:00000001FF
