:020000020000FC
:020000002FC00F
:02000400AAC090
:0200080076C1BF
:0200100080C1AD
:02002400CBC04F
:100060000FE50DBF04E00EBFAA240FEFB02EBABA01
:10007000BBBAB7BA07E008BBB4BAA5BA03E001BB84
:100080000FE002BB06E005BF00EC0BBF01E409BFB7
:10009000B0E0AAE6AC923324789436FCA5D035FCC7
:1000A000DED034FC0AD133FCF1D032FC03D031FC79
:1000B00042D0F3CF032D0B7F302EF0E0E3E6019129
:1000C000019113EF1BBB31D00A7F0A600BBB2DD00F
:1000D0000191102F1B7F1B601BBB27D002950C7F4B
:1000E0000C600BBB22D00191102F1D7F1D601BBB2C
:1000F0001CD002950E7F0E600BBB17D00191067FBE
:1001000006600BBB12D00191102F177F17601BBB2D
:100110000CD00295087F08600BBB07D00191097FC6
:1001200009600BBB02D0BBBA089516D1C09821D18B
:10013000C09A12D10895032D0D7F302EF0E0E3E632
:100140000191019100FDC29A00FFC29801FDC19A80
:1001500001FFC198019105BB0895F8941F930F9377
:10016000BF93AF93DF93CF9318E00027DCD0E1D0AB
:1001700088948299089407951A95C9F7DAD0B0E067
:10018000AAE61C91173042F4D0E0C3E6C10F08F490
:10019000D395088313951C9300EE0ABF37FC06C065
:1001A000032D0068302EA2BE03E003BFCF91DF9184
:1001B000AF91BF910F911F91789418951F930F9352
:1001C000BF93AF93A3BE032D0F77302EB0E0AAE606
:1001D0000C91AC92073019F4032D0064302EAF91CE
:1001E000BF910F911F911895032D0F7B302EB0E01A
:1001F000A3E61C91153521F4032D0062302E0895DD
:10020000113141F4F0E0EBE606E00083032D0061DC
:10021000302E0895123141F4F0E0EBE603E0008364
:10022000032D0061302E0895123221F4032D046055
:10023000302E0895133321F4032D0260302E0895DB
:10024000153421F4C49ABCD0C49808950895555526
:10025000554F4B5555004552524F52525800032DA1
:100260000F7D302E27E0F2E0EEE4059118E0909843
:1002700060D000FD909A00FF909807955AD01A958B
:10028000C1F7909A56D02A9581F70895032D077FDC
:10029000302E27E0F2E0E6E5059118E0909849D08D
:1002A00000FD909A00FF9098079543D01A95C1F7EA
:1002B000909A3FD02A9581F70895032D0F7E302E16
:1002C000919864D0919A6FD0F0E0EBE62081F0E055
:1002D000E3E60191019118E091982BD000FD919AED
:1002E00000FF9198079525D01A95C1F7919A21D0D2
:1002F0002A9581F70895F8940F93839905C09098F3
:10030000A4BC03E005BD02C0909AA5BC0F917894EF
:100310001895F8940F93A5BC909A032D0860302E81
:100320000F91789418950F930EE00A95F1F70F91BD
:1003300008950F9308E20A95F1F70F9108950F932E
:1003400001E00093600001E00093610007E2009388
:10035000620050D00F9108950F9301E00093600068
:1003600006E0009361000CED0093620043D00F9112
:1003700008950F9301E0009360000CE0009361008A
:100380000CED0093620036D00F9108950F9301E0B9
:100390000093600008E1009361000CED009362009F
:1003A00029D00F9108950F9301E00093600005E1BB
:1003B000009361000EEF009362001CD00F9108952E
:1003C0000F9309E00093600008EE009361000FEFC7
:1003D000009362000FD00F9108950F9302E20093F3
:1003E00060000AEF009361000AEF0093620002D000
:1003F0000F910895DF92EF92FF92F0906000E090ED
:100400006100D0906200DA94F1F7EA94D1F7FA949F
:0A041000B1F7FF90EF90DF90089520
:00000001FF
