:020000020000FC
:060000002FC0E9C016C18B
:02001200DFC04D
:100060000FED0DBFAA240FEFB02E27D100E601BB84
:1000700000E102BBA2B801E009B9ABB808E40AB9D3
:1000800006E003B907E005BF00EC0BBF99278827FE
:100090007727662755274427F0E0E3E6A082F0E0C3
:1000A000E4E7A082F0E0E5E8A082F0E0E6E9A082E3
:1000B000F0E0E7EAA082F0E0E8EBA082F0E0E9EC13
:1000C000A0827894849B13D041FDFCCF11270FEFC1
:1000D0000395073009F4F6CF0717D1F3CED020816E
:1000E0002223B1F3902F8827426055D0EBCF969A08
:1000F000E4D096989927882777276627552744279D
:10010000F0E0E3E6A082F0E0E4E7A082F0E0E5E8DA
:10011000A082F0E0E6E9A082F0E0E7EAA082F0E069
:10012000E8EBA082F0E0E9ECA082F0E0E9EC0BE083
:10013000019303E5019304E7019301E6019302E7CC
:10014000019304E7019302E5019303E5019304E5BC
:1001500001930DE001930AE00193F0E0E3E60DE086
:10016000019305E4019306E6019301E6019302E79A
:10017000019304E7019302E5019303E5019304E58C
:10018000019304E5019305E401930DE001930AE076
:1001900001937395089541FF0895FF93EF932F9373
:1001A0001F930F93092F112768D02081222311F468
:1001B0004D7F09C02A952083182F5FD000815D9B59
:1001C000FECF0CB983950F911F912F91EF91FF9165
:1001D0000895E1DF189540FF1895FF93EF930F9373
:1001E0001F932F93583059F4552763956395072F24
:1001F000162F43D0112783991395108314C0839B26
:1002000011C0072F162F139538D0552309F4A0825B
:1002100020E80081152F112319F027951A95FBCF9F
:10022000020F008353952F911F910F91EF91FF9132
:100230001895829B1895839B1BC04E7F9598FF93C2
:10024000EF930F931F93072F112717D063956083A8
:100250007395773009F47727072F11270ED0008187
:10026000002309F0969A1F910F91EF91FF91189535
:100270004160959A662755271895003011F4F0E0F3
:10028000E3E6013011F4F0E0E4E7023011F4F0E0CD
:10029000E5E8033011F4F0E0E6E9043011F4F0E0B1
:1002A000E7EA053011F4F0E0E8EB063011F4F0E095
:1002B000E9ECE10F08F4F39508950F9309E000933A
:1002C000600008EE009361000FEF009362000FD012
:1002D0000F9108950F9302E2009360000AEF0093DC
:1002E00061000AEF0093620002D00F910895DF923F
:1002F000EF92FF92F0906000E0906100D090620079
:10030000DA94F1F7EA94D1F7FA94B1F7FF90EF900D
:04031000DF900895DD
:00000001FF
