:020000020000FC
:1000000017C01895189518951895D5C0B1C01895B2
:10001000189518951895DEC0189518951895189587
:06002000189518951895D3
:100030000FED0DBFAA240FEFB02E00E00ABB03E0C6
:100040000BBB0CE107BB00E008BB00E101BB0FE00C
:1000500002BB00E408B902E001B902E809BF01E00F
:1000600003BDA2BEA0BE01E003BF00E20BBF00E8DB
:1000700000BDFF246A2C7A2C8A2C9A2CF7D0B0E091
:10008000A3E6AD92AD92AC92B0E0A6E6AC92B0E041
:10009000A7E6AC9278943BD0F0FC0CD0F3FC01D0F6
:1000A000FACF949AE3D094980F930F2D077FF02EF8
:1000B0000F91089500916600109167000023C1F42C
:1000C0001330B1F4B0E0A3E60C913D911D912C9159
:1000D000010F021769F49498313011F4712E0DC09C
:1000E000323011F4812E09C0333011F4912E05C045
:1000F0000F930F2D0860F02E0F91A0926600A09232
:1001000067000F930F2D0E7FF02E0F9108958399A6
:1001100006C07B1459F1072D0395702E27C0C8998E
:1001200006C08B1419F1082D0395802E1FC08199EC
:1001300006C09B14D9F0092D0395902E17C0829903
:1001400006C0772099F0072D0A95702E0FC0C99927
:1001500006C0882059F0082D0A95802E07C0809986
:1001600006C0992019F0092D0A95902E65D00895A2
:10017000F8940F930FB70F931F93062D0395602EDE
:10018000662051F4772009F0C29A882009F0C39ABA
:10019000992059F0C49A09C0761408F4C2988614BC
:1001A00008F4C398961408F4C4981F910F910FBFD8
:1001B0000F9178941895F8940F930FB70F93AEBCE6
:1001C0000F930F2D0160F02E0F910F910FBF0F9124
:1001D00078941895F894B79B2DC00F930FB70F9391
:1001E000BF93AF931F932F93949A10916600009141
:1001F0006700B0E0A3E6A00FBA1D2C918894B599D2
:100200000894221F1395183011F4112703952C938D
:100210001093660000936700AEBC0CEF0DBD0FEDB0
:100220000CBD01E00EBD2F911F91AF91BF910F91B9
:100230000FBF0F91789418950F9302E00093600020
:1002400000EA0093610006EA009362001CD00F915F
:1002500008950F9309E00093600004EB00936100A0
:1002600004EA009362000FD00F9108950F9309E202
:10027000009360000FEF009361000EEF00936200A7
:1002800002D00F910895DF92EF92FF92F0906000FC
:10029000E0906100D0906200DA94F1F7EA94D1F72F
:0C02A000FA94B1F7FF90EF90DF90089502
:00000001FF
