:10000000AFC1C9C1C8C1C7C1C6C1C5C1C4C1C3C1CF
:10001000C2C11AC9C0C1BFC1BEC1BDC1BCC1BBC183
:10002000BAC1B9C1B8C1000000000000005F000003
:100030000007000700147F147F14242A7F2A12234C
:100040001308646236495522500005030000001C65
:100050002241000041221C00082A1C2A0808083EF0
:100060000808005030000008080808080030300078
:100070000020100804023E5149453E00427F4000E6
:1000800042615149462141454B311814127F1027D6
:10009000454545393C4A494930017109050336490E
:1000A000494936064949291E0036360000005636B1
:1000B00000000008142241141414141441221408DE
:1000C000000201510906324979413E7E1111117E2B
:1000D0007F494949363E414141227F4141221C7FAF
:1000E000494949417F090901013E414151327F0897
:1000F00008087F00417F41002040413F017F0814F4
:1001000022417F404040407F0204027F7F0408106C
:100110007F3E4141413E7F090909063E4151215E32
:100120007F09192946464949493101017F01013FAB
:100130004040403F1F2040201F7F2018207F631435
:100140000814630304780403615149454300007FA8
:100150004141020408102041417F000004020102D5
:1001600004404040404000010204002054545478B0
:100170007F484444383844444420384444487F3815
:1001800054545418087E090102081454543C7F0842
:1001900004047800447D40002040443D00007F106E
:1001A000284400417F40007C041804787C08040443
:1001B0007838444444387C14141408081414187C07
:1001C0007C080404084854545420043F4440203C14
:1001D0004040207C1C2040201C3C4030403C4428B7
:1001E0001028440C5050503C4464544C4400083691
:1001F000410000007F0000004136080000000000C0
:100200000000000000007E1111117E7F4545453938
:100210007F494949367F01010103C07E417FC07F8C
:100220004949494177087F087722494949367F2063
:1002300010087F7F2013087F7F08142241403E0171
:10024000017F7F0204027F7F0808087F3E41414111
:100250003E7F0101017F7F090909063E414141229C
:1002600001017F0101274848483F1E217F211E636D
:10027000140814637F40407FC00F1010107F7F4030
:100280007C407F7F407C40FF017F4848307F483082
:10029000007F7F48484830224949493E7F083E4117
:1002A0003E760909097F20545454787C54545424D0
:1002B0007C545454287C0404040CC078447CC0381A
:1002C000545454186C107C106C28445454287C20CE
:1002D00010087C7C2112087C7C10102844403804D3
:1002E000047C7C0810087C7C1010107C384444444A
:1002F000387C0404047C7C141414083844444420DE
:1003000004047C04040C5050503C18247C241844F1
:10031000281028447C40407CC00C1010107C7C408D
:1003200078407C7C407840FC7C545050207C5020AD
:10033000007C7C5050502028445454387C10384461
:1003400038483414147CE0FFFFE0ECFFE0EC1C00C4
:10035000FFFFFFE0E0FFFFECECECFF1515151500CB
:1003600011241FBECFE5D4E0DEBFCDBF10E0A0E674
:10037000B0E0E4E4F8E102C005900D92A83AB107BC
:10038000D9F710E0A8EAB0E001C01D92A43DB10782
:10039000E1F725D855CA34CE90989698919888EE72
:1003A00093E028EC30E0F9013197F1F70197D9F7A4
:1003B000919A88E893E128EC30E0F9013197F1F760
:1003C0000197D9F7909A8DE08A95F1F79098089562
:1003D000482F959896985091B100252F332727FDE7
:1003E000309590E02817390721F4552349F4442328
:1003F00039F4909A442311F4949801C0949A9098F7
:1004000080E067FF02C0969A01C09698959A9598E9
:100410008F5F883011F0660FF4CF0895BDDF80E064
:1004200061E0D6DF84EF91E028EC30E0F90131970C
:10043000F1F70197D9F780E066ECCADF80E991E037
:1004400028EC30E0F9013197F1F70197D9F780E016
:1004500069EBBEDF81E060E0BBDF80E066EBB8DF28
:1004600081E060E8B5DF81E064E0B2DF81E06AE866
:10047000AFDF81E064E5ACDF81E065E4A9DF81E026
:1004800062E5A6DF81E063E4A3DF80E063EBA0DF49
:1004900081E062E09DDF81E06AE09ADF81E065E172
:1004A00097DF81E06FE194DF81E068E291DF81E036
:1004B00060E38EDF81E067E38BDF81E06FE388DF5D
:1004C00081E067E485DF81E06CE482DF81E064E560
:1004D0007FDF81E065E67CDF81E065E779DF81E051
:1004E00060E876DF81E065E873DF80E065EB70DF70
:1004F00081E061E06DDF80E067EB6ADF81E060E072
:1005000067DF81E060E064DF81E060E061DF81E07F
:1005100060E05EDF81E060E05BDF81E060E058DFAB
:1005200081E060E055DF81E060E052DF81E060E083
:100530004FDF81E060E04CDF81E060E049DF81E097
:1005400060E046DF81E060E043DF81E060E040DFC3
:1005500080E06DEB3DDF81E060E03ADF80E066E364
:1005600037DF81E068E434DF80E06DE231DF81E095
:1005700060E02EDF81E063E02BDF81E065E028DFD3
:1005800081E067E025DF81E069E022DF81E06BE068
:100590001FDF81E06DE01CDF81E06FE019DF81E0AB
:1005A00060E016DF81E063E013DF81E065E010DFEB
:1005B00081E067E00DDF81E069E00ADF81E06BE068
:1005C00007DF81E06DE004DF81E06FE001DF81E0C3
:1005D00060E0FEDE81E065E0FBDE81E06BE0F8DEFE
:1005E00081E06FE0F5DE80E06AEBF2DE81E06FE251
:1005F000EFDE81E063E0ECDE80E065E2E9DE81E0F1
:1006000061E6E6DE80E06EEBE3DE81E068E5E0DEF9
:1006100080E06AE3DDDE81E062E0DADE80E063E074
:10062000D7DE80E991E028EC30E0F9013197F1F76D
:100630000197D9F780E061E1CBDE80E49CE9019786
:10064000F1F780E069E2C4DE0895EF92FF920F9324
:100650001F93F82EE62E142F022F80E06AE2B8DEF8
:1006600081E06F2DB5DE81E06E2DB2DE80E06BE2C1
:10067000AFDE1F5F81E0612FABDE0F5F81E0602F97
:10068000A7DE80E06CE2A4DE1F910F91FF90EF9057
:1006900008951F93982F262F142F692F422FD5DFEF
:1006A00081E0612F95DE1F9108952F923F924F9226
:1006B0005F926F927F928F929F92AF92BF92CF92F2
:1006C000DF92EF92FF920F931F93DF93CF9300D0AF
:1006D00000D000D0CDB7DEB7982F262E342E59018A
:1006E000F02E19821A821B821C821D821E8287FDB7
:1006F00090541A8285E0989F2001112481016F2C6B
:10070000772467FC70948E2C992487FC9094A0C069
:100710008A81F201E80FF11DEA57F040E491E98384
:100720001C8274C08AE5C816D104A1F08BE5C816F6
:10073000D10424F4C114D10459F00DC084EBC816BF
:10074000D10431F08EE0C81681E0D80621F402C051
:10075000132D01C0022D81E08E831B8250C01D82AB
:100760002AC08AE5C816D104C9F08BE5C816D104A1
:1007700024F4C114D10459F01BC084EBC816D10471
:1007800031F08EE0C81681E0D80691F407C0998157
:100790008E81892369F08C816D8106C099818E815B
:1007A000892331F08D816C81610F800FA50171DF8C
:1007B0008D818F5F8D838D8190E08815990589F6F5
:1007C0008E81880F8E838AE5C816D104A1F08BE54F
:1007D000C816D10424F4C114D10459F00DC084EB1F
:1007E000C816D10431F08EE0C81681E0D80621F495
:1007F00002C01E0D01C00E0D8B818F5F8B838B811C
:10080000883008F4ACCF8C818F5F8C838C8190E032
:100810008615970509F086CF8AE5C816D104A1F0A0
:100820008BE5C816D10424F4C114D10459F00DC0CD
:1008300084EBC816D10431F08EE0C81681E0D806EA
:1008400021F402C00F0D01C01F0D8A818F5F8A83C2
:100850008A81853008F45CCF26960FB6F894DEBF07
:100860000FBECDBFCF91DF911F910F91FF90EF9001
:10087000DF90CF90BF90AF909F908F907F906F90C0
:100880005F904F903F902F900895BF92CF92DF924C
:10089000EF92FF920F931F93CF93DF93B82E162FF3
:1008A000F42EE901002309F401E0EE2011F4EE2416
:1008B000E3948AE5C816D104D1F08BE5C816D104BB
:1008C00024F4C114D10459F043C084EBC816D104F8
:1008D000F1F08EE0C81681E0D806D1F529C08B2D45
:1008E000612F4F2D9E01CC24DD24DFDE42C080E04D
:1008F00066E36EDD81E068E06BDD83E0F80E8B2D52
:100900006F2D412F9E017AE5C72ED12C2BC01D5F84
:1009100082E0F80E80E066E35BDD81E068E858DDA8
:100920008B2D612F4F2D9E0154EBC52ED12C1AC05B
:1009300080E066E34DDD81E068EC4ADD1E5F8B2DD3
:100940006F2D412F9E019EE0C92E91E0D92E0AC045
:1009500080E066E33DDD81E068E43ADD8B2D612FC8
:100960004F2D9E01A2DE80E066E332DD81E068E487
:100970002FDDDF91CF911F910F91FF90EF90DF90CE
:10098000CF90BF9008952F923F924F925F926F92B7
:100990007F928F929F92AF92BF92CF92DF92EF920F
:1009A000FF920F931F93DF93CF930F92CDB7DEB7D4
:1009B0003C01462E542E4901902FFE2C5601002357
:1009C00009F491E0FF2011F4FF24F39486E09802EB
:1009D0001001112410E011C0229DB001239D700D63
:1009E000329D700D1124640D452D9401092FEF2CBB
:1009F000650199834ADF1F5F9981212F30E0F30160
:100A0000E20FF31F8081882339F70F90CF91DF9198
:100A10001F910F91FF90EF90DF90CF90BF90AF901C
:100A20009F908F907F906F905F904F903F902F900E
:100A300008951F93CF93DF93182F80E064E640E082
:100A400020E503DEC0E0D0E081E0612FC1DC21962B
:100A50008FE1C039D807C1F7DF91CF911F91089579
:100A60002F923F925F926F927F928F929F92AF925E
:100A7000BF92CF92DF92EF92FF920F931F93DF937B
:100A8000CF9300D000D000D0CDB7DEB71C830B834E
:100A9000C82EDD24C7FCD094E42FFF27E7FDF09596
:100AA000EC19FD09FE83ED83E62EFF24E7FCF094AC
:100AB000422F552747FD50954E195F09EF2B39F40A
:100AC0004115510509F465C08824992412C02D816F
:100AD0003E8137FD04C0A1E08A2E912C0AC08D8191
:100AE0009E81909581959F4F9E838D8388248A94C3
:100AF000982C57FD04C0F1E06F2E712C06C0509564
:100B000041955F4F66246A94762CED81FE81E4174F
:100B1000F5071CF05524539406C0CA014D815E812F
:100B20009E838D8355241A01220C331C81012D8153
:100B30003E81021B130BA801421B530B5A834983AE
:100B4000AA24BB241FC08C2D6E2D4B815C81A1DD9E
:100B5000552019F0C80CD91C02C0E60CF71C17FF71
:100B600003C0020D131D0BC089819A81080F191F44
:100B7000552019F0E60CF71C02C0C80CD91C0894CB
:100B8000A11CB11CED81FE81AE16BF06E4F28C2DD6
:100B90006E2D4B815C817DDD26960FB6F894DEBF0D
:100BA0000FBECDBFCF91DF911F910F91FF90EF90BE
:100BB000DF90CF90BF90AF909F908F907F906F907D
:100BC0005F903F902F9008958F929F92AF92BF9227
:100BD000CF92DF92EF92FF920F931F93CF93DF9309
:100BE000C82ED62EA42EB22ECA94AC0CC394DA947E
:100BF000BD0CD394C1E0D0E0802E992487FC909462
:100C00001AC08C2D6D2D4C2D2B2D870129DF8A2D9F
:100C10006D2D4A2D2B2D24DF8C2D6D2D4A2D2D2D44
:100C20001FDF8C2D6B2D4A2D2B2D1ADFC394D394EF
:100C3000AA94BA9421968C169D0618F7DF91CF914D
:100C40001F910F91FF90EF90DF90CF90BF90AF90EA
:100C50009F908F900895EF92FF920F931F93CF93E1
:100C6000DF93962FF42E122FE02E682F6150640F21
:100C7000292F2150210F492FE8DC8F2D18028001E8
:100C80001124C0E0D0E007C081E06E2DA1DB81E03F
:100C90006E2D9EDB2196C017D107B0F3DF91CF9167
:100CA0001F910F91FF90EF900895CF92DF92EF92F6
:100CB0000F931F938FEF90E0BCDE85E069E343E084
:100CC00025E003E010E0C7DF85E062E443E02AE0CE
:100CD000C2DF8AE06FE34AE022E4C2DE8DE06CE32B
:100CE0004DE025E4BDDE80E169E340E128E4B8DEC3
:100CF00082ED69E144E423E030E002E0EE24E39495
:100D0000CC24DD24C2DD1F910F91EF90DF90CF90B6
:100D10000895EF92FF920F931F93CF93DF93C6E452
:100D2000D3E093E0899F70011124F7013296EC0F14
:100D3000FD1FE49185E065E04FE02FE00E2F10E00D
:100D40008ADFF7013196EC0FFD1FE49185E065E144
:100D50004AE02FE00E2F7FDFCE0DDF1DFE01049154
:100D600085E065E245E02FE076DFDF91CF911F91CE
:100D70000F91FF90EF900895AF92BF92CF92DF92C4
:100D8000EF92FF920F931F93CF93DF939FE4A92ECF
:100D900093E0B92EC82FD0E06E01CC0CDD1CCC0C3A
:100DA000DD1CF501EC0DFD1D149183E265E04DE2C3
:100DB00029E102E0E12EFF2407DF80E26CE044E05D
:100DC00029E0012F10E047DF83E090E0C80ED91E34
:100DD000F501EC0DFD1DE49187E269E04BE020E1B7
:100DE0000E2F39DFCC0FDD1FCC0FDD1F2296CA0D71
:100DF000DB1DFE01049184E369E04BE020E12BDF81
:100E00008EEF9FEFC80ED91EAC0CBD1CF5010491EE
:100E100081E469E04BE020E11EDF8CEC65E54AE00F
:100E200023E030E002E0B2E0EB2ECC24DD242DDD27
:100E3000DF91CF911F910F91FF90EF90DF90CF90B6
:100E4000BF90AF900895AF92BF92CF92DF92EF9292
:100E5000FF920F931F93CF93DF93EFE4AE2EE3E067
:100E6000BE2EC82FD0E06E01CC0CDD1CCC0CDD1CDE
:100E7000F501EC0DFD1D149183E263E24DE229E1E1
:100E800002E0E12EFF24A0DE80E26AE244E029E0F5
:100E9000012F10E0E0DE83E090E0C80ED91EF501DE
:100EA000EC0DFD1DE49187E267E24BE020E10E2F9F
:100EB000D2DECC0FDD1FCC0FDD1F2296CA0DDB1D4D
:100EC000FE01049184E367E24BE020E1C4DE8EEF93
:100ED0009FEFC80ED91EAC0CBD1CF501049181E436
:100EE00067E24BE020E1B7DE83ED65E548E223E011
:100EF00030E002E052E0E52ECC24DD24C6DCDF91B8
:100F0000CF911F910F91FF90EF90DF90CF90BF9006
:100F1000AF900895CF92DF92EF920F9383E090E02D
:100F200088DD80E690E064E170E04FE050E02FEF74
:100F300030E002E0F2E0EF2ECC24DD2424DD0F913E
:100F4000EF90DF90CF900895FF920F931F93CF9370
:100F5000DF93F62EC82F80FD10C0662339F48CE491
:100F600061E444E02AE00FEF10E00DC08CE461E49E
:100F700044E02AE003E010E006C08CE461E444E0D1
:100F80002AE005E110E067DEC1FD10C0FF2039F462
:100F900082E561E444E02AE00FEF10E00DC082E555
:100FA00061E444E02AE003E010E006C082E561E489
:100FB00044E02AE005E110E04EDEC2FD10C0FF2053
:100FC00039F488E561E444E02AE00FEF10E00DC059
:100FD00088E561E444E02AE003E010E006C088E52B
:100FE00061E444E02AE005E110E035DEC3FD10C015
:100FF000FF2039F48EE561E444E02AE00FEF10E0D1
:101000000DC08EE561E444E02AE003E010E006C094
:101010008EE561E444E02AE005E110E01CDEDF91AA
:10102000CF911F910F91FF900895DF93CF9300D040
:1010300000D0CDB7DEB797B1987F97B927B190E0D0
:10104000FC01EE0FFF1FE80FF91FEA59FF4F8281E5
:10105000282B9081990F990F922B8181880F892BD2
:1010600087B9369A3699FECF662319F424B135B183
:1010700014C084B1898385B18A838A8129812695A8
:10108000269590E0A6E0880F991FAA95E1F7820FB8
:10109000911D9C838B832B813C81C9010F900F9004
:1010A0000F900F90CF91DF910895EF92FF920F93E1
:1010B0001F93CF93DF93CAEAD0E0EE248E2D61E038
:1010C000B4DF082F8E2D61E0B0DFF82E8E2D61E0A9
:1010D000ACDF10E00F0D111D9801280F311DC90163
:1010E00063E070E065D36993E39434E0E31631F78D
:1010F000DF91CF911F910F91FF90EF900895EF92A4
:10110000FF920F931F93DF93CF93CDB7DEB72A974C
:101110000FB6F894DEBF0FBECDBF1A827E010894D1
:10112000E11CF11C10C08A81082F10E084E060E00F
:101130007CDF000F111F0E0D1F1DF80195838483A6
:101140008A818F5F8A838A81833068F34D815E81D3
:101150008F81988529853A85840F951F820F931F6B
:1011600063E070E011D37C836B8319822CC08B8188
:101170009C81895E934018F01092BC0021C08B8145
:101180009C81E981F0E0EE0FFF1FE857FF4F2081BF
:1011900031812A5030402817390790F48B819C8187
:1011A000E981F0E0EE0FFF1FE857FF4F208131810A
:1011B000265F3F4F8217930718F489818093BC0004
:1011C00089818F5F89838981803188F22A960FB661
:1011D000F894DEBF0FBECDBFCF91DF911F910F916D
:1011E000FF90EF900895DF93CF930F92CDB7DEB7C6
:1011F00087E060E01ADF9093B0008093AF008091A9
:10120000AF009091B0008C3C910510F4198214C08D
:101210008091AF009091B0008F3D910510F481E076
:101220000AC08091AF009091B0008B3E910510F400
:1012300082E001C083E0898389810F90CF91DF91A3
:1012400008958091BD0008951F920F920FB60F92DE
:1012500011248F938091B2008C3341F48091C500AA
:101260008F5F8093C5001092B20005C08091B200DC
:101270008F5F8093B2008F910F900FBE0F901F90E1
:10128000189512BA8FEF81BB17B886E886B983B775
:10129000856083BF89B7816089BFC0D806DD1FD153
:1012A00080E29EE428EC30E0F9013197F1F70197F4
:1012B000D9F781E068E0D8D183E890E050D28EE79A
:1012C00090E05BD278940895CF92DF92EF920F93E3
:1012D0001F938091C500833089F0843020F48130E1
:1012E00009F077C006C0853069F0873009F071C019
:1012F00025C08091BD0040DD82E01DC074DFA3DD0C
:1013000084E019C08091C6009091C700049710F442
:1013100082E00FC08091C6009091C7000A9710F438
:1013200081E007C08091C6009091C7000B9710F034
:1013300080E0EFDC86E08093C5004BC08091C00068
:1013400090E09093B4008093B3008091B3009091AB
:10135000B400982F88279093B4008093B300209115
:10136000B3003091B4008091BF0090E0822B932BAA
:101370009093B4008093B3008091B3009091B40037
:1013800034E0959587953A95E1F79093B400809372
:10139000B3008091B3009091B40066EB70E04AE036
:1013A00050E019D286E264E44EE12AE00FEF10E04B
:1013B00052DC86EB90E066E270E044E450E020EE20
:1013C00030E002E0EE24E394CC24DD24DCDA109259
:1013D000C5001F910F91EF90DF90CF9008950F936C
:1013E0001F93CF93DF934DDFC0E6DAEE01E05DDEC1
:1013F00086DE8091AA008093C8008091AB00809324
:10140000C9008091AC008093CA008091AD008093A8
:10141000CB008091BC008093CC00EBD088EC90E0B6
:10142000EFD098D08823E9F75DD190E09093C70082
:101430008093C600FAD0CE010197F1F7B19906C0AA
:1014400073D1882319F08DEB90E0FCD08091C1001E
:101450008093AE008091BC006091AE0075DD8091FC
:10146000AE00882379F48091AE00882349F410916E
:10147000B500113029F419DC1092D2001093C50088
:1014800023DF07C08091D200882309F443DD009355
:10149000D2008091AE008093B500A9CF882311F0CF
:1014A000C09A0895C0980895882311F0C29A0895AB
:1014B000C2980895882311F0C59A0895C598089593
:1014C000882311F0C39A0895C398089586B390E0D5
:1014D00024E0969587952A95E1F781700895B9984B
:1014E000B89ABA9ABD9ABB9ABC98C098C29A089505
:1014F0008091D3000895C59840E027E030E0682F40
:1015000070E0CB01022E02C0959587950A94E2F710
:1015100080FF02C0C39A01C0C398C59A440FB49912
:101520004160C598215030408FEF2F3F380749F771
:10153000842F0895C2988FEFDEDFC29A0895FADFF4
:1015400085FF02C080E0089584FD02C08FEF0895FA
:1015500081E00895EFDF90E0807309F491E0892F36
:101560000895C29880E6C7DF80E0C5DF0895DF9266
:10157000EF92FF920F931F93CF93DF937B01D42EB3
:101580008C01C0E0D0E009C0F80181918F01B3DF88
:10159000F701EC0FFD1F80832196CD15A8F3DF9195
:1015A000CF911F910F91FF90EF90DF9008950F93CF
:1015B0001F93CF93DF93062FEC0110E003C08991B6
:1015C0009ADF1F5F1017D8F3DF91CF911F910F9112
:1015D00008951F93162FC2988F7180628CDF812F20
:1015E0008ADFC29A1F910895C09880E068E0F1DF19
:1015F000089587E060E7EDDF80E06AE0EADF0895C4
:101600000F931F938C01C098F4DFC29881EE73DFB3
:10161000C29AC29880EA6FDFC8016091D300C7DF29
:10162000C29AC09A1F910F910895C29882EE63DF0B
:10163000C29A87E060E7CDDFC09880E06BE0C9DF49
:10164000C09A08950F931F938C01C29881E653DFCF
:10165000C801B8014091D3008ADFC29A87E060E4F4
:10166000B8DF1F910F910895982F6093D30085E004
:10167000692FAFDF81E160E0ACDF82E16091D300F0
:10168000A8DF83E160E0A5DF84E160E0A2DF85E11F
:1016900060E09FDF86E160E09CDF86E066E299DF44
:1016A00080E068E096DF81E063E093DF82E063E062
:1016B00090DF84E06FE48DDF8CE160E08ADFB5DFEE
:1016C0000895FF920F931F938B01F42EC2988F7190
:1016D00012DFC801B8014F2D4ADFC29A1F910F9146
:1016E000FF900895DF93CF930F92CDB7DEB788E0D8
:1016F000BE016F5F7F4F41E0E4DF89818F700F9003
:10170000CF91DF910895DF93CF930F92CDB7DEB7DE
:1017100087E1BE016F5F7F4F41E0D3DF8981817038
:101720000F90CF91DF91089505DF86FD04C0EBDFB8
:1017300090E0882309F491E0892F0895FF920F9398
:101740001F938B01F42EC2988F718062D4DEC80182
:101750006F2D2DDFC29A1F910F91FF9008950F9367
:101760001F938C018AE0B80145E0E8DF80E1B80111
:1017700045E0E4DF1F910F910895BC01C0988BE014
:1017800045E0DCDFC09A0895AA1BBB1B51E107C0EE
:10179000AA1FBB1FA617B70710F0A61BB70B881F01
:1017A000991F5A95A9F780959095BC01CD01089590
:1017B00097FB092E07260AD077FD04D0E5DF06D077
:1017C00000201AF4709561957F4F0895F6F7909573
:1017D00081959F4F0895E62FF72F2E2F3F2FE894E6
:1017E0004230C4F04532B4F44A3029F497FB1EF479
:1017F000909581959F4F642F7727C6DF805D8A3350
:101800000CF0895D8193862F972F0097A1F716F42E
:101810005DE251931082822F932F00C0A82FB92F21
:10182000E82FF92F672F71917723E1F7329704C0E2
:101830007C916D9370836291AE17BF07C8F30895D2
:04184000F894FFCF4A
:10184400D2E5F7FC210000000000000100010000C7
:101854000101010000010001010100010101D7D7CC
:10186400D7D7D7E7E7E7E7E7FD035301FD01000119
:10187400B80226019D01E50045033D01CC01F200BB
:081884005E0214017C01D90091
:00000001FF
