:100000001AC027C026C025C046C023C057C021C083
:1000100020C01FC01EC01DC01CC01BC01AC019C0FC
:1000200018C017C016C015C014C0D714CD5D1E5B14
:10003000DB15DF5F088F11241FBECFEDCDBF10E0B1
:10004000A0E6B0E001C01D92A437B107E1F70AD2E3
:10005000C2C2D6CF479A93E09ABB1BBA8FEF87BB39
:1000600018BA81B3826781BB81B3827F81BB8CE781
:1000700082BB10BE89B7826089BF84E083BF1DBC8C
:100080001CBC1FBC9EBD1BBC80E88ABD89B78064B8
:1000900089BF789408951F920F920FB60F92112482
:1000A0008F931DBC1CBC80916000816080936000B8
:1000B0008F910F900FBE0F901F9018951F920F9267
:1000C0000FB60F9211248F93809160008860809307
:1000D00060008F910F900FBE0F901F9018959C019C
:1000E00064E670E034D260937200C90164E670E0A7
:1000F0002ED29C016AE070E02AD260937100C9019F
:100100006AE070E024D2809370008091600082FFEA
:1001100003C08BE0809372000895809165008F5F2B
:100120008093650080916500833011F41092650022
:1001300018BA80916500813041F0813018F082302A
:1001400049F406C0969A959805C0959A949802C06D
:10015000949A969880916500823021F48091720083
:10016000882359F0E0916500F0E0E059FF4FE0810D
:10017000F0E0E65DFF4FE491E8BB089580B38C703A
:100180008C3059F4109266001092640080916100E6
:1001900082FF2DC0109261000895809166008F5FEC
:1001A00080936600809166008F3198F080916600A0
:1001B0008B3F78F4839905C08091610081608093C2
:1001C0006100829914C08091610082608093610017
:1001D0000895809166008B3F50F0809161008860A7
:1001E000809361008091660081508093660008953D
:1001F000982F8091600082FF1EC0992371F4809136
:1002000073008F5F8093730080917300853108F4D1
:1002100042C084E18093730008959130E1F58091AC
:10022000730081508093730080917300882399F547
:100230009093730008959923B9F480916E00909182
:100240006F00019690936F0080936E0080916E0016
:1002500090916F0081599140F0F080E991E0909386
:100260006F0080936E0008959130A9F480916E0024
:1002700090916F00019790936F0080936E00809132
:100280006E0090916F00449730F484E190E0909379
:100290006F0080936E0008951092630010926200C8
:1002A0008091610080FF09C08091610081FF05C0DD
:1002B000809160008460809360008091600081FD87
:1002C0000FC0109263001092620080916000826003
:1002D000809360008091610084608093610034C0ED
:1002E0008091610083FD15C08091610082FD11C085
:1002F0008091610080FF02C080E07ADF8091610020
:1003000081FF02C081E074DF80916100846080938E
:1003100061008091610083FF17C0809164008F5F4E
:100320008093640080916400863970F010926400BC
:100330008091610080FF02C080E05ADF80916100FF
:1003400081FF02C081E054DF8091600082FF04C021
:100350008091730090E004C080916E0090916F00D6
:10036000BEDE0895919880E120E030E006C0D99A81
:10037000220F331F80992160D9988150C0F7919A3C
:10038000C90186709078892B21F080E090E022E00E
:100390000DC0C90125E0969587952A95E1F723E0E0
:1003A000883E920710F023E001C021E020936D0009
:1003B00090936C0080936B00089580916D00813064
:1003C00081F480916E0090916F0020916B003091CC
:1003D0006C0060917300821B930B70E0A6D097FFB6
:1003E00003C01092680008958F3F910511F00CF042
:1003F0008FEF809368000895809167008F5F8093EE
:100400006700809167008F3F09F4D7DF8091680013
:10041000882311F4D8980895809167008111D89AA3
:100420009091670080916800891708F4D898089522
:100430006091730082E090E0A9D060916E007091AD
:100440006F0080E090E0B4D0089582E090E093D017
:100450008093730080E090E096D090936F0080933B
:100460006E0008951F93F6DDF0DF1AE080916000C2
:1004700080FF50C08091690090916A00019690932E
:100480006A00809369008091690090916A00885E9B
:10049000934029F410926A001092690063DF809102
:1004A000600081FF1CC08091620090916300019602
:1004B000909363008093620080916200909163004A
:1004C000885B9B40E0F0809160008D7F80936000AE
:1004D000809160008B7F80936000AADF10C08091C4
:1004E0006D00813031F480916B0090916C00F7DDEC
:1004F00006C01093700010937100109372003EDEDE
:10050000809161008111C8DE08DE809160008E7FDD
:10051000809360008091600083FFA8CF6DDF8091A1
:100520006000877F80936000A1CF5527002480FF63
:1005300002C0060E571F660F771F6115710521F067
:1005400096958795009799F7952F802D0895AA1B6A
:10055000BB1B51E107C0AA1FBB1FA617B70710F0AE
:10056000A61BB70B881F991F5A95A9F780959095E0
:10057000BC01CD010895E199FECF1FBA8EBBE09A70
:1005800099278DB30895A8E142E018C0262FE1997C
:10059000FECF1FBA8EBBE09A81500DB2021639F021
:1005A0001CBA2DBB0FB6F894E29AE19A0FBE0895DB
:1005B0000196272FECDFEACFA82F862FE82FE199AD
:1005C000FECF1FBA05C0EEBBE09AE3950DB20D92C7
:0A05D0004150C8F70895F894FFCFDA
:00000001FF
