:020000020000FC
:1000000017C01895189518951895189556C122C1BE
:1000100018951895189564C1189518951895189500
:06002000189518951895D3
:100030000FED0DBFAA240FEFB02E00EC07BB00E0C0
:1000400008BB04E101BB00E002BB00E408B902E028
:1000500001B9A2B809E109B9ABB808E90AB906E0E3
:1000600003B902E009BF00E20BBFB0E0A3E6AC9227
:10007000EE24FF24DD247894B0E0A3E601E00D93A4
:1000800001E70D931FD0B0E0A3E601E00D9300EE71
:100090000D9318D0EE2061F0F89445D1929AB5D125
:1000A000B4D19298B0E0A3E6AC92EE24DD2478942B
:1000B000F7FC08D0F6FE05C0DD2009F065D0F1FCA4
:1000C000B6D0E8CFB0E0A3E69D918D91913009F0D4
:1000D00048C0082F007E003E61F40F930F2D00648E
:1000E000F02E0F91949A00E1DD24CC246AD100BD5A
:1000F00042C0082F007F003119F4082F5DD13BC0AA
:10010000883019F4082F52D136C0082F007C0038EF
:1001100019F4082F51D12FC0823019F4082F46D17D
:100120002AC0082F007C003419F4082F45D123C0C1
:10013000082F0C7F043019F4082F38D11CC0863CDE
:10014000A9F4082FFED003D129D10F930F2D0064FD
:10015000F02E0F91949A00E1DD24CC2432D100BD21
:100160000AC0082F007E003C09F405C00F930E2D35
:100170000064E02E0F91B0E0A3E6AC920F930F2D38
:100180000F77F02E0F9108959D2D9832C0F4B0E0B6
:10019000A4EB9D918C91882311F055D046C09031ED
:1001A00019F401E4F02E41C0903239F4F8940F9321
:1001B0000F2D0260F02E0F9138C045D036C0943319
:1001C00010F441D032C09E3450F4F5FC06C00F93B9
:1001D0000F2D0062F02E0F9128C0E8940AC09437CA
:1001E00010F431D022C09E3810F4689402C02BD095
:1001F0001CC00F930F2D0F7DF02E0F91B0E0A4EBDC
:100200009D918C91B0E0A4E7A90FBA1D0C91889440
:100210000EF40894001F0C938395883011F48827FE
:100220009395B0E0A4EB9D938C93DD240895929A6E
:1002300010E2D0E0C4E7099180D01A95E1F703D02D
:10024000929878940895B0E0A4EBAD92AC9201E45A
:10025000F02E0895F8941F93BF93AF930F930FB7A9
:100260000F93A3BE0CB1F7FC20C0F6FE0AC0C79ADC
:10027000A0BC0F930F2D0F7BF02E0F9194989298A6
:1002800014C0B0E0A3E61C911395103129F01C9323
:10029000A10FBA1D0C9306C00F930E2D0068E02E1F
:1002A0000F9103C0A2BE03E003BF0F910FBF0F91D8
:1002B000AF91BF911F9178941895F8940F930FB751
:1002C0000F93A3BEF6FC06C00F930F2D0068F02E0F
:1002D0000F9101C0CB2C0F910FBF0F9178941895FF
:1002E000F8949F930F930FB70F93F6FE0FC092B73A
:1002F000A2BE03E003BF9A3048F0DD2031F00F9337
:100300000E2D0160E02E0F9101C0D92E0F910FBF6D
:100310000F919F91789418950F930FE40ED00BE4F2
:100320000CD00F9108950F9305E407D002E505D096
:1003300004D00E2D02D00F9108955D9BFECF0CB915
:100340000895C698C79A4ED0C69A4CD008951F9368
:100350000F9318E0C79846D007FDC69A07FFC698C6
:10036000000F40D0C79A3ED03DD0C7983BD01A95D9
:1003700099F70F911F9108951F93002718E0C798D0
:1003800031D030D0C79A2ED0000FB49901602AD056
:10039000C79828D01A95A9F71F910895C69A22D018
:1003A000C79A20D01FD0C6981DD00895CADFCFDFCE
:1003B000E3DFF4DFC2DF0895C4DFC9DFEFDFACDFC6
:1003C00008951F93BEDF13E0C7980CD0C69A0AD0D9
:1003D000C79A08D007D0C79805D01A95C1F7C69814
:1003E0001F9108950F930AE00A95F1F70F91089570
:1003F0000F9303E10093600007EE0093610002EFAA
:10040000009362000FD00F9108950F9309E20093BB
:1004100060000FEF009361000EEF0093620002D0C6
:100420000F910895DF92EF92FF92F0906000E090BC
:100430006100D0906200DA94F1F7EA94D1F7FA946F
:0A044000B1F7FF90EF90DF900895F0
:00000001FF
