:1000000020308400763008208F2D04068001840A79
:100010000406031D05286400003483120313F60050
:10002000F71B1B28771B232877088A007608F60A17
:100030000319F70A82008313771883177608F60AE4
:100040008400000808000D346E34523446343934CC
:100050003034353420345234653463346534693493
:100060007634653472342034443465346D346F34FE
:100070003A340A3400347234653463346534693494
:1000800076346534643420347034613463346B34D2
:1000900065347434203469346E3420346D34613402
:1000A00069346E34283429340A34003443346834D3
:1000B00061347234613463347434653472343A3484
:1000C00020342534633420340A34003482070A345F
:1000D00001340E34443420342034CC34CC34CC3489
:0400E000CC34583490
:10098E000030032E830187120800D124E400D62400
:10099E006408080083018C1ED12C1A0808008301FC
:1009AE00F500831203130C1ED82C7508990008004D
:1009BE00F90000307A1879070310F90D0310FA0CBC
:1009CE00FA0803190800E12C8301E4000430E50065
:1009DE005330E600E60BF12CE50BEF2CE40BED2C7F
:1009EE0008008301A201012DA30D0617061AA30A02
:1009FE000613A20A08302202031CFB2C230808004F
:100A0E008301071783160713831206138316061323
:100A1E0087130616871207128711051685160515F8
:100A2E00831208008301EA00A100A001282DA11F56
:100A3E00222D8717232D871306170310A10D0613DA
:100A4E00A00A08302002031808001E2D8301871605
:100A5E00871107164330E700E70B332D4330E700CD
:100A6E00E70B372D4330E700E70B3B2D1130E70046
:100A7E00E70B3F2D0800FD01FE010310FC0CFB0CE3
:100A8E00031C502D7908FD077A0803187A0AFE0711
:100A9E000310F90DFA0D7B087C0403190034442D64
:100AAE0083010712071324301925E701F824E80003
:100ABE006708243E8400831368088000E70A20300C
:100ACE006702031C5D2D0713051D851A6B2D071676
:100ADE000800830187160712071300301925E70156
:100AEE00892D6708E800E9010130E8070318E90AD3
:100AFE006908003EF7006808673E0318F70A0D20E4
:100B0E001925E70A67206702031C782D07170800CE
:100B1E00831203179E019F01831603130F148B017B
:100B2E00072570252D2583168616861319309900F4
:100B3E00903083129800243083169800233083124D
:100B4E00E8000030E900C724051DAB2D57253B30CA
:100B5E00E8000030E900C724E4015630E800003018
:100B6E00E9006408243E840083130008E500E601D2
:100B7E006530E700C724E40A203064020318AB2D69
:100B8E00B42D8301871687150712071322301925F6
:100B9E00E4016408E600E7010630E6070318E70AF9
:100BAE006708003EF7006608673E0318F70A0D2037
:100BBE001925E40A04306402031CD02D0717E40142
:100BCE00E40AC8306402031CE72D071320301925F0
:100BDE00E4016408443E8400831300081925E40AE6
:100BEE0020306402031CF02D071707160730E500AE
:100BFE00E50BFF2D071208008301F000ED016708D9
:100C0E00EB00B22F6F08253A031DA52FFF30EC0025
:100C1E00EE01EA016F2FF0080319192E70088400F7
:100C2E00831380016D0808000230EB076B0284000D
:100C3E0083130008A32FEA0A282E0830EC07FE3093
:100C4E00EC070230EB076B02840083130008F100FF
:100C5E00840A0008F2006A18F21F3C2EF109F2090C
:100C6E00F10A0319F20AEE033D2EEA010B30EC07EE
:100C7E006C08FB00FC017208FA007108F900C62727
:100C8E007908EF006C08FB00FC017108F90072088E
:100C9E00FA00C6277D08F1007E08F200F301F30A80
:100CAE00F40174087202031D5E2E73087102031C98
:100CBE007B2E6C08FB00FC017308F9007408FA0027
:100CCE0042257D08F3007E08F400EE03582EED0A4F
:100CDE00F0080319792E70088400831320308000E9
:100CEE00F00A7B2E2030D624EE036E08803A7F3E2B
:100CFE0003186E2E6A1C8E2EED0AF00803198C2E28
:100D0E007008840083132D30BF2E2D30D6246C082E
:100D1E00FB00FC017308F9007408FA00C6277D0871
:100D2E00F3007E08F40073040319C52E7408FC004A
:100D3E007308FB007208FA007108F900C6277D08D7
:100D4E00F9007E08FA006C08FB00FC01C627790842
:100D5E00EE00803A763E031CB62E0730EE07ED0A03
:100D6E00F0080319C22E7008840083136E08303EFB
:100D7E008000F00A8E2E6E08303E8D2E0A306F02E5
:100D8E00031CCB2E0730EF07ED0AF0080319D52E02
:100D9E007008840083136F08303EAD2F6F08303E0D
:100DAE00B12FED0AF0080319E32E700884008313A7
:100DBE0020308000F00AE52E2030D624EE036E0897
:100DCE00803A7E3E0318D82E0230EB076B02840069
:100DDE0083130008EF00A52F0230EB076B0284008F
:100DEE0083130008F300840A0008F400EF016F0873
:100DFE007307F6007408F70076080318F70A0D203B
:100E0E00003803190C2FEF0AFE2E6C086F02031820
:100E1E00122F6F08EC006C08EE1B3D2FFF3A6E0789
:100E2E00031C3D2FED0AF0080319242F70088400CF
:100E3E00831320308000F00A262F2030D624EE03B4
:100E4E00122F7408F70073080D20EF00F30A031930
:100E5E00F40AED0AF00803193B2F7008840083137F
:100E6E006F088000F00A3D2F6F08D624EC036C0F3C
:100E7E00282FB22F6908F70068080D202A3A031DA3
:100E8E004F2F0230EB076B028400831300086B2F89
:100E9E006908F70068080D20D03EEC00E80A031937
:100EAE00E90A6908F70068080D20EF0030306F027C
:100EBE00031C6F2F3A306F0203186F2F0A30FA009F
:100ECE006C08DF246F07D03EEC00E80A0319E90A2C
:100EDE006908F7006808E80A0319E90A0D20EF000F
:100EEE00003A0319122E2A3A03191B2E043A03193B
:100EFE00412F763A0319242E3B3A0319E62E073A70
:100F0E000319222E0B3A0319262E1C3A0319F32E1F
:100F1E00063A0319282E0D3A0319242E30306F028B
:100F2E00031CA52F3A306F020318A52F0A30FA00C2
:100F3E006E08DF246F07D03EEE006F2FED0AF0082B
:100F4E000319B02F7008840083136F088000F00A15
:100F5E00B22F6F08D6246908F7006808E80A03194B
:100F6E00E90A0D20EF00EF08031D092EF008031902
:100F7E00C42F70088400831380016D080800FF01E0
:100F8E00FD01FE017B087C04031DD02FF901FA013F
:100F9E0000341F30FF040310FF0AFB0DFC0D031C71
:100FAE00D32FFC0CFB0C7C087A02031DE02F7B0870
:100FBE007902031CE82F7B08F9027C08031C7C0ACB
:100FCE00FA02FD0DFE0DFF0BFF1AD82FFF1FF42F97
:100FDE00FD09FD0A0319FE03FE097D08FB007E08CC
:100FEE00FC007F1F0034F909F90A0319FA03FA0904
:020FFE000034BD
:02400E00F4308C
:00000001FF
