:020000020000FC
:100000001FC07DC018951895189518951895A3C010
:10001000189518951895189518958FC018951895D6
:06002000189518951895D3
:100040000FED0DBFAA240FEFB02E04E007BB04E0B4
:1000500008BB00E101BB00E102BB02E400BF01E01C
:1000600003BF0FE306BF00E408B902E001B9A2B87C
:1000700009E109B9ABB808E90AB906E003B9ACB8B7
:1000800001E005BF00E40BBF01E009BF94985524CF
:100090009927882702E3C02E0BE4D02E04E6E02E39
:1000A00006E9F02E789497FF0BC09F7796FF04C067
:1000B0009F7B16D09498F7CF977C12D09498F3CF6B
:1000C00090FFF1CF91FF02C00BD008C08395823121
:1000D00029F4849B949A8499949802D0987FE3CFD2
:1000E00088270895F0E0E3E608E0399688940EF456
:1000F00008941291111F10830A95D9F7089597FD5E
:1001000018955C1422F4906A987F552418955D1414
:1001100022F495609D7F552418955E1422F4906911
:10012000987F552418955F1422F493609B7F552483
:1001300018959868987F5524189597FD18955B1425
:1001400011F053941895906C987F552418955D9BE9
:10015000FECF1CB908951F930F930CB1102FF7DF3A
:060160000F911F9118959C
:00000001FF
